:100000000C940F100C9456100C9456100C9456101F
:100010000C9456100C9456100C9456100C945610C8
:100020000C9456100C9456100C9490310C9464322D
:100030000C94B62C0C9456100C9456100C9456102C
:100040000C9456100C9456100C9456100C94561098
:100050000C9456100C94292D0C9456100C94561098
:100060000C9456100C9456100C9456100C94561078
:100070000C9456100C9456100C9456100C94561068
:100080000C9456100C9456100C9456100C94561058
:100090000C9456100C9456100C9456100C94561048
:1000A0000C9456100C9456100C945610000000003E
:1000B0000000000000000000000000000000000040
:1000C0000000000000000000000000000000000030
:1000D0000000000000000000000000000000000020
:1000E0000000000000000000000000008080808010
:1000F00080808010181C1C1B1918100000000000C4
:1001000000000000000000000000000000000000EF
:1001100000000000000000000000000000000000DF
:1001200000000000000000000000000000000000CF
:1001300000000000000000000000000000000000BF
:1001400000000000000000000000000000000000AF
:10015000000000000000000000000000000000009F
:1001600000000000000000000000000081C1E1E18B
:1001700099878700000000000000000000000000D8
:10018000000000000000000000000000000000006F
:10019000000000000000000000000000000000005F
:1001A000000000000000000000000000000000004F
:1001B000000000000000000000000000000000003F
:1001C000000000000000000000000000000000002F
:1001D00000000000000000000000C0C0C0C0C0C09F
:1001E000C030303030303C0C0C0C0C0C0C0C0C0CB7
:1001F0000C0C0C303030303070C0C0C0C0C0C0C03B
:1002000000000000000000000000000000000000EE
:1002100000000000000000000000000000000000DE
:1002200000000000000000000000000000000000CE
:1002300000000000000000000000000000000000BE
:10024000000000000000000000000000008080E0CE
:10025000E0F88C8C0C0C0303838380F8780000801A
:1002600080808060606040000000000080800000AE
:10027000000000606060608080808000787880800E
:10028000838303070C8C8CF8F8E0E080800000008A
:10029000000000000000000000000000000000005E
:1002A000000000000000000000000000000000004E
:1002B000000000000000000000000000000000003E
:1002C000000000000000C0C0C0C0C0C6C6C7C7C78D
:1002D0008707070706060606E1E11F8FC0E0E0E199
:1002E000E1C1810000000000F0F0F8F8F9F9F8F839
:1002F000F0E00000000000C1C1E1E1E0C0C01F1F4C
:10030000E1E10606060707070707070707060600D5
:1003100000000000000000000000000000000000DD
:1003200000000000000000000000000000000000CD
:1003300000000000000000000000000000000000BD
:10034000000000000000FFFF0101010101010101A7
:100350000303030303030C0C3FFFC0C3030F0F0F82
:100360000F030300000000000F0F3F3F3F3F3FFF20
:10037000FFFF8C0C0C3030C3C38F0F0F0703C0C0BE
:100380003F3F0000000000000000000000000000EF
:10039000000000000000000000000000000000005D
:1003A000000000000000000000000000000000004D
:1003B000000000000000000000000000000000003D
:1003C0000000000000000707060606060618189839
:1003D0009898E0606060000080FFFFFF0E00000062
:1003E000000000E0E000000000000000000000004D
:1003F0000003031E1EE0E00001031F1E1E0EFFFF90
:1004000000000000000000000000000000000000EC
:1004100000000000000000000000000000000000DC
:1004200000000000000000000000000000000000CC
:1004300000000000000000000000000000000000BC
:10044000000000000000000000181836363636C1E3
:10045000D9DD1C1C7E7E7E7EFFFF0101007C7CC0FE
:10046000C0000007FFFCF8000000000000000000D2
:100470000000000000010100000000000000010178
:10048000FEFE000000000000000000000000000070
:10049000000000000000000000000000000000005C
:1004A000000000000000000000000000000000004C
:1004B000000000000000000000000000000000003C
:1004C000000000000000000000000000000000002C
:1004D000000000000000000000000000000000001C
:1004E000000000000000000000000000808080800C
:1004F000808080000000000000000000000000007C
:1005000000000000000000000000000000000000EB
:1005100000000000000000000000000000000000DB
:1005200000000000000000000000000000000000CB
:1005300000000000000000000000000000000000BB
:1005400000000000000000000000000000000000AB
:10055000000000000000000000000000000000009B
:1005600000000000000000000000000081C1E1E187
:1005700099878700000000000000000000000000D4
:10058000000000000000000000000000000000006B
:10059000000000000000000000000000000000005B
:1005A000000000000000000000000000000000004B
:1005B000000000000000000000000000000000003B
:1005C000000000000000000000000000000000002B
:1005D00000000000000000000000C0C0C0C0C0C09B
:1005E000C030303030303C0C0C0C0C0C0C0C0C0CB3
:1005F0000C0C0C303030303070C0C0C0C0C0C0C037
:1006000000000000000000000000000000000000EA
:1006100000000000000000000000000000000000DA
:1006200000000000000000000000000000000000CA
:1006300000000000000000000000000000000000BA
:10064000000000000000000000000000008080E0CA
:10065000E0F88C8C0C0C0303838380F87800008016
:1006600080808060606040000000000080800000AA
:10067000000000606060608080808000787880800A
:10068000838303070C8C8CF8F8E0E0808000000086
:10069000000000000000000000000000000000005A
:1006A000000000000000000000000000000000004A
:1006B000000000000000000000000000000000003A
:1006C000000000000000C0C0C0C0C0C6C6C7C7C789
:1006D0008707070706060606E1E11F8FC0E0E0E195
:1006E000E1C1810000000000F0F0F8F8F9F9F8F835
:1006F000F0E00000000000C1C1E1E1E0C0C01F1F48
:10070000E1E10606060707070707070707060600D1
:1007100000000000000000000000000000000000D9
:1007200000000000000000000000000000000000C9
:1007300000000000000000000000000000000000B9
:10074000000000000000FFFF0101010101010101A3
:100750000303030303030C0C3FFFC0C3030F0F0F7E
:100760000F030300000000000F0F3F3F3F3F3FFF1C
:10077000FFFF8C0C0C3030C3C38F0F0F0703C0C0BA
:100780003F3F0000000000000000000000000000EB
:100790000000000000000000000000000000000059
:1007A0000000000000000000000000000000000049
:1007B0000000000000000000000000000000000039
:1007C0000000000000000707060606060618189835
:1007D0009898E0606060000080FFFFFF0E0000005E
:1007E000000000E0E0000000000000000000000049
:1007F0000003031E1EE0E00001031F1E1E0EFFFF8C
:1008000000000000000000000000000000000000E8
:1008100000000000000000000000000000000000D8
:1008200000000000000000000000000000000000C8
:1008300000000000000000000000000000000000B8
:10084000000000000000000000181836363636C1DF
:10085000D9DD1C1C7E7E7E7EFFFF0101007C7CC0FA
:10086000C0000007FFFCF8000000000000000000CE
:100870000000000000010100000000000000010174
:10088000FEFE00000000000000000000000000006C
:100890000000000000000000000000000000000058
:1008A0000000000000000000000000000000000048
:1008B0000000000000000000000000000000000038
:1008C0000000000000000000000000000000000028
:1008D0000000000000000000000000000000000018
:1008E0000000000000000000000000000000000008
:1008F00000000000000000000000000000000000F8
:1009000000000000000000000000000000000000E7
:1009100000000000000000000000000000000000D7
:1009200000000000000000000000000000000000C7
:1009300000000000000000000000000000000000B7
:1009400000000000000000000000000000000000A7
:100950000000000000000000000000000000000097
:100960000000000000000000000000000000000087
:100970000000000000000000000000000000000077
:100980000000000000000000000000000000000067
:100990000000000000000000000000000000000057
:1009A0000000000000000000000000000000000047
:1009B0000000000000000000000000000000000037
:1009C0000000000000000000000000000000000027
:1009D00000000000000000000000C0C0C0C0C0C097
:1009E000C030303030303C0C0C0C0C0C0C0C0C0CAF
:1009F0000C0C0C303030303070C0C0C0C0C0C0C033
:100A000000000000000000000000000000000000E6
:100A100000000000000000000000000000000000D6
:100A200000000000000000000000000000000000C6
:100A300000000000000000000000000000000000B6
:100A4000000000000000000000000000008080E0C6
:100A5000E0F88C8C0C0C0303838380F87800008012
:100A600080808060606040000000000080800000A6
:100A70000000006060606080808080007878808006
:100A8000838303070C8C8CF8F8E0E0808000000082
:100A90000000000000000000000000000000000056
:100AA0000000000000000000000000000000000046
:100AB0000000000000000000000000000000000036
:100AC000000000000000C0C0C0C0C0C6C6C7C7C785
:100AD0008707070706060606E1E11F8FC0E0E0E191
:100AE000E1C1810000000000F0F0F8F8F9F9F8F831
:100AF000F0E00000000000C1C1E1E1E0C0C01F1F44
:100B0000E1E10606060707070707070707060600CD
:100B100000000000000000000000000000000000D5
:100B200000000000000000000000000000000000C5
:100B300000000000000000000000000000000000B5
:100B4000000000000000FFFF01010101010101019F
:100B50000303030303030C0C3FFFC0C3030F0F0F7A
:100B60000F030300000000000F0F3F3F3F3F3FFF18
:100B7000FFFF8C0C0C3030C3C38F0F0F0703C0C0B6
:100B80003F3F0000000000000000000000000000E7
:100B90000000000000000000000000000000000055
:100BA0000000000000000000000000000000000045
:100BB0000000000000000000000000000000000035
:100BC0000000000000000707060606060618189831
:100BD0009898E0606060000080FFFFFF0E0000005A
:100BE000000000E0E0000000000000000000000045
:100BF0000003031E1EE0E00001031F1E1E0EFFFF88
:100C000000000000000000000000000000000000E4
:100C100000000000000000000000000000000000D4
:100C200000000000000000000000000000000000C4
:100C300000000000000000000000000000000000B4
:100C4000000000000000000000181836363636C1DB
:100C5000D9DD1C1C7E7E7E7EFFFF0101007C7CC0F6
:100C6000C0000007FFFCF8000000000000000000CA
:100C70000000000000010100000000000000010170
:100C8000FEFE000000000000000000000000000068
:100C90000000000000000000000000000000000054
:100CA0000000000000000000000000000000000044
:100CB0000000000000000000000000000000000034
:100CC000000FFF02060606060C0C0C0C0818181084
:100CD00030303040404080800000000000000000C4
:100CE0000000000000000000000000000000000004
:100CF00000000000000000000000000000000000F4
:100D000000000000000000000000000000000000E3
:100D100000000000000000000000000000000000D3
:100D200000000000000000000000000000000000C3
:100D300000000000000000000000000000000000B3
:100D40000000031F3C2020202020202020202020E5
:100D50002060E00000E0DCCF808080808000000028
:100D60000000000000000000000000000000000083
:100D70000000000000000000000000000000000073
:100D80000000000000000000000000000000000063
:100D90000000000000000000000000000000000053
:100DA0000000000000000000000000000000000043
:100DB0000000000000000000000000000000000033
:100DC0000000000000000000000000000000000023
:100DD000000E0F0808040606FCF8FCFFF1F0F0F026
:100DE000000000000000000080C0C0C08000008043
:100DF000C0C08090F0F0F0E0E0E0C0C080000000F3
:100E000000000000000000000000000000000000E2
:100E100000000000000000000000000000000000D2
:100E200000000000000000000000000000000000C2
:100E300000000000000000000000000000000000B2
:100E400000000000000000000000000000000000A2
:100E50000000000000000000000100000C8FCF7FA8
:100E60003E0E0E02020101017FFFFFFF3F01010163
:100E700003FFFFFFFFFFFFF981810303070F0F0E41
:100E80001E3C7878383030206060C0C080000000A0
:100E90000000000000000000000000000000000052
:100EA0000000000000000000000000000000000042
:100EB0000000000000000000000000000000000032
:100EC0000000000000000000000000000000000022
:100ED0000000000000000000000000F83E070000D5
:100EE0000000000000000000000001010000000000
:100EF00000010307070300000101030303020000D0
:100F000000000000000000000000E0E02307FCF803
:100F100000000000000000000000000000000000D1
:100F200000000000000000000000000000000000C1
:100F300000000000000000000000000000000000B1
:100F400000000000000000000000000000000000A1
:100F500000000000000000000000FC7F0000000016
:100F60000000000000808080000000000000000001
:100F70000000000000000000000000000000000071
:100F800000003078FCFCFCF870000707030007CF76
:100F9000FC3800000000000000000000000000001D
:100FA0000000000000000000000000000000000041
:100FB0000000000000000000000000000000000031
:100FC0000000000000000000000000000000000021
:100FD0000000000000000000001F1D0C1F1F020287
:100FE00002020202030303030303030303030303D5
:100FF0000202060E0E1C78E0C000000000001CF883
:10100000E0E0E0E0E03030303818180C0C06030166
:1010100000000000000000000000000000000000D0
:1010200000000000000000000000000000000000C0
:1010300000000000000000000000000000000000B0
:1010400000000000000000000000000000000000A0
:101050000000000000000000000000000000000090
:101060000000000000000000000000000000000080
:10107000000000000000000003070C3860C0C0C082
:10108000FFFF3F3F7F7F786000000000000000000E
:101090000000000000000000000000000000000050
:1010A0000000000000000000000000000000000040
:1010B000000000000000000000000000000000C070
:1010C00040408080808000000000000000000000A0
:1010D0000000000000000000000000000000000010
:1010E0000000000000000000000000000000000000
:1010F00000000000000000000000000000000000F0
:1011000000000000000000000000000000000000DF
:1011100000000000000000000000000000000000CF
:1011200000000000000000000000000000000000BF
:10113000000000000000000000000000000000FFB0
:1011400080000000000101010302060604040408F7
:1011500018F8F0000000000000000000000000008F
:10116000000000000000000000000000000000007F
:10117000000000C0E0E0E0C0C0808080808080008F
:10118000000000000000000000000000000000005F
:10119000000000000000000000000000000000004F
:1011A000000000000000000000000000000000003F
:1011B000000000000000000000000000000000002F
:1011C0000707060606060606060606C6FE1C001CDF
:1011D0003F37303030F030200000000000000000C9
:1011E00000000000000000000000000000000007F8
:1011F00007070F0F1F1F3931236343C3838383877F
:1012000007070E0E1E1C1C181818303030302060D6
:1012100040C00000000000000000000000000000CE
:1012200000000000000000000000000000000000BE
:1012300000000000000000000000000000000000AE
:101240000000000000000000000000010101010199
:1012500001E3FFFEFEF7F0F0F0F0F03000000000D8
:10126000000000C0E0E0E0E030301010181818F87E
:10127000F8F8F8F80C0C0C0C060602030301010147
:1012800001000000000000000000000000E0F0D0BD
:10129000000306F8800000000000000000000000CD
:1012A000000000000000000000000000000000003E
:1012B000000000000000000000000000000000002E
:1012C000000000000000000000000000000000001E
:1012D00000000000000000011F1F1F1CFC7C0C040C
:1012E000020103071F3F7F7F7E0000000000000116
:1012F000070F0F0F000000000000000000000000BA
:1013000000000000800000003C7EFEFEFE3F130156
:10131000000080C1733F0E000000000000000000CC
:1013200000000000000000000000000000000000BD
:1013300000000000000000000000000000000000AD
:10134000000000000000000000000000000000009D
:1013500000000000000000000000F8FF0300000093
:10136000000000000000000000000000000000007D
:1013700000000000000000000000008080C0C0C02D
:10138000C0C080810103030307060E0C1C1C3C3EF9
:10139000FEFF7B391000000000000000000000008C
:1013A000000000000000000000000000000000003D
:1013B000000000000000000000000000000000002D
:1013C000000000000000000000000000000000001D
:1013D00000000000000080C0C0607F0F000000001F
:1013E0000000008080C040602030301818181818A5
:1013F0001C0C0C0C06060202030303030100000090
:1014000000000103030303020202020202020203BC
:1014100003010000000000000000000000000000C8
:1014200000000000000000000000000000000000BC
:1014300000000000000000000000000000000000AC
:10144000000000000000000000000000000000009C
:1014500000000000003FFFFFDF0E03010103030255
:101460000303010100000000000000000000000074
:10147000000000000000000000000000000000006C
:10148000000000000000000000000000000000005C
:10149000000000000000000000000000000000004C
:1014A000000000000000000000000000000000003C
:1014B00000000000000000000000000000000080AC
:1014C000800000000000000000000000000000009C
:1014D000000000000000000000000000000000000C
:1014E00000000000000000000000000000000000FC
:1014F00000000000000000000000000000000000EC
:1015000000000000000000000000000000000000DB
:1015100000000000000000000000000000000000CB
:1015200000000000000000000000000000000000BB
:10153000000000000000000000000000000000FFAC
:1015400003010101010202060604040C1818181018
:10155000F0E00000000000000000000000000000BB
:10156000000000000000000000000000000000007B
:10157000000000000000000000000000000000006B
:10158000000000000000000000000000000000005B
:10159000000000000000000000000000000000004B
:1015A000000000000000000000000000000000003B
:1015B0000000000000000000000000000000000328
:1015C000060606060606060408080808F8F800607D
:1015D000FF1F0000000000000000000000000000ED
:1015E0000000000000000000000000000060E0E0DB
:1015F000E0E2E6EE7E3C3C3C7C78F8F8F0F0F0E08F
:10160000C0C08000000000000000000000000000DA
:1016100000000000000000000000000000000000CA
:1016200000000000000000000000000000000000BA
:1016300000000000000000000000000000000000AA
:101640000000000000000000000000000F0F0C0C64
:101650000909F9F9F3FFC0C0C0C080000000000014
:10166000000000000080C0C0E060603030F0F0F1A9
:10167000F1F31B1B1F1E1C18181030302020010115
:101680000301010101010101010282840C30E080AB
:10169000000000000000000000000000000000004A
:1016A000000000000000000000000000000000003A
:1016B000000000000000000000000000000000002A
:1016C000000000000000000000000000000000001A
:1016D00000000103030303033F3F3F303030F0F0CD
:1016E000300804060F0F1F3F3F3000000001071FA6
:1016F0001F1F0000000000000000000000000000AC
:101700000000C0E0F0F0E0E080001F1F0C000F1FA1
:10171000B0F0000000000000000000000000000029
:1017200000000000000000000000000000000000B9
:1017300000000000000000000000000000000000A9
:101740000000000000000000000000000000000099
:1017500000000000000000000000000000FFFF008B
:101760000000000000000000000000000000000079
:101770000000000000000000000000000000002049
:10178000C0C0C1838387C7C3C160603030380C07D5
:101790000301000000000000000000000000000045
:1017A0000000000000000000000000000000000039
:1017B0000000000000000000000000000000000029
:1017C0000000000000000000000000000000000019
:1017D00000000000000000000000000000000307FF
:1017E0000C3860E08000000000000000000010F0F5
:1017F000303018181C0C0C0C0E0E0C1C30E0C00005
:101800000003FF7F7F1F07000000000000000000B2
:1018100000000000000000000000000000000000C8
:1018200000000000000000000000000000000000B8
:1018300000000000000000000000000000000000A8
:101840000000000000000000000000000000000098
:101850000000000000000000000000000000000088
:1018600000000000071F1F3C3870606C7C7E6341E5
:101870000000000000000000000000000000030362
:101880000303000000000000000000000000000052
:101890000000000000000000000000000000000048
:1018A0000000000000000000000000000000000038
:1018B0000000000000000000000000000000000028
:1018C0000000007FFF010103020606040C0C08184B
:1018D00018103030404040C0808000000000000000
:1018E00000000000000000000000000000000000F8
:1018F00000000000000000000000000000000000E8
:1019000000000000000000000000000000000000D7
:1019100000000000000000000000000000000000C7
:1019200000000000000000000000000000000000B7
:1019300000000000000000000000000000000000A7
:1019400000000000000F0808080808181010101008
:1019500010E000000080F07C0701000000000000A3
:101960000000000000000000000000000000000077
:101970000000000000000000000000000000000067
:101980000000000000000000000000000000000057
:101990000000000000000000000000000000000047
:1019A0000000000000000000000000000000000037
:1019B0000000000000000000000000000000000027
:1019C0000000000000000000000000000000000017
:1019D0001C3F3020202323E6E6CEFC3C0000000024
:1019E00000000000000000000000000000C0C0C0B7
:1019F0008000F0F0F0E0E0C0C0C080000000000017
:101A000000000000000000000000000000000000D6
:101A100000000000000000000000000000000000C6
:101A200000000000000000000000000000000000B6
:101A300000000000000000000000000000000000A6
:101A40000000000000000000000000000000000096
:101A50000000000000000207070F0F0E3E3E7C70E2
:101A6000F0E0E06030180C0C3EFEFEFEFF0F0F1F92
:101A7000FFFFFFFBE3C3C387870F0F1F1F3E3C3CE5
:101A80001810303020606060C0800000000000004E
:101A90000000000000000000000000000000000046
:101AA0000000000000000000000000000000000036
:101AB0000000000000000000000000000000000026
:101AC0000000000000000000000000000000000016
:101AD0000000000000000000000000000000000006
:101AE000F8070100000000000000010303000000EF
:101AF00003070701000000010103030606000000C0
:101B00000000000000000000C0C00106FEF8000058
:101B100000000000000000000000000000000000C5
:101B200000000000000000000000000000000000B5
:101B300000000000000000000000000000000000A5
:101B40000000000000000000000000000000000095
:101B50000000000000000000000000000000000085
:101B60000F7CC080000000000000000000040C0892
:101B70001818F0E000000000000000000000000065
:101B8000387CFCFCFC7820000F0F060047CF78382B
:101B90000000000000000000000000000000000045
:101BA0000000000000000000000000000000000035
:101BB0000000000000000000000000000000000025
:101BC0000000000000000000000000000000000015
:101BD0000000000000000000000000000000000005
:101BE0000000000103060C18187870606030303077
:101BF0003030FFDF1C1C1C000080E0F0F8F070307B
:101C000030303030301818181C0C0C06030100005E
:101C100000000000000000000000000000000000C4
:101C200000000000000000000000000000000000B4
:101C300000000000000000000000000000000000A4
:101C40000000000000000000000000000000000094
:101C50000000000000000000000000000000000084
:101C60000000000000000000000000000000000074
:101C700000001F7F606060787C7F0F07030000001A
:101C80000000000000000000000000000000000054
:101C90000000000000000000000000000000000044
:101CA000000000000000000000000000626C69738A
:101CB0007365796870373134004D696E677A6520D5
:101CC000697320636F6F6C006D696E677A652E6A49
:101CD000696E313140676D61696C2E636F6D0016FE
:101CE0005C1E001F0020002100220023002400258C
:101CF00000260027002D002E002A00A8002B00142B
:101D0000001A000800150017001C0018000C001233
:101D10000013002F00300031004C00390004001681
:101D200000070009000A000B000D000E000F003331
:101D3000003400320028005200E10031001D001B79
:101D400000060019000500110010003600370038A9
:101D500000E50049000000E000E300E200000000B0
:101D60000000002C000000E600E700E400015150F4
:101D70000051004F0001003A003B003C003D003E96
:101D8000003F004000410042004300440045000184
:101D900000A6000100010001000100005C0100013B
:101DA00000010001000100655D0100010001004B20
:101DB00000010001000100010001000100010064B8
:101DC0005D010001000100010001000100010001AE
:101DD0000001000100010001000100010001006399
:101DE0005D01000100010001004E00000001000142
:101DF00000010000000000000001000000010001DF
:101E00000001000100AC00AE00AB000000000000CB
:101E10000000002A2B280000000000000000000045
:101E200000000000000029000000002C1E342021CA
:101E30002224342627252E362D3738271E1F202111
:101E400022232425263333362E37381F0405060770
:101E500008090A0B0C0D0E0F10111213141516178A
:101E600018191A1B1C1D2F3130232D3504050607A8
:101E700008090A0B0C0D0E0F10111213141516176A
:101E800018191A1B1C1D2F3130354C0000000000A2
:101E90000000000000000000000000000000000042
:101EA0000000000000000000000000000000007EB4
:101EB0000F00D4FFFFFFC70000007800AE00AF00A6
:101EC000DA1281FFD9F1DB20A4A62EAF00A0C0005A
:101ED000A1C800AED580A83FD300408D14200016C5
:101EE00003470061006E004A0069006E0067002031
:101EF0000037003000000018036D0069006E0067B5
:101F0000007A0065006A0069006E0031003100004F
:101F1000000403090409023B00020100A032090485
:101F2000000001030101000921110100012240000C
:101F30000705810308000A090401000103000000ED
:101F4000092111010001227B000705820320000AFC
:101F50001201000200000008626B696802000102C1
:101F6000000105010902A10185020901A10005097D
:101F7000190129081500250195087501810205013F
:101F8000093009311581257F9502750881060938C8
:101F90001581257F950175088106050C0A38021503
:101FA00081257F950175088106C0C005010980A1C2
:101FB00001850319012AB700150126B7009501759F
:101FC000108100C0050C0901A101850419012AA096
:101FD00002150126A002950175108100C0050109B6
:101FE00006A101050719E029E715002501950875E7
:101FF0000181029501750881010507190029FF1566
:102000000026FF00950675088100050819012905BD
:10201000950575019102950175039101C000112488
:102020001FBECFEFDAE0DEBFCDBF04B603FE27C090
:102030008091FC069091FD06A091FE06B091FF06EE
:102040008730904BA740B04BD1F41092FC06109211
:10205000FD061092FE061092FF0614BE84B7877F1D
:1020600084BF0FB6F894A895809160008861809332
:102070006000109260000FBEE0E0F8E3099511E007
:10208000A0E0B1E0ECE2FEE602C005900D92A23BBA
:10209000B107D9F726E0A2EBB1E001C01D92AC3F39
:1020A000B207E1F70E94A1220C94EC360C940000D8
:1020B0000E9437258431D0F48091B50190E00196DB
:1020C00063E070E00E9442368093B50122E030E088
:1020D000A901481B590BCA01982F8827990F990FFE
:1020E00060E074E084559F4F0E94FE260E943725D1
:1020F0008431B8F02091B40130E02F5F3F4F23705E
:1021000033272093B40183E090E0821B930B982F38
:102110008827990F990F60E074E08455934F0C94D1
:10212000FE2608959C01FB0182818823B9F02436A4
:10213000FDE53F0769F025369DE5390761F0233657
:102140003D4569F488EC9CE10E94F11280E008951D
:1021500089EB9CE1F9CF8CEA9CE1F6CF81E0089510
:1021600082E008950F931F930E943725682F70E037
:1021700090E080E00E94D03420E030E040E250E483
:102180000E94C1359B01AC0160E070E08AEF93E4EE
:102190000E94163420E030E048EC52E40E949A3469
:1021A00087FD56C00E943725682F70E090E080E0E0
:1021B0000E94D03420E030E040E250E40E94C1357B
:1021C0009B01AC0160E070E08AEF93E40E9416345A
:1021D0000E949F346093BE017093BF018093C00141
:1021E0009093C1010E9437258531B8F10E943E27A6
:1021F0006091BA017091BB018091BC019091BD01C9
:102200000E940D2D0091BE011091BF012091C001CF
:102210003091C101061717072807390760F40E949B
:10222000F22C6093BA017093BB018093BC01909330
:10223000BD010E9458100E94F22C6093B601709369
:10224000B7018093B8019093B9011F910F91089540
:1022500064E670E080E090E0BDCF6091B6017091DF
:10226000B7018091B8019091B9010E940D2D613E96
:1022700073498440910520F01F910F910C945928C7
:102280006091BA017091BB018091BC019091BD0138
:102290000E940D2D693C710581059105B0F20E94E7
:1022A000F22C6093BA017093BB018093BC019093B0
:1022B000BD011F910F910C94581081E008950C946A
:1022C000921008950C9461111F93CF93DF9300D067
:1022D00000D00F92CDB7DEB749835A836B8330911C
:1022E000C20189819A8131111DC06623B9F0222370
:1022F000A9F00E947218182F682F89819A810E9474
:102300001E1869817A81812F0F900F900F900F9086
:102310000F90DF91CF911F910C94E71E0E944A18F5
:10232000182FEFCF0E94721869817A81EDCFFC01DE
:10233000262F408151816281738184810C946411C4
:1023400081E00895CF93DF93EC0160E00E94971144
:10235000BE01DF91CF910C9462110E940E210E9468
:10236000FB120C9433210E94BD250C943621089554
:102370000E94C7160E94B7112FEF84E39CE0215002
:1023800080409040E1F700C000000C944D2D0F9369
:102390001F93CF93DF938C0161E00E949711EC01B2
:1023A000F8018281882319F0CE010E946325B801CB
:1023B000CE010E945F118823A9F1B801CE010E94CD
:1023C0000C29882379F1B801CE010E945E29882367
:1023D00049F1B801CE010E94882A882319F1F80139
:1023E0008281882361F0CB35FDE5DF0721F170F4B0
:1023F000C115ECE5DE07A1F0CF3DDC45C9F0C80111
:10240000DF91CF911F910F910C945D11CC358DE52B
:10241000D807A1F0CD35DD4591F70E944F1CEFCFD5
:102420000E94B81180E0DF91CF911F910F91089524
:102430000E94C61DF7CF0E94581CE1CF0E945B1C72
:10244000DECFDF92EF92FF920F931F93CF93DF9334
:10245000E82FF0E0E55FF14ED490282F26952695E1
:10246000269530E0F901E555F14E0491877010E0B2
:10247000082E02C0159507950A94E2F701701127FE
:10248000F901E556F14EE490F12C082E02C0F594C6
:10249000E7940A94E2F791E0E922FF24F901E55775
:1024A000F14EC491D0E002C0D595C7958A95E2F768
:1024B000C170DD270115110519F081EE0E94471347
:1024C000E114F10419F086EE0E9447138D2D0E944D
:1024D0004614EF2819F086EE0E94D913012B19F04B
:1024E00081EE0E94D913CD2B51F08CE2DF91CF9178
:1024F0001F910F91FF90EF90DF900C944614DF91A5
:10250000CF911F910F91FF90EF90DF900895EF9280
:10251000FF920F931F93CF93DF938C01F62E8AE0E7
:10252000E82EF8018491882309F454C0813009F021
:102530004DC0E8012196FE018491813091F42196ED
:10254000FE0184910E9446148E010F5F1F4F8F2D54
:10255000815038F3EFE9FFE03197F1F700C0000058
:10256000F7CF823039F4E8012296FE0184910E946F
:102570004713EACF833039F4E8012296FE018491B3
:102580000E94D913E1CF8430F9F6E8012296FE01CA
:10259000249190E080E0FE0131962053330B2A30E5
:1025A000310548F0019780F2EFE9FFE03197F1F74C
:1025B00000C00000F7CFE89EA001E99E500D112455
:1025C000C901840F951F2491EF01E5CF0E942112CC
:1025D000E801BACFDF91CF911F910F91FF90EF905B
:1025E000089560E00C94871208950C94F41281E031
:1025F00008950C94F7120895CF93C82F0E94F512F6
:102600008C2FCF910C94F912CF93DF93CDB7DEB717
:102610002B970FB6F894DEBF0FBECDBF4F83588700
:1026200069877A878B8761110E947E1C1E821D82BA
:1026300085E0FE013796DE01119601900D928A9594
:10264000E1F78C819D81892B89F449815A816B81C5
:102650007C818D819E810E947E1B2B960FB6F89403
:10266000DEBF0FBECDBFDF91CF91089589819A81E2
:1026700089238F3F51F3CE0101960E94A011811151
:10268000E4CFEBCFFC01808191810C94B418CF93FF
:10269000C82F882309F48BC08238C1F40E94BE2B56
:1026A00081FD85C089E30E94181C0E94AE1C2FEF9B
:1026B00081EE94E0215080409040E1F700C000009E
:1026C00089E30E941F1CCF910C94AE1C8338A1F4A7
:1026D0000E94BE2B80FD6BC083E50E94181C0E94E7
:1026E000AE1C2FEF81EE94E0215080409040E1F746
:1026F00000C0000083E5E5CF8438A1F40E94BE2B22
:1027000082FD55C087E40E94181C0E94AE1C2FEF6A
:1027100081EE94E0215080409040E1F700C000003D
:1027200087E4CFCF8CEF8C0F813A90F46C2F80919F
:102730000001909101010E94212C882329F08C2F07
:102740000E941F1C0E94AE1C8C2F0E94181CBBCF25
:1027500080E28C0F883048F4C77081E001C0880F98
:10276000CA95EAF70E94611CAECFEBE5EC0FE330AF
:1027700040F4F0E0E65BFE4F808190E0CF910C9456
:10278000E32BE8E5EC0FE73150F4F0E0EE0FFF1F2C
:10279000E45EFE4F80819181CF910C94F92BCD3E68
:1027A00030F08C2F0E942F23CF910C940224CF91D4
:1027B0000895882309F452C0823871F40E94BE2B18
:1027C00081FF4CC089E30E94181C0E94AE1C89E363
:1027D0000E941F1C0C94AE1C833859F40E94BE2B1F
:1027E00080FF3CC083E50E94181C0E94AE1C83E55C
:1027F000EFCF843859F40E94BE2B82FF2FC087E4AC
:102800000E94181C0E94AE1C87E4E2CF9CEF980F38
:10281000913AF0F290E2980F983050F4877091E07E
:1028200001C0990F8A95EAF7892F0E94671CD2CFC1
:102830009BE5980F933020F490E080E00C94E32B1C
:1028400098E5980F973120F490E080E00C94F92BF4
:102850008D3E20F00E9489230C94022408951F933A
:10286000CF93DF93182FEB010E944713209731F489
:10287000812FDF91CF911F910C94D9138FE99FE0A5
:102880000197F1F700C000002197F0CF70E060E001
:10289000893311F460E570E00C942F14882321F043
:1028A0000E94611C0C94AE1C0895882321F00E94A4
:1028B000671C0C94AE1C0895BF92CF92DF92EF92EA
:1028C000FF920F931F93CF93DF936C01D62FC72FE7
:1028D000FC011281058102950F700E94361CE82EC2
:1028E0008823A1F0E12E112389F08C2F807F803482
:1028F00029F080E28D0FE12C883040F082E00E94C8
:10290000FF1C0E94361C91E0E82EE926BC2EB294F2
:102910009FE0B922EB2DF0E0E251F94C0C947536B2
:102920000C2F0F70C07F11F00295007F1123A9F0CA
:10293000002359F080E28D0F883010F0D11109C0CA
:10294000802F0E94611C0E94AE1C8D2F0E94471395
:1029500014C0802F0E94711CF6CF8D2F0E94D913B6
:10296000002359F080E28D0F883010F0D1112CC077
:10297000802F0E94671C0E94AE1C2B2D2850330B09
:102980002430310520F40E94BE2B0E94FC12EE2060
:1029900009F49EC10E94321C80FD9AC1F601128288
:1029A0000E942C1C0E948217C6010E9489160E9458
:1029B0002C1CDF91CF911F910F91FF90EF90DF9032
:1029C000CF90BF900C94A317802F0E94771CD3CF79
:1029D000FC2FFF70FF2EC07FC03219F0F29480EF01
:1029E000F822DD2369F0D13049F1112391F1002360
:1029F00051F1F601858180FFA8CF8F70858323C0B8
:102A0000112381F0011106C00E94911C8F290E94A0
:102A10004E14B3CF0130C1F70E94911C8F290E9440
:102A2000971CABCF011106C00E94A41C8F2D0E94E1
:102A30005514A3CF013009F4A0CFF6CF112329F00C
:102A4000063008F09ACF8F2DE2CF053008F095CFF1
:102A5000EDCF002359F3D93349F4FFEF27EE33E0EC
:102A6000F15020403040E1F700C000008D2F0E945F
:102A7000D91383CF8C2F86958695837069F081302A
:102A800009F07BCF8D2F9C2F9370111102C090E025
:102A900080E00E94F92B71CF8D2F9C2F9370111124
:102AA00002C090E080E00E94E32B67CF8D2F1123BE
:102AB00029F00E942F230E9402245FCF0E948923C5
:102AC000FACF8C2F837009F041C0111156CF4D2FD2
:102AD000429546954770440F440F0D2F0F7010E03C
:102AE00030E020E0042E04C0000F111F221F331F0E
:102AF0000A94D2F760E070E0CB01D4FF0FC06FE022
:102B000070E080E090E004C0660F771F881F991F77
:102B10004A95D2F76095709580959095C695C69523
:102B2000C370602B712B822B932BC23049F058F469
:102B3000C13019F00E94341720CF0E9422171DCFF8
:102B40000E9446171ACF0E94201717CF869511238F
:102B500011F08C2F8170882309F40FCF4D2F4295EF
:102B600046954770440F440F0D2F0F7010E030E072
:102B700020E0042E04C0000F111F221F331F0A94EF
:102B8000D2F760E070E0CB01D4FF0FC06FE070E0DF
:102B900080E090E004C0660F771F881F991F4A9558
:102BA000D2F76095709580959095C695C695C3703F
:102BB000602B712B822B932BC23049F058F4C1301B
:102BC00019F00E94F917D9CE0E94E717D6CE0E94BD
:102BD0000B18D3CE0E945C17D0CECF70112329F0F2
:102BE0008C2F0E9482178D2F12CF8D2F0E9455148B
:102BF0008C2F0E94A317C1CED23F89F160F4D03F41
:102C0000C9F0D13F29F1112309F442C001119DCE31
:102C10008C2F8F7121C0D33F39F1D43FA1F71123FD
:102C200069F1CF718C2F0E94821763E08C2F0E9474
:102C3000E41CA3CE112341F0053008F09ECE8C2F6A
:102C40008F710E94C61799CE063008F096CEF7CF46
:102C50008C2F8F71112369F20E9482178ECE8C2FD8
:102C60008F711123C9F3C5CF112329F08C2F8F71D8
:102C70000E946D1782CE0E9468177FCE81E00E946D
:102C8000FF1C023008F479CE82E00E94FF1C75CE52
:102C9000002359F0D93309F0E9CE8FEF97EEE3E046
:102CA00081509040E040E1F7DFCE8C2F8F71A1CFB3
:102CB0004C2F4F706D2FC6010E94E31E0E94E21838
:102CC0005CCE4C2F4F706D2FC6010E94E61E55CE74
:102CD000DF91CF911F910F91FF90EF90DF90CF90F8
:102CE000BF9008950F931F93CF93DF93EC016881FA
:102CF00079818A810E94BE188C010E941D180E9451
:102D00001F17B801CE01DF91CF911F910F910C9445
:102D10005C14CF93DF93EC018B819C81892B29F08C
:102D20008881998189238F3F59F4DF91CF9108954C
:102D3000CE010E947216CE01DF91CF910C94A211A8
:102D4000CE010E94C7118111F3CF0E94361C882347
:102D500061F38A81882349F382E0DF91CF910C945B
:102D6000FF1C90E080E00E94E32B90E080E00E9456
:102D7000F92B0E947E1C0E948E1C0E94AE1C0E9499
:102D800029250C9402240E94261C0C94B1160E9442
:102D90006E1C0C94C316E92FE295EF70E250EE30F2
:102DA00070F4F0E0E250F94C0C947536803F19F065
:102DB00020F4883E20F481E00895843FE1F380E030
:102DC0000895883EC0F3813FD1F7F5CF93FB882764
:102DD00080F90895FC01808191810E94B4180C94BF
:102DE000CB16CF93DF9300D000D00F92CDB7DEB7D4
:102DF0000F900F900F900F900F90DF91CF9108954B
:102E0000CF93DF9300D000D000D0CDB7DEB72696A9
:102E10000FB6F894DEBF0FBECDBFDF91CF910895FE
:102E200008950C9410170E9411176093F901709384
:102E3000FA018093FB019093FC010C94B116089564
:102E40000C9413170F931F930091F9011091FA013D
:102E50002091FB013091FC01602B712B822B932B75
:102E60001F910F910C9413170F931F930091F90169
:102E70001091FA012091FB013091FC016023712334
:102E8000822393231F910F910C9413170F931F9379
:102E90000091F9011091FA012091FB013091FC01A0
:102EA00060277127822793271F910F910C94131786
:102EB0000C9410170C9458170E945A176093F50140
:102EC0007093F6018093F7019093F8010C94B1167A
:102ED00060E070E0CB010C945C170F931F9341E00E
:102EE00050E060E070E08A019B0104C0000F111FF8
:102EF000221F331F8A95D2F7C901B8011F910F9184
:102F00000C945C170F931F9341E050E060E070E079
:102F100004C0440F551F661F771F8A95D2F7809112
:102F2000F5019091F601A091F701B091F8018A01A5
:102F30009B01082B192B2A2B3B2BC901B8011F9190
:102F40000F910C945C170F931F9341E050E060E0E9
:102F500070E004C0440F551F661F771F8A95D2F793
:102F6000CB01BA0160957095809590950091F5011F
:102F70001091F6012091F7013091F801602371233F
:102F8000822393231F910F910C945C170F931F932F
:102F900041E050E060E070E004C0440F551F661F40
:102FA000771F8A95D2F78091F5019091F601A09153
:102FB000F701B091F8018A019B01082719272A27F8
:102FC0003B27C901B8011F910F910C945C170F9317
:102FD0001F930091F5011091F6012091F7013091B6
:102FE000F801602B712B822B932B1F910F910C9466
:102FF0005C170F931F930091F5011091F60120913A
:10300000F7013091F80160237123822393231F91EC
:103010000F910C945C170F931F930091F501109181
:10302000F6012091F7013091F8016027712782277E
:1030300093271F910F910C945C1708952FE0929F96
:10304000800D1124982F977041E001C0440F9A958C
:10305000EAF786958695869595E0899FF00111247B
:10306000ED53FE4F90E080E070E05191DF01119749
:103070009B01082E02C0369527950A94E2F721702D
:1030800021952527242325272C930196853091050A
:1030900061F708952FE0929F800D1124982F97706B
:1030A00086958695869525E0829FF0011124ED5343
:1030B000FE4F50E040E080E0219130E0092E02C058
:1030C000369527950A94E2F721703327042E01C024
:1030D000220F0A94EAF7822B4F5F5F4F453051056C
:1030E00059F70895BF92CF92DF92EF92FF920F931C
:1030F0001F93CF93DF938C01C090F501D090F60120
:10310000E090F701F090F8018091F9019091FA01B7
:10311000A091FB01B091FC01C82AD92AEA2AFB2A16
:10312000CFE1D0E0BC2ED701C6010C2E04C0B6956D
:10313000A795979587950A94D2F780FD0EC02197A1
:1031400088F7B12C8B2DDF91CF911F910F91FF90BC
:10315000EF90DF90CF90BF900895B8018C2F0E9420
:103160001620019761F3EECFCF93DF93EC010E941D
:103170007218BE01DF91CF910C9416201F93CF934C
:10318000DF93EB019091C201992331F0CB01DF91E4
:10319000CF911F910C94B418882379F0CB010E9431
:1031A0007218182F682FCE010E941E18BE01812FA1
:1031B000DF91CF911F910C941620CB010E944A18E9
:1031C000182FF4CFEF92FF920F931F93CF93DF93BB
:1031D0008C01892B81F0F12CEE24E394E8012196F7
:1031E000F8018491843770F4843008F05FC0813036
:1031F000B1F08230A1F1DF91CF911F910F91FF903B
:10320000EF900895853709F44CC008F43DC09CE761
:10321000980F903780F78F770E94D91349C00E5FBF
:103220001F4FFE01849190E2980F983060F48770F0
:10323000FE2D01C0FF0F8A95EAF78F2F0E94811C97
:103240000E94AE1C02C00E9447138F2D815030F2A5
:10325000EFE9FFE03197F1F700C00000F7CF0E5F14
:103260001F4FFE01849190E2980F983050F48770C0
:10327000FE2D01C0FF0F8A95EAF78F2F0E94871C51
:10328000DFCF0E94D913E1CF0E5F1F4FFE01C49123
:10329000C150D8F28FE99FE00197F1F700C000001C
:1032A000F7CF0E5F1F4FFE01F490CFCF0E94471360
:1032B0008E01CBCF1F93CF93DF93C091FD0116E01A
:1032C0008091FE018C1304C0DF91CF911F9108956E
:1032D000D0E01C9FF0011D9FF00D1124E150FE4F26
:1032E0004081518162817381848195810E940017A0
:1032F0002196C770E5CF40912F0250913002609126
:1033000031027091320280913302909134020C9418
:1033100000171F93CF93DF9380913402807FA9F42D
:1033200080913102882389F08091FD01C091FE01D6
:1033300060912F0270913002A0913202B09133025D
:10334000D62FD72316E0C81304C0DF91CF911F9169
:10335000089590E0109711F0DF3F19F401968770FF
:10336000F2CF189F9001199F300D1124F901E150FF
:10337000FE4F41814713F2CF40814613EFCF428188
:103380004111ECCF438154814A1B5B0B483C5105F2
:1033900028F7809134028F70806180933402F901A4
:1033A000EC5FFD4F80818F70806180838FE292E0BF
:1033B0000E948916DF91CF911F910C945A19AF92F8
:1033C000BF92CF92DF92EF92FF920F931F93CF9312
:1033D000DF93CDB7DEB761970FB6F894DEBF0FBEAF
:1033E000CDBF8C0185E0F801DE011D9601900D92A4
:1033F0008A95E1F7F801E2808FE2C82E82E0D82EAC
:1034000060913202709133026115710509F45AC15D
:1034100090912F0220913002892F82238F3F09F44F
:1034200051C140815181A380B480F0903102F501F7
:10343000E61BF70BFF2009F4F6C080913402382F09
:10344000307FE83CF10508F0AFC0311179C0FE2CA7
:10345000251323C0941321C0E1101FC08F70806119
:10346000809334020E947B19C6010E9489168091C4
:103470003402F80185838F2D61960FB6F894DEBF74
:103480000FBECDBFDF91CF911F910F91FF90EF90B5
:10349000DF90CF90BF90AF900895AB2829F0842F94
:1034A00085238F3F09F027C180E0F82FF170DF2ED0
:1034B00080FF3CC08091FD012091FE0136E0821327
:1034C00015C04D875E878D859E850E94B418292F73
:1034D00022952F702230F0F0243018F59F70F1F013
:1034E000F8019581907FD1F4D12C1EC090E0389FD7
:1034F000F001399FF00D1124E150FE4F61816513F9
:1035000006C06081641303C06281E6120FC0019699
:103510008770D5CF9F7011F0882331F3805E88309B
:1035200018F3C8010E948916FD2CA5CFEE2009F4DE
:10353000A2CF80913402816080933402F12C9BCF22
:10354000251306C0941304C0F801EE2009F487C0C7
:10355000C8010E94EA16882319F1EE2009F1809132
:103560003402803270F020912F023091300238877F
:103570002F831986BB86AA868C87CE0107960E9468
:10358000891686E0F801AFE2B2E001900D928A95CB
:10359000E1F70E9489190E947B19FF24F3946BCFF5
:1035A000C8010E948916F9CF311113C07A2DB98A4A
:1035B000A88A6E2D89890E94F1168FE292E00E94FE
:1035C000891686E0F60111928A95E9F70E947B1927
:1035D000B5CF25130FC094130DC0E1100BC0F80137
:1035E0008583C8010E94891686E0F60111928A95AA
:1035F000E9F741CFC8010E94EA16882389F2EE203C
:1036000079F280913402803208F4BBCF20912F02EE
:10361000309130023A8329831B82BD82AC828E8333
:10362000CE010196ACCFE83CF10508F03EC0FE2C7F
:10363000EE2009F4B5CF25132AC0941328C0809139
:10364000340280FD1BC0982F907FC1F0F801858364
:10365000903F31F0982F907F905F8F70892B8583FA
:10366000C8010E94891686E0F801AFE2B2E001903D
:103670000D928A95E1F70E947B19FDCE86E0F80154
:10368000AFE2B2E001900D928A95E1F7F4CEC80165
:103690000E94EA16811175CF809134028160809377
:1036A0003402C8010E948916E6CE7A2DB98AA88A0A
:1036B0006E2D89890E94F11686E0F60111928A9595
:1036C000E9F7D9CFEE2009F46BCFC8010E94EA16C2
:1036D000F82E882309F464CF86E0F801AFE2B2E067
:1036E00001900D928A95E1F78FE292E00E944213D9
:1036F0000E948919C0CF81E08E25D7CE1F93CF932A
:10370000DF93CDB7DEB72C970FB6F894DEBF0FBEB0
:10371000CDBF4F83588769877A878B879C87CE0177
:1037200007960E94DF19882369F08A859B85892B7B
:1037300039F04F815885842F85238F3F09F071C060
:1037400016E05FC086E0FE013796DE01119601901B
:103750000D928A95E1F78A859B85892B89F38F8164
:10376000988589238F3F61F32091FE0130E0C901E4
:103770000196877099274091FD014817190671F449
:103780000E94C7161092FE011092FD0186E0EFE242
:10379000F2E0DF011D928A95E9F7D2CF96E0929F81
:1037A000D001939FB00D1124A150BE4FFE01319660
:1037B00001900D929A95E1F78093FE010E945A19AB
:1037C000BFCF819FC001112481509E4F0E94DF19FD
:1037D0008823E9F0E091FD011E9FF0011124E150E2
:1037E000FE4F4081518162817381848195810E9465
:1037F00000178091FD0190E00196877099278093D2
:10380000FD018091FD019091FE018913DACF2C9684
:103810000FB6F894DEBF0FBECDBFDF91CF911F91E1
:10382000089569857A858B859C850E94001788CFCD
:10383000682F80910001909101010C94572C682F02
:1038400080910001909101010C94592C809100010C
:10385000909101010C945B2C8091350285958595A2
:10386000859508958091350287700895909135026D
:10387000977081E009F480E008959091D00292FB66
:10388000222720F9281751F080FB92F99093D0025B
:103890008091CF029091D0020C94421D08958091A6
:1038A000D00282FB882780F991E089270C943D1C87
:1038B00081E00C943D1C80E00C943D1C8091410201
:1038C000089590914102892B80934102089580953B
:1038D00090914102982390934102089510924102E1
:1038E000089590914002892B80934002089580951D
:1038F00090914002982390934002089510924002C4
:10390000089590913F02892B80933F0208958095FE
:1039100090913F02982390933F02089510923F02A6
:10392000089580913602089508950C94941C909106
:10393000D00292FD08C090913602981721F0809332
:1039400036020C94951C089580913602882329F044
:103950001092360280E00C94951C0895E0910001CD
:10396000F0910101809141028083E0910001F0918A
:103970000101808190914002892B8083E0910001B8
:10398000F0910101808190913F02892B8083909179
:103990003602992381F0E0910001F09101018081CC
:1039A000892B808380910001909101010E940F2C4E
:1039B00081110E94A41C80910001909101010C943E
:1039C000CA2B08950C94E11C9091D00292FD10C076
:1039D00098E0899F90011124622B609335020E9428
:1039E0008217809135028595859585950C94E21C0A
:1039F0000C9482171092350280E00C94E21C909196
:103A000035028095892380933502282F277039F459
:103A1000282F082E000C330B9217130621F49091D7
:103A2000D00292FF07C08595859585950E94A317C2
:103A30000C94FA1C08956FEF7FEF90E080E00C94F7
:103A4000D63690E080E00E94B23621E0893E9E4F5B
:103A500009F020E0822F089582E090E00C94AA36CD
:103A600083E090E00C94AA36CF9384E090E00E942B
:103A7000AA36C82F82E290E00E94AA36982F8C2F97
:103A8000CF910895CF93C92F682F84E090E00E94D2
:103A9000B8366C2F82E290E0CF910C94B836AB012F
:103AA000BC018FE090E00C94CA36AB01BC0183E10D
:103AB00090E00C94CA3660E070E0CB010C94551D88
:103AC00060E070E0CB010E944F1D0C945B1D69EE1D
:103AD0007EEF90E080E00E94D63660E082E090E0E9
:103AE0000E94B83660E083E090E00E94B836109201
:103AF000F9011092FA011092FB011092FC0160E0B2
:103B000084E090E00E94B83660E082E290E00E949B
:103B1000B83660E085E090E00E94B83660E086E06C
:103B200090E00E94B8366FEF87E090E00E94B836D0
:103B300040E050E0BA0188E090E00E94CA3660E0C0
:103B40008DE090E00E94B83640E050E0BA0188E194
:103B500090E00E94CA3660E087E190E00E94B836AB
:103B600040E050E0BA018CE190E00E94CA3670E07B
:103B700060E080E290E00E94D63640E050E0BA017A
:103B800088E190E00E94CA360C94601D0C94671D79
:103B9000682F8EE090E00C94B8360E94F22C60936F
:103BA0005502709356028093570290935802609387
:103BB00051027093520280935302909354020895DD
:103BC0000E94F22C60935502709356028093570224
:103BD0009093580260934D0270934E0280934F026F
:103BE00090935002089585B7806885BF85B7806837
:103BF00085BF0895089508950C94FA1D08950C94B6
:103C0000FE1D0E94F31D84EF90E20E94712D0E9420
:103C1000FB1D0C94FC1D81E008950C940B1E08956F
:103C200008950E940F1E0C94101E0E94DD2C0E940D
:103C3000F42180E00E94A1260E9403260C94FF1D1F
:103C40007F928F929F92AF92BF92CF92DF92EF922C
:103C5000FF920F931F93CF93DF93CDB7DEB72A97D1
:103C60000FB6F894DEBF0FBECDBF0E941C22A82E57
:103C700081110E94CD1D53E4852E52E0952E10E057
:103C800000E0702E802F0E9438216C01F401E19039
:103C9000F1904F01E816F90609F46AC080915902C3
:103CA00081FD0E944121C7018C259D25B12CEE2468
:103CB000E394F12C9C012E213F21232B09F452C0C7
:103CC0000E940D1E8823A9F0BE827F82CE20DF20B5
:103CD00081E0CD2809F480E088870E94E62C81608D
:103CE000782F9A8789874E815F8168858A850E94AF
:103CF0000413000F111FF801ED5BFD4F80819181CE
:103D0000E826F926F182E0820E941426182F8111FC
:103D10000E94E01D0E947428A11001C011110E9490
:103D20003E270E941D240E94BE2B909142028917BB
:103D3000B1F10E94BE2B809342022A960FB6F894EE
:103D4000DEBF0FBECDBFDF91CF911F910F91FF90CE
:103D5000EF90DF90CF90BF90AF909F908F907F902B
:103D60000C94FC12B394EE0CFF1CFFE0BF12A2CF28
:103D70000F5F1F4F0530110509F083CF8FEF898347
:103D80008A831B820E94E62C8160782F9D838C831E
:103D900049815A816B818D810E940413B5CF2A9687
:103DA0000FB6F894DEBF0FBECDBFDF91CF911F914C
:103DB0000F91FF90EF90DF90CF90BF90AF909F90CA
:103DC0008F907F90089590E080E008950895972F58
:103DD00070E02FE0929F600D711D1124FB019BE4A8
:103DE000899FE00DF11D1124EE0FFF1FE152F34EEC
:103DF000859194910895FC01EE0FFF1FE554F14E5B
:103E0000859194910895CF93DF930E941A20EC013D
:103E1000811520E5920708F042C0811530E4930730
:103E200008F0BDC0883E910528F5803E910508F058
:103E30009DC0883A910588F4853A910508F08FC0B5
:103E40008130910509F492C0009709F48FC004975E
:103E500008F08CC0D0E0C0E089C08F3B910508F429
:103E600089C0805C9109C03CD105A0F30E94FB1E73
:103E7000EC017CC08115904250F4C11581E0D80757
:103E800008F074C0CD3ED10528F3D0656FC0C115D0
:103E900090E3D90708F079C0CE019F70E7CF811574
:103EA00025E5920758F5811534E5930708F0A6C07B
:103EB000811542E5940750F4C11581E5D80708F44F
:103EC00071C0DC2FCC27C16FD06A50C0982F969557
:103ED00096959E0123703327C115D34508F07FC006
:103EE000C1E0D0E002C0CC0FDD1F2A95E2F720E24E
:103EF000929FC0011124C82BD92B6FC0C11589E531
:103F0000D807A8F4C11598E5D90708F07CC0C115F9
:103F100026E5D20708F09ECF8C2F0E94B120C82F33
:103F2000D0E0DC2FCC27CC27DF71D0621FC0C115B9
:103F30003AE5D30708F46CC0CE0190568115904243
:103F400008F088CF8D2F8F710E94B12090E0982FBC
:103F5000882788279F719C012C2BE901E6CFC55A41
:103F6000D0E0C558DE4FC881D0E0D064CE01DF91EB
:103F7000CF910895C85AD0E0CC0FDD1FC35BDE4F50
:103F80000990D881C02DD464F1CFCE019927D3FFF9
:103F900003C0EC01D86CEACFEC01D06CE7CFDF7046
:103FA000D06AE4CFCE01E4E096958795EA95E1F7F3
:103FB00083702C2F26952695237090E2299F9001DF
:103FC0001124382B8C2F8370C1E0D0E002C0CC0FBD
:103FD000DD1F8A95E2F7C22BD32BDC68C7CFC1E087
:103FE000D0E002C0CC0FDD1F2A95E2F730E2939FAC
:103FF000C0011124C82BD92BDA68B8CFD82FCC2711
:10400000C46FD06AB3CFDC2FCC27C06FD06AAECFDD
:104010008C2F8F700E94B12034E0D695C7953A95C9
:10402000E1F7CF709C2FEC01D069A0CF0E94E71E72
:104030000C94031F82389105B1F1B0F481339105DE
:1040400009F475C048F48932910509F469C08A32CF
:10405000910509F473C008958533910509F459C099
:104060008933910501F10895833E9105A9F138F452
:10407000803E9105F9F0823E910549F10895863E12
:104080009105A9F1873E9105C9F1843E910519F585
:104090002091D00221FF1FC08091CF0284FD14C067
:1040A00087EE90E008952091CF022370A1F080EE7A
:1040B00090E008952091CF0220FD47C03091D002BA
:1040C00030FF09C024FF44C090E080E004C020918C
:1040D000CF0222FDF7CF08952091CF0222FD3BC0F1
:1040E0003091D00230FDE3CF24FFF5CFEDCF20910A
:1040F000CF0223FFF0CF24FDE7CFD2CF2091CF0214
:1041000023FD2CC03091D00231FFEECF84EE90E041
:1041100008952091CF0225FFDECF89E290E0089537
:104120002091CF0225FFD7CF85E390E0089520911D
:10413000CF0226FFD0CF8AE290E008952091CF02EF
:1041400026FFC9CF81E390E0089589E390E00895C8
:1041500083EE90E0089582EE90E0089586EE90E080
:1041600008959091CF0292FF06C0282F2871283021
:10417000F9F4877F846093FF06C0282F28712831C7
:10418000F1F4877E84612091D00220FF06C0382F91
:1041900038713830D9F4877F816021FF06C0282F1D
:1041A00028712831D1F4877E816194FD877E08953E
:1041B000282F24712430F9F68B7F8860DCCF282FDC
:1041C0002471243101F78B7E8861DDCF382F317166
:1041D000313019F78E7F8860E0CF282F217121318F
:1041E00021F78E7E8861E1CF80E008950C941B1D3D
:1041F0000E941C228FE39CE90197F1F700C00000A8
:104200000E941C2280E00E94382180FF04C00E948E
:10421000F6200C944D2D08950C94F8200E94211D39
:10422000811102C00E94C61D0E942C1D809359025C
:104230000E94341D9093D0028093CF020E940C21E3
:104240000E94301D682F70E090E080E00E942017EF
:104250006091F5017091F6018091F7019091F8015C
:104260000C945A1708950C94322108950C9435211A
:10427000E82FF0E0EE0FFF1FE552FD4F80819181A6
:104280000895089580EA8A95F1F7089500C0089589
:104290000C944221F894E82FE295EF70F0E031A100
:1042A000282F2F7081E090E001C0880F2A95EAF74F
:1042B000982F9095932391A392A1892B82A3789410
:1042C0000895CF93DF93CDE8D1E089918F3F11F02E
:1042D0000E944A2181E0C239D807B9F7CEE7D1E080
:1042E00089918F3F11F00E944A2181E0CD38D80793
:1042F000B9F7DF91CF910895AF92BF92CF92DF923D
:10430000EF92FF920F931F93CF93DF938C01B62E02
:10431000C62FD0E0CE0183579E4F7C01FC01208147
:104320002F3F09F453C0F894E22FE295EF70F0E0CC
:1043300031A12F7081E090E001C0880F2A95EAF743
:10434000932F982B91A392A18095892382A378948F
:104350000E944621EEE7F1E030E020E0D12CC12CB4
:1043600041E050E081918F3FE1F1A82FA295AF701D
:10437000B0E090966C9170E08F7002C07595679573
:104380008A95E2F760FD2DC0CA01022E02C0880F97
:10439000991F0A94E2F7C82AD92A2F5F3F4F2F307E
:1043A000310501F7F70180818F3F11F00E944A210A
:1043B00061E0C114D10409F460E08B2D0E94482112
:1043C000CC0FDD1FC00FD11FD982C882DF91CF91E2
:1043D0001F910F91FF90EF90DF90CF90BF90AF9023
:1043E000089590E080E0D7CF0E946121A1EDB2E076
:1043F00011961C921E92EBEDF2E011821082139640
:104400001C921E9212971382128215961C921E9273
:1044100014971582148217961C921E921697178273
:10442000168219961C921E9218971186108685E0A6
:104430000E9467220C94AD11FF920F931F93CF93AC
:10444000DF93CDB7DEB72A970FB6F894DEBF0FBE65
:10445000CDBF8E010F5F1F4F8AE0F80111928A9540
:10446000E9F7F12C6F2DC8010E947C21F394F5E04F
:10447000FF12F8CF4AE050E0B80181ED92E00E94CF
:104480009D36FF24F394009709F4F12C892B41F019
:104490008AE0F801A1EDB2E001900D928A95E1F772
:1044A0002F2D45E06BED72E081ED92E00E946822D5
:1044B0000E94B3118F2D2A960FB6F894DEBF0FBE5F
:1044C000CDBFDF91CF911F910F91FF900895089577
:1044D000FF920F931F93CF93DF93F82E092F162F80
:1044E000D72FC42F222349F081E080935C020E94E1
:1044F000E62C90935B0280935A0280915C028823A1
:10450000A1F080915A0290915B020E94FE2C0597C7
:1045100060F0EF2DF02FA12FBD2F90E080E0D0E0D4
:104520008C179D0744F010925C02DF91CF911F9190
:104530000F91FF900895219131912D933D93019614
:10454000EFCF0E94622C0E94CF2E0E94E82E0E9484
:10455000FA2E0E94111EFBCF8091630280FF12C0D1
:104560006091070185E0689FB001112475956795FA
:104570007595679560387105A8F561157105A1F10C
:10458000862F089581FF09C06091070185E0689F2B
:10459000B001112475956795EDCF6091070182FDFB
:1045A0000AC0809162028823D1F090910601609147
:1045B0000701891728F085E0689FB0011124DACF40
:1045C000869FB001112485E0869F9001879F300D62
:1045D0001124692F70E0C9010E944236CBCF65E0FB
:1045E00070E0CECF8FE7089581E008958091630257
:1045F00080FF0CC06091030170E07595679575951B
:1046000067956115710549F1862F089581FF06C0F0
:104610006091030170E075956795F3CF6091030198
:1046200082FD0BC0909161029923A1F0609102017B
:1046300080910301961738F0682F70E0603871059B
:1046400000F38FE70895899FC001112470E00E9454
:104650004236F4CF61E070E0D7CF81E008958D3E1F
:1046600031F40E94AC2281958093670208958E3EBA
:1046700019F40E94AC22F8CF8F3E31F40E94AC2294
:104680008195809366020895803F19F40E94AC22C0
:10469000F8CF893F29F40E94F6228093680208959A
:1046A0008A3F21F40E94F6228195F7CF8B3F31F4A7
:1046B0000E94F62281958093690208958C3F19F437
:1046C0000E94F622F8CF9FE0980F983070F4815F37
:1046D000990B21E030E001C0220F8A95EAF7809122
:1046E0006502822B8093650208958D3F31F480919D
:1046F000630281608093630208958E3F21F480916C
:1047000063028260F7CF8F3FB9F7809163028460C4
:10471000F1CF409166028D3E59F48091670287FF88
:104720000DC01092670241110BC01092620208C0C6
:104730008E3E81F48091670218169CF3442381F029
:104740008091680290916902892B09F05AC01092F9
:10475000610208958F3E49F447FFF0CF1092660240
:10476000809167028111ECCFE0CF803F19F41416DD
:10477000ACF3E4CF90916802893F29F41916F4F65E
:1047800010926802DBCF8A3F19F497FFD7CFF8CF9A
:10479000909169028B3F29F497FFD0CF1092690264
:1047A000CDCF8C3F19F41916CCF3C8CF9FE0980FEA
:1047B000983090F4815F990B21E030E0B90102C09C
:1047C000660F771F8A95E2F7CB018095909165027D
:1047D000892380936502B2CF8D3F31F480916302CB
:1047E0008E7F80936302AACF8E3F21F48091630273
:1047F0008D7FF7CF8F3F09F0A1CF809163028B7F30
:10480000F0CF08950E94E62C9C0190916602809161
:104810006702982B21F03093600220935F02909101
:10482000680280916902982B21F030935E022093F8
:104830005D0284E692E00C94D52BEF92FF920F93E9
:104840001F93CF93DF9300D000D000D0CDB7DEB759
:1048500086E0E4E6F2E0DE01119601900D928A9581
:10486000E1F7E0906602F090670200916802109113
:10487000690210926602109267021092680210920A
:1048800069028E2D8F2991F080915F0290916002D4
:104890000E94FE2CAC0190916202992309F43FC062
:1048A000809108018417150608F447C0802F812BDA
:1048B00091F080915D0290915E020E94FE2CAC010D
:1048C00090916102992309F477C0809104018417C3
:1048D000150608F47FC08091660290916702892BCB
:1048E00090916802892B90916902892B11F00E94A6
:1048F000022486E0FE013196A4E6B2E001900D921A
:104900008A95E1F726960FB6F894DEBF0FBECDBFAD
:10491000DF91CF911F910F91FF90EF90089520911B
:1049200009018AE0289F900111242417350708F017
:10493000BDCF9F5F9093620202C09F3FD1F7EE20F0
:1049400059F00E94AC229FEF1E140CF491E0899F55
:10495000802D112480936602FF2059F00E94AC2222
:104960009FEF1F140CF491E0899F802D11248093F8
:10497000670230916602332309F498CF20916702D1
:10498000222309F493CF45EB3403C001112499236A
:1049900059F09093660245EB2403900111243323D0
:1049A00039F03093670282CF81E080936602F3CFC3
:1049B00081E0809367027ACF209105018AE0289FE9
:1049C000900111242417350708F085CF9F5F90933D
:1049D000610202C09F3FD1F7002359F00E94F622E6
:1049E0009FEF10160CF491E0899F802D1124809385
:1049F0006802112359F00E94F6229FEF11160CF461
:104A000091E0899F802D1124809369023091680282
:104A1000332309F460CF20916902222309F45BCF8C
:104A200045EB3403C0011124992359F09093680297
:104A300045EB240390011124332339F030936902AC
:104A40004ACF81E080936802F3CF81E080936902CE
:104A500042CF86E0E4E6F2E0DF011D928A95E9F7B5
:104A60001092620210926102109263020895809186
:104A70006C0208959C013056211540E2340748F03D
:104A8000305E211540E1340720F0315C21153F41B3
:104A900078F499279C01245031092432310578F0AB
:104AA0002752310981E02E30310550F080E0089521
:104AB0008F3F910579F370F390E080E0EBCF81E0D8
:104AC00008950C943A25CF92DF92EF92FF92CF9304
:104AD000DF930E946125882309F448C080916A020F
:104AE00090916B020097E1F10E94FE2C9C0150E036
:104AF00040E060E67AEE80E090E00E945636CA011F
:104B0000B90125E030E040E050E00E945636609167
:104B10006C022F3F310519F010F02FEF30E0C62F57
:104B2000D0E02C1B3D0BB90190E080E00E94CE3418
:104B300027EA39E747E45DE30E94C1350E948334E8
:104B40006B017C01BE01DD0F880B990B0E94D034F4
:104B5000A70196010E9417340E949F3460936C0253
:104B60000E94E62C90936B0280936A02DF91CF91B2
:104B7000FF90EF90DF90CF900895CF92DF92EF9269
:104B8000FF92CF93DF9380916A0290916B020E9413
:104B9000FE2C893E934060F160916C02C62FD0E0FC
:104BA000662777276C1B7D0B072E000C880B990B53
:104BB0000E94D03427EA39E747E45DE30E94C1351B
:104BC0006B017C01BE01DD0F880B990B0E94D03474
:104BD0009B01AC01C701B6010E9417340E949F34AB
:104BE00060936C020E94E62C90936B0280936A02A1
:104BF000DF91CF91FF90EF90DF90CF90089581E00B
:104C000008950C94FF2553985B9A52985A9A89B14B
:104C100083FB882780F94A9905C090E0892B80930F
:104C20006F02089592E0FACFE0916F02EE0FEE0F5F
:104C3000E0936F0249B143FB882780F949B142FBF9
:104C4000222720F942FF02C022E030E0822BE82B2D
:104C5000E0936F02EF70F0E0EE56FE4F808190918E
:104C60006E02890F80936E0220E0843054F08091B0
:104C70006D028F5F80936D0260E080E00E940126EC
:104C800021E080916E028D3F54F480916D0281503D
:104C900080936D0261E080E00E94012621E0809116
:104CA0006E02082E000C990B64E070E00E94423600
:104CB00080936E02822F0895CF92DF92EF92FF923F
:104CC0000F931F93CF93DF936C017B0164E670E039
:104CD00088E70E94B82AEC0197FD12C010E000E0BE
:104CE000F601E00FF11F849164E670E00E94322B20
:104CF000EC01892B29F40F5F1F4F0E151F0581F75B
:104D00000E94B52BCE01DF91CF911F910F91FF90A3
:104D1000EF90DF90CF900895E5EEF2E080E094E030
:104D2000DF019C011D9221503040E1F7F093EA062B
:104D3000E093E9068FEF9FEF9093B6028093B50260
:104D400008950E94B0108093B10280FD0FC080E8EA
:104D50008093B0020E94B22A6DE070E082ED9EE185
:104D60000E945C26892B21F080E0089580E4F0CF3A
:104D70008091B10263E070E081FD26C08FEC9EE17E
:104D80000E945C26892B81F76DE070E08FEB9EE13D
:104D90000E945C26892B41F70E94F22C60527C46CF
:104DA0008B4F9F4F6093E5067093E6068093E7066E
:104DB0009093E8060E948C2681E08093B402809351
:104DC000B3021092B20208958CEC9EE1D9CF2091EB
:104DD000B00236E0839FC0011124629F800D911DB7
:104DE0001124811524E0920714F090E080E08B51AB
:104DF0009D4F9093EA068093E9060895CF93DF9341
:104E00002091E9063091EA06255E3240A901460F5D
:104E1000571F4130544020F060E074E0621B730B78
:104E20004091B5025091B602FC01C901620F731F97
:104E3000C1E0D0E08617970738F05093B602409350
:104E4000B502DF91CF9108952491DC01AB51BD4FA4
:104E50003C91321781F02C939C01A6E03695279562
:104E6000AA95E1F7DE0102C0AA0FBB1F2A95E2F75F
:104E70009D014A2B532B01963196DCCF8091B402D1
:104E8000811103C08091B30208950E94F22C6052F8
:104E90007C468B4F9F4F6093E5067093E6068093A8
:104EA000E7069093E8068091B3028111EBCF62E0B0
:104EB00070E08DEB9EE10E945C26892B19F781E062
:104EC0008093B302DFCF2F923F925F926F927F92D7
:104ED0008F929F92AF92BF92CF92DF92EF92FF920A
:104EE0000F931F93CF93DF938091B402882369F0CF
:104EF0002091B5023091B6022115310531F0809133
:104F0000B20261E070E0882399F0DF91CF911F91A8
:104F10000F91FF90EF90DF90CF90BF90AF909F9058
:104F20008F907F906F905F903F902F9008958F5F4C
:104F3000082F10E01B01082E02C0220C331C0A941B
:104F4000E2F7A90142215321452B89F39091B10247
:104F500090FD43C08295880F880F807480930C0168
:104F600098013695279520930F01815C80930D0160
:104F70001092100124E630E047E050E06AE071E072
:104F800088E70E94612B892B09F0BFCFA80126E09A
:104F9000440F551F2A95E1F78091B10280FD2BC087
:104FA0004B515D4F04E610E020E430E060E488E718
:104FB0000E94882B892B09F0A8CF0E943E27E1018F
:104FC000C095D0958091B5029091B602C823D9239F
:104FD000D093B602C093B50298CF880F880F880F80
:104FE00080930C0110920F01895F80930D0187E07F
:104FF00080931001BFCFE0E7F2E080E4DF011D9273
:105000008A95E9F7AAEAB1E002EA11E082EBC82E3C
:1050100081E0D82E97E0592E772473948D91E80182
:1050200029918E01240F352F311D2B513D4FE82F33
:10503000F0E0E059FD4F90E080E0652C681A872C85
:10504000082E01C0880C0A94EAF77901A12CE70127
:10505000B9907E01B820662D6A196770962E062ECB
:10506000000C770BDB2D01C0DD0F9A94EAF77195E8
:10507000619571096770772701C0B6946A95EAF760
:10508000BD2A6081962E9B289082A39468E0A61288
:10509000DECF019631968830910579F6CA16DB0687
:1050A00009F0BCCF04E610E020E430E040E752E035
:1050B0007DCF8091B3029091B402911103C091E031
:1050C00089270895882369F062E070E08BEB9EE108
:1050D0000E945C26892B19F08091B30208951092EA
:1050E000B3028091B302EBCF0F931F938091B40270
:1050F000882319F160E080E00E94E7260E94B21048
:105100000E9463278091B3028823B9F00E94F22C99
:105110000091E5061091E6062091E7063091E80639
:10512000601B710B820B930B6F3F7F4F8F4F9F471D
:1051300020F41F910F910C9459281F910F910895FD
:105140000F931F93CF93DF93C42FD22FFC01828143
:105150008823C9F04093B9020E94E62C9093B802CC
:105160008093B70280E28C0F883008F050C0C7707F
:1051700081E001C0880FCA95EAF7DF91CF911F91B6
:105180000F910C944E141091B902141335C08091F4
:10519000B7029091B8020E94FE2C883C910560F500
:1051A000C0E2CD0F1D17B9F080E2810F883040F4C6
:1051B000177081E001C0880F1A95EAF70E94551414
:1051C000C83048F481E09D2F977001C0880F9A95F0
:1051D000EAF70E944E14802F0E944614C830B8F49B
:1051E000D77081E001C0880FDA95EAF7DF91CF919F
:1051F0001F910F910C94551480E28C0F883038F475
:10520000C77081E001C0880FCA95EAF7EFCFDF9140
:10521000CF911F910F9108950F939C01CB01243FD3
:105220004CE5340759F1A8F4293DFCE53F0701F1AD
:105230002A3D4CE53407D1F1283D3C4591F406E286
:1052400021EE41EE68ED7CE50E94A02880E00F9100
:105250000895263FFCE53F07E9F0B0F0273F3C45C5
:10526000F9F0FC018281882339F11092B902EFCF65
:1052700007E225EE45EE69ED7CE5E6CF06E221EE9C
:1052800040EE64EF7CE5E0CF07E225EE44EE65EF0B
:105290007CE5DACF06E221EE42EE66EF7CE5D4CF84
:1052A00007E225EE46EE67EF7CE5CECF08E221E08F
:1052B00045EE6AED7CE5C8CF81E0C9CFCF93DF939F
:1052C000EC01FB018281882309F420C1C430FDE593
:1052D000DF07C8F5CB3F9CE5D90730F49E0122508B
:1052E0003C452431310598F50E94341D9093D0023D
:1052F0008093CF02C031FCE5DF0709F4E0C008F07D
:1053000061C0C8309CE5D90709F4CBC088F5C4302A
:10531000FCE5DF0709F4B3C0E8F4C2309CE5D90727
:1053200009F4A7C08091CF028260C330DC4509F444
:10533000A3C08091CF029091D0020E94421D0E9492
:10534000C71680E004C0C236EDE5DE0769F2DF91E2
:10535000CF9108958091CF028061C630FCE5DF07D0
:1053600009F48AC008F48FC08091CF02806284C0A3
:105370008091CF028D7FCC309CE5D90709F47CC0A9
:1053800070F48091CF028C60CA30FCE5DF0709F42D
:1053900073C008F48AC08091CF028E7F6DC0809167
:1053A000CF02877FCE309CE5D90709F465C0809194
:1053B000CF028B7FCF30DC4508F45EC08091CF02F6
:1053C0008F7E5AC0CD3FFCE5DF0709F474C040F57D
:1053D000C4319CE5D90709F48AC058F4C231FCE510
:1053E000DF0709F474C008F46EC08091CF02837F98
:1053F00043C0CB3F9CE5D90709F449C008F04DC034
:10540000C531DC4509F095CF8091CF0282FB992709
:1054100090F921E0922790FB82F990FB83F92CC050
:10542000C1308DE5D80709F458C088F48091D002C6
:105430008360CF3FECE5DE0769F18091D0028D7F7C
:10544000C115DD4538F18091D0028C7F23C0C33077
:105450008DE5D80709F458C008F452C0C236DD45BE
:1054600009F067CF9091CF02892F8F7E94FF8061E2
:1054700003C08091CF0281608093CF025ACF809188
:10548000CF028460F9CF8091CF028860F5CF809100
:10549000D00281608093D0024CCF8091D002826094
:1054A000F9CF8091CF028064E7CF0E94C716809128
:1054B000CF028068E1CF8091D0028E7FEBCF8091C8
:1054C000CF028F7DD9CF8091CF028F7BD5CF0E9425
:1054D000C7168091CF028F77CFCF8091D002982FBF
:1054E000909591708E7F892B90FB81F9D3CF0E948C
:1054F000C7169091CF02892F97FB87F98058BCCFB0
:1055000081E00E94C81D15CF80E0FBCF81E01FCF56
:10551000CF93DF93EB0186319C4511F50E945E1C11
:105520009A81992399F08A7A91E009F490E0909316
:10553000BA02811109C089E20E94181C0E94AE1CA7
:1055400080E0DF91CF91089585E3F6CF8091BA0294
:10555000811104C089E20E941F1CF0CF85E3FBCFBC
:1055600081E0EFCF1092B9008CE08093B8000895ED
:105570009F92AF92BF92CF92DF92EF92FF920F93E2
:105580001F93CF93DF93B82EEB010E94E62C6C01A2
:10559000EE24E394F12CC431D10560F025E0E22E35
:1055A000F12CCF3FDC0731F0CE0164E170E00E94C6
:1055B0002E367B0184EAA82E94E8992E1092BC0026
:1055C000A092BC000E94E62C8C018091BC0087FF59
:1055D0000DC08091B900887F883039F18091B90081
:1055E000887F803111F10FEF1FEF09C00E94E62C78
:1055F000801B910B8E159F0540F30EEF1FEFCF3FE1
:10560000DC07E1F2C6010E94FE2C8C179D07B0F268
:10561000C801DF91CF911F910F91FF90EF90DF9024
:10562000CF90BF90AF909F900895B092BB009092A2
:10563000BC000E94E62C8C018091BC0087FF0AC050
:105640008091B900887F883111F0803461F610E0D4
:1056500000E0DECF0E94E62C801B910B8E159F058B
:1056600058F3CBCF0F931F93CF93DF93EB0180932E
:10567000BB0084E88093BC000E94E62C8C018091E2
:10568000BC0087FF11C02091B900287F81E090E025
:10569000283211F490E080E0919581959109DF9195
:1056A000CF911F910F910895CF3FDC0741F30E94E6
:1056B000E62C801B910B8C179D0708F38EEF9FEF54
:1056C000EECFCF92DF92EF92FF920F931F93CF9383
:1056D000DF936B018A017901B9010E94B82AE601C2
:1056E0000C0D1D1DC017D10761F424E92093BC00E7
:1056F000DF91CF911F910F91FF90EF90DF90CF90AE
:10570000089597FDF2CFB70189910E94322BEACF1D
:10571000CF92DF92EF92FF920F931F93CF93DF937D
:10572000C62F6A017901B8010E94B82A97FD0CC002
:10573000B8018C2F0E94322BE601EC0CFD1CCE151B
:10574000DF0511F097FF0CC024E92093BC00DF9126
:10575000CF911F910F91FF90EF90DF90CF90089520
:10576000B80189910E94322BEACF84E98093BC0072
:1057700008959093C0028093BF020895E091BF0204
:10578000F091C002309721F00190F081E02D099452
:1057900080E00895E091BF02F091C002309721F0BF
:1057A0000280F381E02D09940895E091BF02F09109
:1057B000C002309739F022E0DC012C930480F5819F
:1057C000E02D099408952091BD023091BE02281762
:1057D000390771F09093BE028093BD02E091BF0241
:1057E000F091C002309721F00680F781E02D0994F6
:1057F00008952091BB023091BC022817390771F03F
:105800009093BC028093BB02E091BF02F091C00272
:10581000309721F00084F185E02D099408959C01D2
:105820002E5F3F4FAC01485F5F4F80E02417350784
:1058300009F40895F90191919F019923B9F38F5FBC
:10584000F5CF662349F0FC01329608962191261780
:1058500029F0E817F907D1F780E0089581E008956D
:105860009C01FC0132969FEF80E04191461751F078
:105870009F3F19F4411101C0982F8F5F8630A9F71F
:105880009F3F09F40895290F311D97FD3A95F901BD
:1058900062830895FC01329608962191261303C075
:1058A000DF0111971C92E817F907B9F708950C94D6
:1058B000302C0C944A2C029626E0FC0111922A9579
:1058C000E9F708950895089508950C94642C809143
:1058D000F306843049F10E94652C80E00E94FC129E
:1058E0001092C10288E190E020E40FB6F894A895E8
:1058F000809360000FBE2093600083B7817F846037
:1059000083BF83B7816083BF7894889583B78E7F88
:1059100083BF0FB6F894A89580916000886180934A
:105920006000109260000FBE08950895CF930E940A
:10593000632C0E941C220E94952CC0E08C2F0E9498
:105940003821892B31F4CF5FC530C1F780E0CF918A
:10595000089581E0FCCF08950C94AB2C0E94C716EB
:105960000E94BE2B0E94FC120C94AC2C1F921FB6FE
:105970001F9211248F939F93AF93BF938091C10285
:10598000811113C08091EB069091EC06A091ED0679
:10599000B091EE064196A11DB11D8093EB06909348
:1059A000EC06A093ED06B093EE06BF91AF919F91E8
:1059B0008F911F901FBE1F90189582E084BD93E0C9
:1059C00095BD9AEF97BD80936E0008952FB7F89418
:1059D0008091EB069091EC06A091ED06B091EE0659
:1059E0002FBF08952FB7F8946091EB067091EC06E5
:1059F0008091ED069091EE062FBF08959C014FB760
:105A0000F8948091EB069091EC06A091ED06B09190
:105A1000EE064FBF821B930B0895CF92DF92EF9259
:105A2000FF922FB7F894C090EB06D090EC06E09070
:105A3000ED06F090EE062FBFA7019601261B370B4F
:105A4000480B590BCA01B901FF90EF90DF90CF903E
:105A5000089578941F921FB61F9211248F939F93DD
:105A6000AF93BF938091EB069091EC06A091ED0669
:105A7000B091EE060196A11DB11D8093EB069093A7
:105A8000EC06A093ED06B093EE06BF91AF919F9107
:105A90008F911F901FBE1F90189581E08093E000AA
:105AA00080E28093D8001092C9008FE19EE40197B4
:105AB000F1F700C0000087E090EBDC018093FC066A
:105AC0009093FD06A093FE06B093FF0688E19CE04C
:105AD0000FB6F894A895809360000FBE9093600075
