:100000000C948A120C94D1120C94D1120C94D1122B
:100010000C94D1120C94D1120C94D1120C94D112D4
:100020000C94D1120C94D1120C94CA1F0C94861FFC
:100030000C94722A0C94D1120C94D1120C94D112FB
:100040000C94D1120C94D1120C94D1120C94D112A4
:100050000C94D1120C94A1200C94D1120C94D112B6
:100060000C94D1120C94D1120C94D1120C94D11284
:100070000C94D1120C94D1120C94D1120C94D11274
:100080000C94D1120C94D1120C94D1120C94D11264
:100090000C94D1120C94D1120C94D1120C94D11254
:1000A0000C94D1120C94D1120C94D11200000000C7
:1000B0000000000000000000000000000000000040
:1000C000000FFF02060606060C0C0C0C0818181090
:1000D00030303040404080800000000000000000D0
:1000E0000000000000000000000000000000000010
:1000F0000000000000000000000000000000000000
:1001000000000000000000000000000000000000EF
:1001100000000000000000000000000000000000DF
:1001200000000000000000000000000000000000CF
:1001300000000000000000000000000000000000BF
:100140000000031F3C2020202020202020202020F1
:100150002060E00000E0DCCF808080808000000034
:10016000000000000000000000000000000000008F
:10017000000000000000000000000000000000007F
:10018000000000000000000000000000000000006F
:10019000000000000000000000000000000000005F
:1001A000000000000000000000000000000000004F
:1001B000000000000000000000000000000000003F
:1001C000000000000000000000000000000000002F
:1001D000000E0F0808040606FCF8FCFFF1F0F0F032
:1001E000000000000000000080C0C0C0800000804F
:1001F000C0C08090F0F0F0E0E0E0C0C080000000FF
:1002000000000000000000000000000000000000EE
:1002100000000000000000000000000000000000DE
:1002200000000000000000000000000000000000CE
:1002300000000000000000000000000000000000BE
:1002400000000000000000000000000000000000AE
:100250000000000000000000000100000C8FCF7FB4
:100260003E0E0E02020101017FFFFFFF3F0101016F
:1002700003FFFFFFFFFFFFF981810303070F0F0E4D
:100280001E3C7878383030206060C0C080000000AC
:10029000000000000000000000000000000000005E
:1002A000000000000000000000000000000000004E
:1002B000000000000000000000000000000000003E
:1002C000000000000000000000000000000000002E
:1002D0000000000000000000000000F83E070000E1
:1002E000000000000000000000000101000000000C
:1002F00000010307070300000101030303020000DC
:1003000000000000000000000000E0E02307FCF80F
:1003100000000000000000000000000000000000DD
:1003200000000000000000000000000000000000CD
:1003300000000000000000000000000000000000BD
:1003400000000000000000000000000000000000AD
:1003500000000000000000000000FC7F0000000022
:10036000000000000080808000000000000000000D
:10037000000000000000000000000000000000007D
:1003800000003078FCFCFCF870000707030007CF82
:10039000FC38000000000000000000000000000029
:1003A000000000000000000000000000000000004D
:1003B000000000000000000000000000000000003D
:1003C000000000000000000000000000000000002D
:1003D0000000000000000000001F1D0C1F1F020293
:1003E00002020202030303030303030303030303E1
:1003F0000202060E0E1C78E0C000000000001CF88F
:10040000E0E0E0E0E03030303818180C0C06030172
:1004100000000000000000000000000000000000DC
:1004200000000000000000000000000000000000CC
:1004300000000000000000000000000000000000BC
:1004400000000000000000000000000000000000AC
:10045000000000000000000000000000000000009C
:10046000000000000000000000000000000000008C
:10047000000000000000000003070C3860C0C0C08E
:10048000FFFF3F3F7F7F786000000000000000001A
:10049000000000000000000000000000000000005C
:1004A000000000000000000000000000000000004C
:1004B000000000000000000000000000000000C07C
:1004C00040408080808000000000000000000000AC
:1004D000000000000000000000000000000000001C
:1004E000000000000000000000000000000000000C
:1004F00000000000000000000000000000000000FC
:1005000000000000000000000000000000000000EB
:1005100000000000000000000000000000000000DB
:1005200000000000000000000000000000000000CB
:10053000000000000000000000000000000000FFBC
:100540008000000000010101030206060404040803
:1005500018F8F0000000000000000000000000009B
:10056000000000000000000000000000000000008B
:10057000000000C0E0E0E0C0C0808080808080009B
:10058000000000000000000000000000000000006B
:10059000000000000000000000000000000000005B
:1005A000000000000000000000000000000000004B
:1005B000000000000000000000000000000000003B
:1005C0000707060606060606060606C6FE1C001CEB
:1005D0003F37303030F030200000000000000000D5
:1005E0000000000000000000000000000000000704
:1005F00007070F0F1F1F3931236343C3838383878B
:1006000007070E0E1E1C1C181818303030302060E2
:1006100040C00000000000000000000000000000DA
:1006200000000000000000000000000000000000CA
:1006300000000000000000000000000000000000BA
:1006400000000000000000000000000101010101A5
:1006500001E3FFFEFEF7F0F0F0F0F03000000000E4
:10066000000000C0E0E0E0E030301010181818F88A
:10067000F8F8F8F80C0C0C0C060602030301010153
:1006800001000000000000000000000000E0F0D0C9
:10069000000306F8800000000000000000000000D9
:1006A000000000000000000000000000000000004A
:1006B000000000000000000000000000000000003A
:1006C000000000000000000000000000000000002A
:1006D00000000000000000011F1F1F1CFC7C0C0418
:1006E000020103071F3F7F7F7E0000000000000122
:1006F000070F0F0F000000000000000000000000C6
:1007000000000000800000003C7EFEFEFE3F130162
:10071000000080C1733F0E000000000000000000D8
:1007200000000000000000000000000000000000C9
:1007300000000000000000000000000000000000B9
:1007400000000000000000000000000000000000A9
:1007500000000000000000000000F8FF030000009F
:100760000000000000000000000000000000000089
:1007700000000000000000000000008080C0C0C039
:10078000C0C080810103030307060E0C1C1C3C3E05
:10079000FEFF7B3910000000000000000000000098
:1007A0000000000000000000000000000000000049
:1007B0000000000000000000000000000000000039
:1007C0000000000000000000000000000000000029
:1007D00000000000000080C0C0607F0F000000002B
:1007E0000000008080C040602030301818181818B1
:1007F0001C0C0C0C0606020203030303010000009C
:1008000000000103030303020202020202020203C8
:1008100003010000000000000000000000000000D4
:1008200000000000000000000000000000000000C8
:1008300000000000000000000000000000000000B8
:1008400000000000000000000000000000000000A8
:1008500000000000003FFFFFDF0E03010103030261
:100860000303010100000000000000000000000080
:100870000000000000000000000000000000000078
:100880000000000000000000000000000000000068
:100890000000000000000000000000000000000058
:1008A0000000000000000000000000000000000048
:1008B00000000000000000000000000000000080B8
:1008C00080000000000000000000000000000000A8
:1008D0000000000000000000000000000000000018
:1008E0000000000000000000000000000000000008
:1008F00000000000000000000000000000000000F8
:1009000000000000000000000000000000000000E7
:1009100000000000000000000000000000000000D7
:1009200000000000000000000000000000000000C7
:10093000000000000000000000000000000000FFB8
:1009400003010101010202060604040C1818181024
:10095000F0E00000000000000000000000000000C7
:100960000000000000000000000000000000000087
:100970000000000000000000000000000000000077
:100980000000000000000000000000000000000067
:100990000000000000000000000000000000000057
:1009A0000000000000000000000000000000000047
:1009B0000000000000000000000000000000000334
:1009C000060606060606060408080808F8F8006089
:1009D000FF1F0000000000000000000000000000F9
:1009E0000000000000000000000000000060E0E0E7
:1009F000E0E2E6EE7E3C3C3C7C78F8F8F0F0F0E09B
:100A0000C0C08000000000000000000000000000E6
:100A100000000000000000000000000000000000D6
:100A200000000000000000000000000000000000C6
:100A300000000000000000000000000000000000B6
:100A40000000000000000000000000000F0F0C0C70
:100A50000909F9F9F3FFC0C0C0C080000000000020
:100A6000000000000080C0C0E060603030F0F0F1B5
:100A7000F1F31B1B1F1E1C18181030302020010121
:100A80000301010101010101010282840C30E080B7
:100A90000000000000000000000000000000000056
:100AA0000000000000000000000000000000000046
:100AB0000000000000000000000000000000000036
:100AC0000000000000000000000000000000000026
:100AD00000000103030303033F3F3F303030F0F0D9
:100AE000300804060F0F1F3F3F3000000001071FB2
:100AF0001F1F0000000000000000000000000000B8
:100B00000000C0E0F0F0E0E080001F1F0C000F1FAD
:100B1000B0F0000000000000000000000000000035
:100B200000000000000000000000000000000000C5
:100B300000000000000000000000000000000000B5
:100B400000000000000000000000000000000000A5
:100B500000000000000000000000000000FFFF0097
:100B60000000000000000000000000000000000085
:100B70000000000000000000000000000000002055
:100B8000C0C0C1838387C7C3C160603030380C07E1
:100B90000301000000000000000000000000000051
:100BA0000000000000000000000000000000000045
:100BB0000000000000000000000000000000000035
:100BC0000000000000000000000000000000000025
:100BD000000000000000000000000000000003070B
:100BE0000C3860E08000000000000000000010F001
:100BF000303018181C0C0C0C0E0E0C1C30E0C00011
:100C00000003FF7F7F1F07000000000000000000BE
:100C100000000000000000000000000000000000D4
:100C200000000000000000000000000000000000C4
:100C300000000000000000000000000000000000B4
:100C400000000000000000000000000000000000A4
:100C50000000000000000000000000000000000094
:100C600000000000071F1F3C3870606C7C7E6341F1
:100C7000000000000000000000000000000003036E
:100C8000030300000000000000000000000000005E
:100C90000000000000000000000000000000000054
:100CA0000000000000000000000000000000000044
:100CB0000000000000000000000000000000000034
:100CC0000000007FFF010103020606040C0C081857
:100CD00018103030404040C080800000000000000C
:100CE0000000000000000000000000000000000004
:100CF00000000000000000000000000000000000F4
:100D000000000000000000000000000000000000E3
:100D100000000000000000000000000000000000D3
:100D200000000000000000000000000000000000C3
:100D300000000000000000000000000000000000B3
:100D400000000000000F0808080808181010101014
:100D500010E000000080F07C0701000000000000AF
:100D60000000000000000000000000000000000083
:100D70000000000000000000000000000000000073
:100D80000000000000000000000000000000000063
:100D90000000000000000000000000000000000053
:100DA0000000000000000000000000000000000043
:100DB0000000000000000000000000000000000033
:100DC0000000000000000000000000000000000023
:100DD0001C3F3020202323E6E6CEFC3C0000000030
:100DE00000000000000000000000000000C0C0C0C3
:100DF0008000F0F0F0E0E0C0C0C080000000000023
:100E000000000000000000000000000000000000E2
:100E100000000000000000000000000000000000D2
:100E200000000000000000000000000000000000C2
:100E300000000000000000000000000000000000B2
:100E400000000000000000000000000000000000A2
:100E50000000000000000207070F0F0E3E3E7C70EE
:100E6000F0E0E06030180C0C3EFEFEFEFF0F0F1F9E
:100E7000FFFFFFFBE3C3C387870F0F1F1F3E3C3CF1
:100E80001810303020606060C0800000000000005A
:100E90000000000000000000000000000000000052
:100EA0000000000000000000000000000000000042
:100EB0000000000000000000000000000000000032
:100EC0000000000000000000000000000000000022
:100ED0000000000000000000000000000000000012
:100EE000F8070100000000000000010303000000FB
:100EF00003070701000000010103030606000000CC
:100F00000000000000000000C0C00106FEF8000064
:100F100000000000000000000000000000000000D1
:100F200000000000000000000000000000000000C1
:100F300000000000000000000000000000000000B1
:100F400000000000000000000000000000000000A1
:100F50000000000000000000000000000000000091
:100F60000F7CC080000000000000000000040C089E
:100F70001818F0E000000000000000000000000071
:100F8000387CFCFCFC7820000F0F060047CF783837
:100F90000000000000000000000000000000000051
:100FA0000000000000000000000000000000000041
:100FB0000000000000000000000000000000000031
:100FC0000000000000000000000000000000000021
:100FD0000000000000000000000000000000000011
:100FE0000000000103060C18187870606030303083
:100FF0003030FFDF1C1C1C000080E0F0F8F0703087
:1010000030303030301818181C0C0C06030100006A
:1010100000000000000000000000000000000000D0
:1010200000000000000000000000000000000000C0
:1010300000000000000000000000000000000000B0
:1010400000000000000000000000000000000000A0
:101050000000000000000000000000000000000090
:101060000000000000000000000000000000000080
:1010700000001F7F606060787C7F0F070300000026
:101080000000000000000000000000000000000060
:101090000000000000000000000000000000000050
:1010A0000000000000000000000000000000000040
:1010B0000000000000000000000000000000000030
:1010C0000000000000000000000000000000000020
:1010D0000000000000000000000000000000000010
:1010E0000000000000000000000000008080808000
:1010F00080808010181C1C1B1918100000000000B4
:1011000000000000000000000000000000000000DF
:1011100000000000000000000000000000000000CF
:1011200000000000000000000000000000000000BF
:1011300000000000000000000000000000000000AF
:10114000000000000000000000000000000000009F
:10115000000000000000000000000000000000008F
:1011600000000000000000000000000081C1E1E17B
:1011700099878700000000000000000000000000C8
:10118000000000000000000000000000000000005F
:10119000000000000000000000000000000000004F
:1011A000000000000000000000000000000000003F
:1011B000000000000000000000000000000000002F
:1011C000000000000000000000000000000000001F
:1011D00000000000000000000000C0C0C0C0C0C08F
:1011E000C030303030303C0C0C0C0C0C0C0C0C0CA7
:1011F0000C0C0C303030303070C0C0C0C0C0C0C02B
:1012000000000000000000000000000000000000DE
:1012100000000000000000000000000000000000CE
:1012200000000000000000000000000000000000BE
:1012300000000000000000000000000000000000AE
:10124000000000000000000000000000008080E0BE
:10125000E0F88C8C0C0C0303838380F8780000800A
:10126000808080606060400000000000808000009E
:1012700000000060606060808080800078788080FE
:10128000838303070C8C8CF8F8E0E080800000007A
:10129000000000000000000000000000000000004E
:1012A000000000000000000000000000000000003E
:1012B000000000000000000000000000000000002E
:1012C000000000000000C0C0C0C0C0C6C6C7C7C77D
:1012D0008707070706060606E1E11F8FC0E0E0E189
:1012E000E1C1810000000000F0F0F8F8F9F9F8F829
:1012F000F0E00000000000C1C1E1E1E0C0C01F1F3C
:10130000E1E10606060707070707070707060600C5
:1013100000000000000000000000000000000000CD
:1013200000000000000000000000000000000000BD
:1013300000000000000000000000000000000000AD
:10134000000000000000FFFF010101010101010197
:101350000303030303030C0C3FFFC0C3030F0F0F72
:101360000F030300000000000F0F3F3F3F3F3FFF10
:10137000FFFF8C0C0C3030C3C38F0F0F0703C0C0AE
:101380003F3F0000000000000000000000000000DF
:10139000000000000000000000000000000000004D
:1013A000000000000000000000000000000000003D
:1013B000000000000000000000000000000000002D
:1013C0000000000000000707060606060618189829
:1013D0009898E0606060000080FFFFFF0E00000052
:1013E000000000E0E000000000000000000000003D
:1013F0000003031E1EE0E00001031F1E1E0EFFFF80
:1014000000000000000000000000000000000000DC
:1014100000000000000000000000000000000000CC
:1014200000000000000000000000000000000000BC
:1014300000000000000000000000000000000000AC
:10144000000000000000000000181836363636C1D3
:10145000D9DD1C1C7E7E7E7EFFFF0101007C7CC0EE
:10146000C0000007FFFCF8000000000000000000C2
:101470000000000000010100000000000000010168
:10148000FEFE000000000000000000000000000060
:10149000000000000000000000000000000000004C
:1014A000000000000000000000000000000000003C
:1014B000000000000000000000000000000000002C
:1014C000000000000000000000000000000000001C
:1014D000000000000000000000000000000000000C
:1014E00000000000000000000000000080808080FC
:1014F000808080000000000000000000000000006C
:1015000000000000000000000000000000000000DB
:1015100000000000000000000000000000000000CB
:1015200000000000000000000000000000000000BB
:1015300000000000000000000000000000000000AB
:10154000000000000000000000000000000000009B
:10155000000000000000000000000000000000008B
:1015600000000000000000000000000081C1E1E177
:1015700099878700000000000000000000000000C4
:10158000000000000000000000000000000000005B
:10159000000000000000000000000000000000004B
:1015A000000000000000000000000000000000003B
:1015B000000000000000000000000000000000002B
:1015C000000000000000000000000000000000001B
:1015D00000000000000000000000C0C0C0C0C0C08B
:1015E000C030303030303C0C0C0C0C0C0C0C0C0CA3
:1015F0000C0C0C303030303070C0C0C0C0C0C0C027
:1016000000000000000000000000000000000000DA
:1016100000000000000000000000000000000000CA
:1016200000000000000000000000000000000000BA
:1016300000000000000000000000000000000000AA
:10164000000000000000000000000000008080E0BA
:10165000E0F88C8C0C0C0303838380F87800008006
:10166000808080606060400000000000808000009A
:1016700000000060606060808080800078788080FA
:10168000838303070C8C8CF8F8E0E0808000000076
:10169000000000000000000000000000000000004A
:1016A000000000000000000000000000000000003A
:1016B000000000000000000000000000000000002A
:1016C000000000000000C0C0C0C0C0C6C6C7C7C779
:1016D0008707070706060606E1E11F8FC0E0E0E185
:1016E000E1C1810000000000F0F0F8F8F9F9F8F825
:1016F000F0E00000000000C1C1E1E1E0C0C01F1F38
:10170000E1E10606060707070707070707060600C1
:1017100000000000000000000000000000000000C9
:1017200000000000000000000000000000000000B9
:1017300000000000000000000000000000000000A9
:10174000000000000000FFFF010101010101010193
:101750000303030303030C0C3FFFC0C3030F0F0F6E
:101760000F030300000000000F0F3F3F3F3F3FFF0C
:10177000FFFF8C0C0C3030C3C38F0F0F0703C0C0AA
:101780003F3F0000000000000000000000000000DB
:101790000000000000000000000000000000000049
:1017A0000000000000000000000000000000000039
:1017B0000000000000000000000000000000000029
:1017C0000000000000000707060606060618189825
:1017D0009898E0606060000080FFFFFF0E0000004E
:1017E000000000E0E0000000000000000000000039
:1017F0000003031E1EE0E00001031F1E1E0EFFFF7C
:1018000000000000000000000000000000000000D8
:1018100000000000000000000000000000000000C8
:1018200000000000000000000000000000000000B8
:1018300000000000000000000000000000000000A8
:10184000000000000000000000181836363636C1CF
:10185000D9DD1C1C7E7E7E7EFFFF0101007C7CC0EA
:10186000C0000007FFFCF8000000000000000000BE
:101870000000000000010100000000000000010164
:10188000FEFE00000000000000000000000000005C
:101890000000000000000000000000000000000048
:1018A0000000000000000000000000000000000038
:1018B0000000000000000000000000000000000028
:1018C0000000000000000000000000000000000018
:1018D0000000000000000000000000000000000008
:1018E00000000000000000000000000000000000F8
:1018F00000000000000000000000000000000000E8
:1019000000000000000000000000000000000000D7
:1019100000000000000000000000000000000000C7
:1019200000000000000000000000000000000000B7
:1019300000000000000000000000000000000000A7
:101940000000000000000000000000000000000097
:101950000000000000000000000000000000000087
:101960000000000000000000000000000000000077
:101970000000000000000000000000000000000067
:101980000000000000000000000000000000000057
:101990000000000000000000000000000000000047
:1019A0000000000000000000000000000000000037
:1019B0000000000000000000000000000000000027
:1019C0000000000000000000000000000000000017
:1019D00000000000000000000000C0C0C0C0C0C087
:1019E000C030303030303C0C0C0C0C0C0C0C0C0C9F
:1019F0000C0C0C303030303070C0C0C0C0C0C0C023
:101A000000000000000000000000000000000000D6
:101A100000000000000000000000000000000000C6
:101A200000000000000000000000000000000000B6
:101A300000000000000000000000000000000000A6
:101A4000000000000000000000000000008080E0B6
:101A5000E0F88C8C0C0C0303838380F87800008002
:101A60008080806060604000000000008080000096
:101A700000000060606060808080800078788080F6
:101A8000838303070C8C8CF8F8E0E0808000000072
:101A90000000000000000000000000000000000046
:101AA0000000000000000000000000000000000036
:101AB0000000000000000000000000000000000026
:101AC000000000000000C0C0C0C0C0C6C6C7C7C775
:101AD0008707070706060606E1E11F8FC0E0E0E181
:101AE000E1C1810000000000F0F0F8F8F9F9F8F821
:101AF000F0E00000000000C1C1E1E1E0C0C01F1F34
:101B0000E1E10606060707070707070707060600BD
:101B100000000000000000000000000000000000C5
:101B200000000000000000000000000000000000B5
:101B300000000000000000000000000000000000A5
:101B4000000000000000FFFF01010101010101018F
:101B50000303030303030C0C3FFFC0C3030F0F0F6A
:101B60000F030300000000000F0F3F3F3F3F3FFF08
:101B7000FFFF8C0C0C3030C3C38F0F0F0703C0C0A6
:101B80003F3F0000000000000000000000000000D7
:101B90000000000000000000000000000000000045
:101BA0000000000000000000000000000000000035
:101BB0000000000000000000000000000000000025
:101BC0000000000000000707060606060618189821
:101BD0009898E0606060000080FFFFFF0E0000004A
:101BE000000000E0E0000000000000000000000035
:101BF0000003031E1EE0E00001031F1E1E0EFFFF78
:101C000000000000000000000000000000000000D4
:101C100000000000000000000000000000000000C4
:101C200000000000000000000000000000000000B4
:101C300000000000000000000000000000000000A4
:101C4000000000000000000000181836363636C1CB
:101C5000D9DD1C1C7E7E7E7EFFFF0101007C7CC0E6
:101C6000C0000007FFFCF8000000000000000000BA
:101C70000000000000010100000000000000010160
:101C8000FEFE000000000000000000000000000058
:101C90000000000000000000000000000000000044
:101CA0000000000000000000000000000000000034
:101CB0000000000000000000000000000000000024
:101CC0000000000000000000000000000000000014
:101CD0007E0F00D4FFFFFFC7000000780000000067
:101CE000000000002A2B2800000000000000000077
:101CF0000000000000000029000000002C1E34201D
:101D0000212224342627252E362D3738271E1F2042
:101D10002122232425263333362E37381F04050687
:101D20000708090A0B0C0D0E0F10111213141516CB
:101D30001718191A1B1C1D2F3130232D35040506C9
:101D40000708090A0B0C0D0E0F10111213141516AB
:101D50001718191A1B1C1D2F3130354C626C697312
:101D60007365796870373134004D696E677A652024
:101D7000697320636F6F6C006D696E677A652E6A98
:101D8000696E313140676D61696C2E636F6D00164D
:101D90005C1E001F002000210022002300240025DB
:101DA00000260027002D002E002A00A8002B00147A
:101DB000001A000800150017001C0018000C001283
:101DC0000013002F00300031004C003900040016D1
:101DD00000070009000A000B000D000E000F003381
:101DE000003400320028005200D85C64001D001B43
:101DF00000060019000500110010003600370038F9
:101E000000D95C46004900E000E300E20000002A3F
:101E10000028002C002C00E600E700E400015150EF
:101E20000051004F0001003A003B003C003D003EE5
:101E3000003F0040004100420043004400450001D3
:101E400000A6000100010001000100005C0100018A
:101E500000010001000100655D0100010001004B6F
:101E60000001000100010001000100010001006407
:101E70005D010001000100010001000100010001FD
:101E800000010001000100010001000100010063E8
:101E90005D010001000100010001004E0001000190
:101EA000000100000001000100010001000100012B
:101EB0000001000100AC00AE00AB0000DA1281FFAF
:101EC000D9F1DB20A4A62EAF00A0C000A1C800AEAF
:101ED000D580A83FD300408D14200000AF00AE0590
:101EE000010980A101850319012AB700150126B750
:101EF00000950175108100C0050C0901A101850440
:101F000019012AA002150126A00295017510810071
:101F1000C005010906A101050719E029E7150025FB
:101F20000195087501810295017508810105071960
:101F30000029FF150026FF00950675088100050899
:101F40001901290595057501910295017503910106
:101F5000C009023B00020100A03209040000010395
:101F60000101000921110100012240000705810340
:101F700008000A0904010001030000000921110101
:101F800000012232000705820320000A120100022C
:101F900000000008626B696802000102000116037C
:101FA000470061006E004A0069006E006700200073
:101FB00037003000000018036D0069006E006700F4
:101FC0007A0065006A0069006E003100310000008F
:101FD0000403090407087F0807003E5B4F5B3E00CF
:101FE0003E6B4F6B3E001C3E7C3E1C00183C7E3C12
:101FF00018001C577D571C001C5E7F5E1C000018DB
:102000003C180000FFE7C3E7FF0000182418000099
:10201000FFE7DBE7FF0030483A060E002629792962
:102020002600407F05050700407F05253F005A3CFC
:10203000E73C5A007F3E1C1C0800081C1C3E7F0029
:1020400014227F2214005F5F005F5F0006097F019A
:102050007F00006689956A0060606060600094A2FD
:10206000FFA2940008047E04080010207E201000C7
:1020700008082A1C0800081C2A0808001E10101056
:1020800010000C1E0C1E0C0030383E383000060EBE
:102090003E0E060000000000000000005F0000008F
:1020A000000700070000147F147F1400242A7F2AF1
:1020B00012002313086462003649562050000008BD
:1020C00007030000001C224100000041221C000008
:1020D0002A1C7F1C2A0008083E0808000080703077
:1020E00000000808080808000000606000002010D8
:1020F000080402003E5149453E0000427F40000076
:102100007249494946002141494D33001814127F54
:1021100010002745454539003C4A494931004121D5
:1021200011090700364949493600464949291E0028
:1021300000001400000000403400000000081422D9
:102140004100141414141400004122140800020168
:10215000590906003E415D594E007C1211127C0067
:102160007F49494936003E41414122007F4141417A
:102170003E007F49494941007F09090901003E416C
:10218000415173007F0808087F0000417F41000033
:102190002040413F01007F08142241007F40404021
:1021A00040007F021C027F007F0408107F003E4138
:1021B00041413E007F09090906003E4151215E0070
:1021C0007F091929460026494949320003017F0148
:1021D00003003F4040403F001F2040201F003F4081
:1021E00038403F00631408146300030478040300BC
:1021F0006159494D4300007F4141410002040810EC
:102200002000004141417F000402010204004040DF
:10221000404040000003070800002054547840006C
:102220007F28444438003844444428003844442833
:102230007F0038545454180000087E09020018A486
:10224000A49C78007F080404780000447D400000CE
:102250002040403D00007F102844000000417F40A6
:1022600000007C04780478007C080404780038447A
:1022700044443800FC182424180018242418FC00B6
:102280007C080404080048545454240004043F44C7
:1022900024003C4040207C001C2040201C003C408E
:1022A00030403C004428102844004C9090907C0022
:1022B0004464544C4400000836410000000077009C
:1022C00000000041360800000201020402003C2622
:1022D00023263C00000000000000404040F0F8F8D9
:1022E000FF38FFF8F83FF8F8FF38FFF8F8F0404003
:1022F0004000000000000080C0C0C0800000C0C0DE
:102300008000000080C0C000C0C0000080C0C000CD
:1023100000000000C0C0C0C0C000C0C0000000007D
:1023200000000000000000000000000000000000AD
:10233000000000000000000000000000000000009D
:10234000000000000000000000000000000000008D
:10235000000000C0F0F8FC3E1E06010000007F41B6
:1023600041417F007F4141417F000080C0E07E5BB2
:102370004F5BFEC00000C000DCD7DEDEDED7DC0035
:10238000C00000000000000000000000000000008D
:1023900000000000000000000000494949FFFFFF65
:1023A000FFE0DFBFBF00BFBFDFE0FFFFFFFF494926
:1023B0004900000000001F3F6060E0BF1F007F7FFA
:1023C000071E381E077F7F007F7F0E1F3B71600056
:1023D000000000007F7F0C0C0C007E7E007F7E03DF
:1023E00003007F7E03037E7E03037F7E000F3E702B
:1023F0003C063C703E0F00327B49493F7E007F7EA9
:102400000303001E3F69696F260000000000000002
:10241000000000030F1F3F3C7870600000007F4108
:1024200041417F007F4141417F00307B7F783020F8
:102430002030787F3B0003000F7F0F0F0F7F0F00CE
:102440000300000000000000000000000000000089
:1024500000000000000000000000010101070F0F54
:102460007F0F7F0F0F7E0F0F7F0F7F0F0F07010171
:102470000100000000000000000000010100000059
:10248000000000000000000000000000000000004C
:10249000000000000000000000000000000000003C
:1024A000000000000000000000000000000000002C
:1024B000000000000000000000000000000000001C
:1024C000000000000000000000000000000000000C
:1024D00000000000000000000000000000000000FC
:1024E00000000000000000000000000000000000EC
:1024F00000000000000000000000000000000000DC
:1025000000000000000000000000000000000000CB
:102510000000000011241FBECFEFDAE0DEBFCDBF08
:1025200004B603FE27C08091C2069091C306A09115
:10253000C406B091C5068730904BA740B04BD1F48C
:102540001092C2061092C3061092C4061092C506DD
:1025500014BE84B7877F84BF0FB6F894A895809186
:102560006000886180936000109260000FBEE0E020
:10257000F8E3099511E0A0E0B1E0ECEDFBE602C064
:1025800005900D92A238B107D9F726E0A2E8B1E094
:1025900001C01D92A23CB207E1F70E94992A0C9457
:1025A000C8350C940000CF93DF934091C006509142
:1025B000C106405C52409A013C5F21303440C0F07B
:1025C00020E034E0241B350B6091BE027091BF0205
:1025D000FC01CA01240F351FC1E0D0E08217930728
:1025E00050F07093BF026093BE02DF91CF910895C7
:1025F00020E034E0E9CF4491DC01A054BD4F5C9170
:10260000451781F04C93AC01A6E056954795AA95E5
:10261000E1F7DE0102C0AA0FBB1F4A95E2F7AD0148
:102620006A2B752B01963196D9CFE8EDF0E08081C9
:102630008E7F80831092E2001092DA001092E10007
:10264000A0EEB0E08C9181608C9380818F77808345
:1026500019BCA7EDB0E08C918E7F8C9380818F7E2A
:10266000808310929D0208952091E4003091E5004E
:1026700095E6A9012091EC00822F817020FF06C011
:102680008091E80080FF06C080E008952091E80076
:1026900022FD1AC08091AA02882389F0853089F032
:1026A0008091EB0085FD0FC02091E4003091E500A2
:1026B00042175307F9F29150E1F684E0089582E061
:1026C000089583E0089581E00895EF92FF920F93BB
:1026D0001F93CF937C018B010E943413C82F81116B
:1026E00017C08091E80085FD0BC08091E8008E77CF
:1026F0008093E8000E943413882399F3C82F08C000
:10270000F70181917F018093F1000150110949F790
:102710008C2FCF911F910F91FF90EF900895809192
:10272000AC0287FF13C08091E80082FF06C0809151
:10273000E8008B778093E80004C08091AA028111A1
:10274000F2CF08958091AA028823D9F38091E800FE
:1027500080FFF8CF8091E8008E77ECCF982F909390
:10276000E900242F762F50E0891731F07091EC00AA
:102770002091ED005091F00021FD07C09F5F973040
:1027800071F78093E90081E008953091EB003E7F7E
:102790003093EB003091ED003D7F3093ED003091B0
:1027A000EB0031603093EB007093EC002093ED0070
:1027B0005093F0002091EE0027FDE0CF80E00895D7
:1027C000CF92DF92EF92FF920F931F93CF93DF93FD
:1027D000C8EDD0E088818F7E8883E7EDF0E08081CE
:1027E0008160808384E082BF81E080939D02888144
:1027F0008E7F888302EE10E0F80110821092DA00DA
:1028000081EEC82ED12CF601108288818F778883C3
:1028100088818068888388818F7D888319BC109225
:10282000AA021092AB021092A9021092A80290EE96
:10283000E92EF12CF70180818B7F80838881816074
:10284000888342E060E080E00E94AE13F601808160
:102850008E7F8083F80180818160808380818860A1
:102860008083F70180818E7F808388818061888367
:10287000DF91CF911F910F91FF90EF90DF90CF905C
:102880000895FC018091B2029091B30286179707D8
:10289000A0F06115710529F49091E8009E7790935E
:1028A000E80090E06115710551F4911108C0809124
:1028B000E80082FF34C080E00895BC01F2CF80912F
:1028C000AA028823C1F18530C1F18091E80083FD1F
:1028D00030C08091E80082FDEACF8091E80080FF5F
:1028E000E1CF8091F3002091F200382F611571053E
:1028F00019F02830310558F091E02830310509F001
:1029000090E02091E8002E772093E800CBCF8191D2
:102910008093F100615071092F5F3F4FE7CF8091A5
:10292000AA02882341F0853041F08091E80083FFBE
:10293000BECF81E0089582E0089583E00895089570
:1029400080919F0208952FB7F8946091960270913C
:10295000970280919802909199022FBF089520913B
:102960009302309194022817390771F090939402E2
:1029700080939302E0919102F0919202309721F0BE
:102980000084F185E02D0994089520918F02309103
:1029900090022817390771F09093900280938F026C
:1029A000E0919102F0919202309721F00680F78138
:1029B000E02D09940895E0919102F09192023097F0
:1029C00021F00190F081E02D099480E0089580E0ED
:1029D0000895F894E82FE295EF70F0E031A1282FE8
:1029E0002F7081E090E001C0880F2A95EAF7982FB8
:1029F0009095932391A392A1892B82A37894089513
:102A00009091070292FF06C0282F28712830F9F410
:102A1000877F846093FF06C0282F28712831F1F446
:102A2000877E84612091080220FF06C0382F38710C
:102A30003830D9F4877F816021FF06C0282F2871A4
:102A40002831D1F4877E816194FD877E0895282FF7
:102A500024712430F9F68B7F8860DCCF282F247115
:102A6000243101F78B7E8861DDCF382F3171313011
:102A700019F78E7F8860E0CF282F2171213121F74F
:102A80008E7E8861E1CFCF93DF93EC018238910590
:102A9000A9F1D8F58133910509F496C048F589323A
:102AA000910509F48AC08A9709F495C0C11522E5F9
:102AB000D20708F0B6C0C11531E5D30708F026C12A
:102AC000C83ED10508F09CC0C03ED10560F5C83AAB
:102AD000D10508F087C0C53AD10508F0EFC0C13074
:102AE000D10509F12097F9F0C430D105E0F440C0D8
:102AF0008533910509F45AC0C997C1F68091070240
:102B0000837089F0C0EED0E00EC0833E910599F14C
:102B100070F4803E910501F1823E910539F6809175
:102B2000070282FD21C0CE01DF91CF910895863E3C
:102B3000910561F1873E910571F1843E910509F09F
:102B4000B5CF8091080281FFEECF80910702C7EEDA
:102B5000D0E084FD0DC0E7CF8091070280FD07C162
:102B60009091080290FFDFCFC3EED0E084FFDBCF6F
:102B7000D0E0C0E0D8CF8091070282FDFBC09091E9
:102B8000080290FDBFCF84FFCECFF2CF8091070225
:102B900083FDDDCFC8CF8091070283FDEEC0909109
:102BA000080291FFF0CFC4EED0E0BDCF80910702C4
:102BB00085FFB9CFC9E2D0E0B6CF8091070285FF8B
:102BC000B2CFC5E3D0E0AFCF8091070286FFABCF95
:102BD000CAE2D0E0A8CF8091070286FFA4CFC1E36C
:102BE000D0E0A1CFCF3BD10518F6C85AD0E0CC0F2A
:102BF000DD1FC15EDE4F0990D881C02DD46493CF14
:102C0000C11540E5D40708F064C0C11580E4D807B9
:102C100008F05CC0CE019A9581159F4108F483CFDE
:102C2000A7CFC11536E5D30718F5C11545E5D4077B
:102C300008F084C0C11584E5D80708F07AC09C2F3D
:102C4000969596959E0123703327C115D34508F4B8
:102C500062C0C1E0D0E002C0CC0FDD1F2A95E2F7D0
:102C600030E2939FC0011124C82BD92BDA685BCFC7
:102C7000C1158AE5D80778F4C11599E5D90708F098
:102C800068C0C11528E5D20708F472CFDC2FCC2725
:102C9000C06FD06A48CFCE0190568115904208F09F
:102CA00067CF8D2F8F710E94001590E0982F882795
:102CB00088279F719C012C2BE90149C0C55AD0E09F
:102CC000C45EDE4FC881D0E0D0642DCFDF70D06A03
:102CD0002ACFCE01E4E096958795EA95E1F78370D7
:102CE0002C2F26952695237040E2249F90011124D5
:102CF000382B8C2F8370C1E0D0E002C0CC0FDD1FD9
:102D00008A95E2F7C22BD32BDC680DCFDC2FCC27C2
:102D1000C16FD06A08CFC1E0D0E002C0CC0FDD1F88
:102D20002A95E2F720E2929FC0011124C82BD92BEB
:102D3000EBCFDC2FCC27C46FD06AF5CE8C2F0E944E
:102D40000015C82FD0E0DC2FCC27CC27DF71D06254
:102D5000EACE8C2F8F700E94001534E0D695C7956F
:102D60003A95E1F7CF709C2FEC01D069DCCEC9E336
:102D7000D0E0D9CEC2EED0E0D6CEC6EED0E0D3CEF3
:102D80008091FD0181111092FD0108958091FC0157
:102D90009091FB01892B9091FA01892B80938401FA
:102DA0009091FD01992391F0892B8093840120E07B
:102DB00086E891E0FC013191CF0131112F5FF1E004
:102DC0008C389F07B9F721110E94C016E09191023B
:102DD000F0919202309731F00280F381E02D84E887
:102DE00091E009940895E6E8F1E09191891303C018
:102DF000DF0111971C9291E0EC38F907B1F70895C3
:102E0000A6E8B1E0EFEF90E02D91821751F0EF3F8F
:102E100019F4211101C0E92F9F5F9630A9F7EF3F08
:102E200009F408950E2E000CFF0BEC57FE4F828321
:102E300008958091F8019091C701981301C00895F9
:102E40008F5F8770FACFAF92BF92CF92DF92EF92EF
:102E5000FF920F931F93CF93DF93C0901D02D090EA
:102E60001E02E0901F02F09020024091FE0150915E
:102E7000FF016091000270910102C42AD52AE62A5E
:102E8000F72ACFE1D0E0082F10E02FE0929F000D4D
:102E9000111D11249BE4A92EBC2ED701C6010C2EB6
:102EA00004C0B695A795979587950A94D2F780FDAB
:102EB0000FC0219788F7B12C8B2DDF91CF911F91F7
:102EC0000F91FF90EF90DF90CF90BF90AF9008955B
:102ED000AC9EF001AD9EF00D1124E00FF11FEE0F3E
:102EE000FF1FE157F24E859194910E94431501977F
:102EF00001F3E2CFCF93DF93EC010E942317EC2F75
:102F0000F0E09FE0D99FE00DF11D11249BE4899F23
:102F1000E00DF11D1124EE0FFF1FE157F24E8591D8
:102F20009491DF91CF910C9443152FE0929F800DE7
:102F30001124982F977086958695869525E0829F17
:102F4000F0011124E157FE4F50E040E080E0219174
:102F500030E0092E02C0369527950A94E2F72170D9
:102F60003327042E01C0220F0A94EAF7822B4F5F09
:102F70005F4F4530510559F708952FE0929F800D1E
:102F80001124982F977041E001C0440F9A95EAF7F9
:102F900086958695869595E0899FF0011124E157E5
:102FA000FE4F90E080E070E05191DF0111979B01AE
:102FB000082E02C0369527950A94E2F721702195D4
:102FC0002527242325272C9301968530910561F729
:102FD0000895FC01808191810E947A17292F2F701A
:102FE00092959F7092509E3078F4E92FF0E0E6536E
:102FF000FA4C0C946730803F19F020F4883E20F49E
:1030000081E00895843FE1F380E00895883EC0F3B5
:10301000813FD1F7F5CF822F8695869586950895C5
:1030200090E080E00E94C51490E080E00E94AF1420
:103030001092FB011092FA010C94C61660931D02C7
:1030400070931E0280931F02909320020C9410181C
:103050000F931F9341E050E060E070E004C0440F24
:10306000551F661F771F8A95D2F7CB01BA0160956D
:1030700070958095909500911D0210911E022091EF
:103080001F023091200260237123822393231F911A
:103090000F910C941E189091F901809589238093CB
:1030A000F901282F277039F4282F082E000C330B34
:1030B0009217130621F49091080292FF07C085959C
:1030C000859585950E9428181092F90108950F930F
:1030D0001F9341E050E060E070E004C0440F551FD2
:1030E000661F771F8A95D2F780911D0290911E026C
:1030F000A0911F02B09120028A019B01082B192B7D
:103100002A2B3B2BC901B8011F910F910C941E185B
:103110006093FE017093FF0180930002909301027F
:103120000C941018882341F080959091FC0189231C
:103130008093FC010C94C6160895882339F0909171
:10314000FC01982B9093FC010C94C61608958823DB
:1031500009F452C0823871F40E94DB1481FF4CC024
:1031600089E30E9400170E94C61689E30E94F316A5
:103170000C94C616833859F40E94DB1480FF3CC0BF
:1031800083E50E9400170E94C61683E5EFCF8438BE
:1031900059F40E94DB1482FF2FC087E40E940017BD
:1031A0000E94C61687E4E2CF9CEF980F913AF0F2A6
:1031B00090E2980F983088F4877021E030E0A90100
:1031C00002C0440F551F8A95E2F7CA01809590917D
:1031D000FC0189238093FC01CBCF9BE5980F9330B2
:1031E00020F490E080E00C94C514885A873120F4D4
:1031F00090E080E00C94AF14089580913002843107
:10320000C0F480918D0190E0019663E070E00E942F
:10321000343080938D0122E030E0A901481B590B26
:10322000CA01982F8827990F990F84559F4E0C94A7
:10323000D31220918C0130E02F5F3F4F2370332752
:1032400020938C0183E090E0821B930B982F8827BA
:10325000990F990F84559F4FEACFCF92DF92EF924B
:10326000FF920F931F93CF93DF936C017B0164E672
:1032700070E088E70E94132FEC0197FD12C010E068
:1032800000E0F601E00FF11F849164E670E00E9417
:103290008D2FEC01892B29F40F5F1F4F0E151F0591
:1032A00081F70E941030CE01DF91CF911F910F91D5
:1032B000FF90EF90DF90CF90089580918D029091D4
:1032C0008E02911103C091E089270895882369F047
:1032D00062E070E08DED9EE10E942D19892B19F0BE
:1032E00080918D02089510928D0280918D02EBCF16
:1032F000CF93C0918D0280918E028823D1F00E94DD
:10330000A31460527C468B4F9F4F60938902709349
:103310008A0280938B0290938C02C11108C062E0F4
:1033200070E08BED9EE10E942D19892B29F0C09150
:103330008D028C2FCF91089581E080938D02F7CF7D
:103340001092FC01E6E8F1E086E0DF011D928A952B
:10335000E9F70C9410181F93CF93DF93CDB7DEB726
:10336000AA970FB6F894DEBF0FBECDBF8CEA92E0ED
:103370002091F100FC012193CF01F2E0843B9F07F3
:10338000B9F78091AD02833009F46FC0B8F4813091
:1033900009F446C0823009F4B0C08091E80083FF90
:1033A0007BC28091AC029091AD029A3008F074C259
:1033B000E92FF0E0E852FA4C0C9467308A3009F4B7
:1033C0008BC08B3009F46EC0893039F78091AC0224
:1033D000813219F78091B0029091B1020297E8F61C
:1033E0008091E800877F8093E8008091E80082FF69
:1033F00037C09091F3008091F200029729F48091F8
:10340000F1008B7F813021F48091F10080939F0245
:103410008091E8008B778093E8000E948F13BDCFE6
:103420008091AC02813A09F0B8CF8091E800877FA3
:103430008093E8008091B0029091B102892B61F4F1
:1034400068E080EA92E070E00E9441148091E80018
:103450008B778093E800A1CF60E090E080E0F3CF2D
:103460008091AA028111C1CF98CF8091AC02813A9C
:1034700009F093CF8091B0029091B102892B09F0AD
:103480008CCF8091E800877F8093E8008091E800EE
:1034900080FFFCCF809111018093F1008091E800C2
:1034A0008E77B9CF8091AC02813209F076CF8091CE
:1034B000B0029091B102892B09F06FCF8091E800A2
:1034C000877F8093E8000E948F138091AE028093E3
:1034D00011010E94A01961CF8091AC02813209F0E4
:1034E0005CCF8091E800877F8093E8000E948F1373
:1034F0008091AF0280939E0250CF8091AC02813ABE
:1035000009F04BCF8091E800877F8093E80080919D
:10351000E80080FFFCCF80919E02BECF803899F0FA
:10352000823809F0B9C18091B0028F70873008F0FD
:10353000B3C18093E9008091EB0085FB882780F977
:103540001092E90006C08091A8029091A902911101
:1035500082609091E800977F9093E8008093F1005B
:103560001092F1008091E8008E7792C1882309F4CF
:1035700080C1823009F090C18091AE02811183C177
:103580008091B0028F702FEF280F263008F084C191
:103590008093E9002091EB0020FF75C1933031F456
:1035A0008091EB0080628093EB006DC19091EB0005
:1035B00090619093EB0021E030E001C0220F8A95EA
:1035C000EAF72093EA001092EA008091EB0088600D
:1035D000EACF811161C11091AE021F778091E300A3
:1035E0008078812B8093E3008091E800877F80932F
:1035F000E8000E948F138091E80080FFFCCF80914B
:10360000E30080688093E30082E0111183E08093FF
:10361000AA0242C18058823008F03EC18091AE02B9
:103620009091AF028C3D23E09207A1F583E08A835D
:103630008AE289834FB7F894DE01139620E03EE0DA
:1036400051E2E32FF0E050935700E49120FF03C0D4
:10365000E295EF703F5FEF708E2F90E0EA30C0F0A0
:10366000C7968D939D932F5F243159F74FBF80915B
:10367000E800877F8093E8006AE270E0CE0101965F
:103680000E9441148091E8008B778093E80004C188
:10369000C096E7CF4091B0025091B102292F332755
:1036A0002330310509F444C078F52130310509F49F
:1036B0006FC08BE390E0E1E5FFE12230310509F0D6
:1036C000EBC02091E800277F2093E8002091B20210
:1036D0003091B3028217930708F49C0140E0211552
:1036E000310509F064C0411162C08091E80082FD9B
:1036F000C9CF8091AA02882329F2853019F28091DE
:10370000E80083FFF2CFBECF21323105A9F122328A
:10371000310509F0C1C04115510509F443C04130DC
:10372000510509F0B9C082E390E0EFEDFEE1C9CFA9
:10373000992781309105C1F0009759F0029709F05F
:10374000ABC0EEE9FFE1E4918E2F90E0EEE9FFE1FE
:1037500007C0E0EDFFE1E4918E2F90E0E0EDFFE1A6
:10376000009709F499C0ADCFE6EBFFE1E4918E2F0D
:1037700090E0E6EBFFE1F4CF4115510571F04130E7
:10378000510509F089C089E090E0ECE7FFE199CFAD
:1037900082E190E0ECE8FFE194CF89E090E0E3E69D
:1037A000FFE18FCF80E490E0E1E1FFE18ACF8091FB
:1037B000AA02882309F466CF853009F463CF80918B
:1037C000E80083FD5FCF8091E80082FD8ECF80917D
:1037D000E80080FF84CF9091F3008091F2002115E2
:1037E000310519F08830910550F041E0089709F053
:1037F00040E08091E8008E778093E80070CF44919C
:103800004093F1003196215031090196E8CF80387C
:1038100009F042C08091E800877F8093E8008091A2
:10382000AB028093F1009ECE811136C01091AE02A2
:10383000123090F58091E800877F8093E800109324
:10384000AB020E948F13112311F084E005C0809118
:10385000E30087FDFACF81E08093AA0242E061ECA9
:1038600081E00E94AE1342E261EC82E00E94AE135E
:1038700013C08091AE02813079F481E0933009F079
:1038800080E08093A9021092E9008091E800877F90
:103890008093E8000E948F138091E80083FF0AC0A4
:1038A0008091E800877F8093E8008091EB00806240
:1038B0008093EB00AA960FB6F894DEBF0FBECDBF83
:1038C000DF91CF911F910895CF93DF93C091C006F0
:1038D000D091C1068A30C1F42091B702CE01805C3C
:1038E0009240622F70E00E941430281B822F66E005
:1038F0000E942830C82FC15018F4DF91CF9108954D
:1039000080E20E94641CF7CF8D30E9F4C05CD240A5
:103910002091B702622F70E0CE010E941430281B64
:10392000822F9E01280F311D2115344018F080E0B0
:10393000D0E0C0E0C80FD11DC054DD4FD093C10608
:10394000C093C006DACF96E0FE01A8EBB2E001908A
:103950000D929A95E1F7803E08F458C086E0FE018A
:1039600011928A95E9F7C091C006D091C10646E050
:1039700050E0BE0188EB92E00E94CF309E01205CB7
:103980003240892B41F1C90146E0969587954A95C9
:10399000E1F741E050E0BA0102C0660F771F8A9557
:1039A000E2F7CB016091BE027091BF02862B972B8C
:1039B000B9016B5F7F4FE6E076956795EA95E1F791
:1039C00002C0440F551F6A95E2F7842B952B909304
:1039D000BF028093BE022A5F3F4F4091B702642F1F
:1039E00070E0C9010E941430481B463010F4240FC7
:1039F000311D211574E0370710F030E020E020542D
:103A00003D4F3093C1062093C00677CFF6E08F9FDD
:103A1000B00111246C52704E46E050E0CE010E947D
:103A2000C630A1CF9091AA02943031F580939A02CA
:103A300070939C0260939B0282E08093E9008FEF79
:103A40009091E800815095FD06C095ED9A95F1F7AB
:103A500000008111F5CF8091E80085FF0DC050E096
:103A600040E063E070E08AE992E00E946513809193
:103A7000E8008E778093E8000895BC0184E00C9400
:103A8000121DBC0183E00C94121DCF93DF93EC0157
:103A900081E08093E9008FEF9091E800815095FDDF
:103AA00006C095ED9A95F1F700008111F5CF809150
:103AB000E80085FF14C050E040E068E070E0CE010F
:103AC0000E9465138091E8008E778093E80088E07B
:103AD000FE01A0EAB2E001900D928A95E1F7DF9134
:103AE000CF91089581E08093E00080E28093D80038
:103AF0001092C9008FE19EE40197F1F700C0000029
:103B000087E090EBDC018093C2069093C306A093FC
:103B1000C406B093C50688E19CE00FB6F894A8955A
:103B2000809360000FBE90936000FFCFCF93C82FAB
:103B3000882309F488C08238C1F40E94DB1481FD17
:103B400082C089E30E9400170E94C6162FEF81EE03
:103B500094E0215080409040E1F700C0000089E3EC
:103B60000E94F316CF910C94C6168338A1F40E94DC
:103B7000DB1480FD68C083E50E9400170E94C61612
:103B80002FEF81EE94E0215080409040E1F700C09B
:103B9000000083E5E5CF8438A1F40E94DB1482FDA8
:103BA00052C087E40E9400170E94C6162FEF81EED4
:103BB00094E0215080409040E1F700C0000087E48D
:103BC000CFCF8CEF8C0F813A68F4E6E8F1E0819179
:103BD000C81799F121E0EC38F207C9F78C2F0E9441
:103BE0000017C0CF80E28C0F883068F4C77021E0E6
:103BF00030E001C0220FCA95EAF78091FC01822BC8
:103C00008093FC01AFCFEBE5EC0FE33040F4F0E044
:103C1000E45EFE4F808190E0CF910C94C514C85AA9
:103C2000C73188F4EC2FF0E0EE0FFF1FE15EFE4F8E
:103C300080819181CF910C94AF148C2F0E94F31648
:103C40000E94C616CBCFCF9108951F93CF93DF93D9
:103C5000182FD0E0C0E0893311F4C0E5D0E0812F07
:103C60000E94961D209731F4812FDF91CF911F91F3
:103C70000C94A7188FE99FE00197F1F700C00000AE
:103C80002197F0CFAF92BF92CF92DF92EF92FF9247
:103C90000F931F93CF93DF93EC018AE0A82EFE01D0
:103CA0002491222309F494C0213009F03EC03196BA
:103CB0008491813031F42296FE0184910E94251E68
:103CC00007C0823039F42296FE0184910E94961D2D
:103CD0002196E5CF833031F42296FE0184910E9433
:103CE000A718F6CF843009F071C02296FE01249106
:103CF00090E080E0FE0131962053330B2A303105ED
:103D000048F0019728F3EFE9FFE03197F1F700C0A1
:103D10000000F7CFA89EA001A99E500D1124C90153
:103D2000840F951F2491EF01E5CFE22FF0E0E452DC
:103D3000F34EB490822F86958695869590E0FC018F
:103D4000E453F34EE4902770F12C022E02C0F59458
:103D5000E7940A94E2F731E0E322FF24FC01E45403
:103D6000F34EC490D12C022E02C0D594C7940A946D
:103D7000E2F7E1E0CE22DD24FC01E455F34E0491AC
:103D800010E002C0159507952A95E2F701701127FA
:103D9000E114F10419F081EE0E94961DC114D104C2
:103DA00019F086EE0E94961D8B2D0E94251ECD28AF
:103DB00019F086EE0E94A718EF2819F081EE0E94F4
:103DC000A718012B09F484CF8CE278CFEF0180CFC4
:103DD000DF91CF911F910F91FF90EF90DF90CF90E7
:103DE000BF90AF900895CF9384E090E00E946E332F
:103DF000C82F82E290E00E946E33982F8C2FCF91D3
:103E0000089569EE7EEF90E080E00E949A3360E0D2
:103E100082E090E00E947C3360E083E090E00E94CA
:103E20007C331092FE011092FF011092000210925A
:103E3000010260E084E090E00E947C3360E082E276
:103E400090E00E947C3360E085E090E00E947C334B
:103E500060E086E090E00E947C336FEF87E090E0C6
:103E60000E947C3340E050E0BA0188E090E00E947C
:103E70008E3360E08DE090E00E947C3340E050E0C3
:103E8000BA0188E190E00E948E3360E087E190E023
:103E90000E947C3340E050E0BA018CE190E00E9447
:103EA0008E3370E060E080E290E00E949A3340E060
:103EB00050E0BA0188E190E00E948E3340E050E08B
:103EC000BA018FE090E00E948E3340E050E0BA01EA
:103ED00083E190E00C948E33CF93C0910802C2FB33
:103EE000992790F9981781F080FBC2F9C0930802D6
:103EF0006091070284E090E00E947C336C2F82E2A4
:103F000090E0CF910C947C33CF9108951F920F9243
:103F10000FB60F9211242F933F934F935F936F939C
:103F20007F938F939F93AF93BF93CF93DF93EF9341
:103F3000FF93D091E900DF708091EC00C82FC17031
:103F400080FDC0E81092E9008091F000877F8093A7
:103F5000F00078940E94AB191092E9008091F00073
:103F600088608093F000CD2BCF70C093E900FF9163
:103F7000EF91DF91CF91BF91AF919F918F917F9101
:103F80006F915F914F913F912F910F900FBE0F90C6
:103F90001F9018951F920F920FB60F9211242F9316
:103FA0003F934F935F936F937F938F939F93AF93C1
:103FB000BF93EF93FF938091E10082FF09C080914E
:103FC000E20082FF05C08091E1008B7F8093E100D9
:103FD0008091DA0080FF24C08091D80080FF20C04B
:103FE0008091DA008E7F8093DA008091D90080FF83
:103FF0009BC080E189BD82E189BD09B400FEFDCF8F
:1040000081E08093AA0280919D02811109C00E94E3
:1040100015130E94E0138091E20084608093E20017
:104020008091E10080FF17C08091E20080FF13C003
:104030008091E2008E7F8093E2008091E2008061B7
:104040008093E2008091D80080628093D80019BCF0
:1040500085E08093AA028091E10084FF29C08091CD
:10406000E20084FF25C080E189BD82E189BD89B578
:10407000982F917080FFFBCF8091D8008F7D809327
:10408000D8008091E1008F7E8093E1008091E20072
:104090008F7E8093E2008091E20081608093E20055
:1040A0008091AB02882309F445C084E08093AA0282
:1040B0008091E10083FF27C08091E20083FF23C04D
:1040C0008091E100877F8093E10082E08093AA02E3
:1040D0001092AB028091E1008E7F8093E10080918D
:1040E000E2008E7F8093E2008091E2008061809305
:1040F000E20042E060E080E00E94AE138091F000B8
:1041000088608093F000FF91EF91BF91AF919F91F4
:104110008F917F916F915F914F913F912F910F9070
:104120000FBE0F901F90189519BC1092AA02109202
:104130009D0276CF8091E30087FD93E09093AA02E1
:10414000B7CF78941F921FB61F9211248F939F931D
:10415000AF93BF938091960290919702A09198029D
:10416000B09199020196A11DB11D80939602909382
:104170009702A0939802B0939902BF91AF919F913B
:104180008F911F901FBE1F9018959C014FB7F894F8
:104190008091960290919702A0919802B091990215
:1041A0004FBF821B930B08952FB7F894809196020E
:1041B00090919702A0919802B09199022FBF089513
:1041C0000F931F93CF93DF93C62FD42F022FFC01A1
:1041D00082818823A1F06093B6020E94D42090933C
:1041E000B5028093B402C77081E001C0880FCA9500
:1041F000EAF7DF91CF911F910F910C949D18809158
:10420000B602681335C08091B4029091B5020E9445
:10421000C520883C910560F510E21D0FCD17B9F05F
:1042200080E28C0F883040F4C77081E001C0880FB5
:10423000CA95EAF70E949218183048F481E09D2F41
:10424000977001C0880F9A95EAF70E949D18802FF9
:104250000E94251E183098F4D77081E001C0880FA5
:10426000DA95EAF7DF91CF911F910F910C94921894
:10427000C77081E001C0880FCA95EAF7F3CFDF91DC
:10428000CF911F910F9108956F927F928F929F927D
:10429000AF92BF92CF92DF92EF92FF920F931F9354
:1042A000CF93DF93CDB7DEB72A970FB6F894DEBF72
:1042B0000FBECDBF8E010F5F1F4F8AE0F801119234
:1042C0008A95E9F78DE4E82E81E0F82E680192E501
:1042D000692E91E0792E88248394912CF7018191A5
:1042E0007F018F3F09F44BC0F894E82FE295EF70FF
:1042F000F0E021A18F70A40102C0440F551F8A95E0
:10430000E2F7CA01922F982B91A392A1809589235D
:1043100082A3789400C0E2E5F1E030E020E0B12C27
:10432000A12C81918F3F09F484C0A82FA295AF7072
:10433000B0E090964C9150E08F7002C05595479533
:104340008A95E2F740FD75C0C401022E02C0880FB5
:10435000991F0A94E2F7A82AB92A2F5F3F4F2F30FE
:104360003105F9F6F701319780818F3F11F00E94F6
:10437000E91450EA5A95F1F7F601B182A082F2E011
:10438000CF0ED11C6E147F0409F0A8CF4AE050E094
:10439000B80189E092E00E94CF30FF24F3940097A7
:1043A00009F4F12C892B09F447C08AE0F801A9E04F
:1043B000B2E001900D928A95E1F781E080930402CA
:1043C0000E94D42090930302809302028091020203
:1043D000909103020E94C520059790F180910902F7
:1043E00090910A02909314028093130280910B0221
:1043F00090910C02909316028093150280910D0209
:1044000090910E02909318028093170280910F02F0
:104410009091100290931A028093190280911102D8
:104420009091120290931C0280931B02109204023E
:1044300007C090E080E08FCF809104028111C6CF49
:1044400080910502909106020E94C520893E93400A
:1044500060F160913002062F10E066277727601B1D
:10446000710B072E000C880B990B0E946A3427EA07
:1044700039E747E45DE30E945B354B015C01B8011D
:10448000110F880B990B0E946A349B01AC01C50186
:10449000B4010E94B1330E943934609330020E940B
:1044A000D42090930602809305028F2D2A960FB692
:1044B000F894DEBF0FBECDBFDF91CF911F910F915A
:1044C000FF90EF90DF90CF90BF90AF909F908F9034
:1044D0007F906F9008954F925F926F927F928F922C
:1044E0009F92AF92BF92CF92DF92EF92FF920F9383
:1044F0001F93CF93DF9300D000D00F92CDB7DEB7DC
:104500007C01FC0183819481892B39F01081D18059
:10451000812F8D218F3F09F07BC40F900F900F905A
:104520000F900F90DF91CF911F910F91FF90EF901F
:10453000DF90CF90BF90AF909F908F907F906F90C3
:104540005F904F9008950E942317082F682F89814C
:104550009A810E94BD17E12FF0E02FE0D29EE00D7E
:10456000F11D11243BE4039FE00DF11D1124EE0F1A
:10457000FF1FE157F24E05911491F70182818823C4
:1045800009F463C0C80190568115F0E29F0750F00E
:10459000905E811520E1920728F0915C81159F4182
:1045A00008F084C0C80199279C01245031092432A5
:1045B000310520F08B970E9708F047C080910502D7
:1045C000909106020097D9F10E94C5209C0150E00D
:1045D00040E060E67AEE80E090E00E944830CA0158
:1045E000B90125E030E040E050E00E944830C09042
:1045F00030022F3F310519F010F02FEF30E0D12CB1
:104600002C193D09B90190E080E00E94683427EA46
:1046100039E747E45DE30E945B350E941D344B019E
:104620005C01B601DD0C880B990B0E946A34A50170
:1046300094010E94B1330E943934609330020E9489
:10464000D4209093060280930502F701828188238B
:1046500009F4B9C40436FDE51F0789F105362DE5D7
:10466000120709F452C088E79DE103363DE51307C0
:1046700041F1043F2CE5120709F44EC008F04FC485
:10468000093D8CE5180709F443C00A3D9CE519076C
:1046900009F44EC0083DECE51E0709F04CC426E2C3
:1046A00041EE61EEC7010E94E0200DC090E080E085
:1046B0000F3F110511F008F077CFC80175CF89E6DB
:1046C0009DE10E94421E8091F901877009F425CF77
:1046D000F7018281882309F420CF82E00F900F90A8
:1046E0000F900F900F90DF91CF911F910F91FF903E
:1046F000EF90DF90CF90BF90AF909F908F907F9082
:104700006F905F904F900C944B188CE59DE1D9CF42
:1047100027E245EE65EEC6CF26E241EE60EEC2CF5F
:1047200027E245EE64EEBECF26E241EE62EEBACF5E
:1047300028E241E0EFCF0236EDE51E0709F40CC494
:1047400006313CE5130709F074C38091FC018A7AB5
:1047500091E009F490E090938E018111E4C089E228
:104760000E9400170E94C616AECF8091070280619A
:1047700006303CE5130709F482C008F487C0809135
:10478000070280627CC0809107028D7F0C309CE51F
:10479000190709F474C070F4809107028C600A3024
:1047A000FCE51F0709F46BC008F482C08091070282
:1047B0008E7F65C080910702877F0E303CE513072E
:1047C00009F45DC008F47EC0809107028F7E57C057
:1047D0000D3F9CE5190709F479C040F50431FCE56B
:1047E0001F0709F48FC058F402313CE5130709F4A0
:1047F00079C008F473C080910702837F40C00B3FEB
:104800009CE5190709F446C008F04AC005311C456B
:1048100009F0C9C38091070282FB992790F921E032
:10482000922790FB82F990FB83F929C001302DE596
:10483000120709F45DC070F40F3F8CE51807F1F121
:10484000809108028D7F01151D4538F18091080285
:104850008C7F23C00330EDE51E0709F462C008F425
:104860005AC002361D4509F09EC390910702892F58
:104870008F7E94FF806103C08091070281608093E6
:10488000070291C3809107028460F9CF80910702EB
:104890008860F5CF8091080281608093080283C30D
:1048A000809108028260F9CF809107028064E7CF8F
:1048B0000E94A019809107028068E1CF80910802D0
:1048C0008360EBCF809107028B7FD9CF8091080264
:1048D0008E7FE3CF809107028F7DD1CF8091070239
:1048E0008F7BCDCF0E94A019809107028F77C7CF11
:1048F00080910802982F909591708E7F892B90FB64
:1049000081F9CBCF0E94A01990910702892F97FBC4
:1049100087F98058B4CF61E08EE090E00E947C334C
:1049200042C360E0F9CF85E31BCF85E36AC30E94F1
:10493000A0198FEF94E3ECE081509040E040E1F764
:1049400000C000000E94721D81E093C280E091C20D
:10495000812F902F0E949517D82E9EC2212F2F7045
:10496000A22E107F19F0A29420EFA222DD20C9F020
:10497000AA2069F080E2800F883010F081100BC00F
:104980008091FC01A82AA092FC010E94C616802FEB
:104990000E94961D18C08091FB01A82AA092FB01DD
:1049A000F4CF802F0E94A718AA2069F0A094005E7F
:1049B000083010F0811045C08091FC01A822A0921F
:1049C000FC010E94C616EB2DE850FF0B349710F443
:1049D0000E94DB14CC20A9F08091F90180FD11C068
:1049E000F70112828595859585950E946718C70104
:1049F0000E946B228091F9018595859585950E948D
:104A0000281885E0F701DE01119601900D928A9534
:104A1000E1F789819A810E9495179A81E981F0E0F6
:104A20002FE0929FE00DF11D11243BE4839FE00DE8
:104A3000F11D1124EE0FFF1FE157F24E8591949165
:104A40006CCD8091FB01A822A092FB01BACF312F3F
:104A50003F70932E107F103219F0929490EF9922AC
:104A6000882071F081E0881681F1DD20D9F1AA203B
:104A700091F1F701858180FF8ACF8F7085832BC0EC
:104A8000DD20B1F09091FD01892D892BA11003C08B
:104A90000E949D1898CFE1E0AE12FACF2091080253
:104AA00022FD91CF981709F48ECF8093FD018BCF13
:104AB000A11006C00E94C016892D0E94921883CFB3
:104AC000F1E0AF1609F47FCFF5CFDD2031F025E01E
:104AD0002A1508F478CF892DDBCF34E03A1508F495
:104AE00072CFEACFAA2041F3F9E38F128AC12FEFE8
:104AF00037EE83E0215030408040E1F700C00000F5
:104B000080C1812F86958695837061F0813009F090
:104B10005ACFC8019370D11002C090E080E00E948B
:104B2000AF1451CFC8019370D11002C090E080E063
:104B30000E94C51448CF812F837009F066C0D11040
:104B400042CF802F829586958770880F880F602FBF
:104B50006F70462E512C712C612C082E04C0440C11
:104B6000551C661C771C0A94D2F740E050E0BA014D
:104B700004FF0FC04FE050E060E070E004C0440F5D
:104B8000551F661F771F8A95D2F7409550956095FF
:104B90007095812F869586958370823019F1D8F4AF
:104BA0000091FE011091FF0120910002309101025D
:104BB000813069F04429552966297729CB01BA014A
:104BC00060237123822393230E948818FCCE402AFD
:104BD000512A622A732ACB01BA01642975298629D0
:104BE0009729F2CF44295529662977290091FE019A
:104BF0001091FF012091000230910102CB01BA0116
:104C00006027712782279327DFCF8695DD2011F05B
:104C1000812F8170882309F4D6CE802F82958695C6
:104C20008770880F880F602F6F70462E512C712C63
:104C3000612C082E04C0440C551C661C771C0A9479
:104C4000D2F740E050E0BA0104FF0FC04FE050E05F
:104C500060E070E004C0440F551F661F771F8A95FF
:104C6000D2F74095509560957095812F86958695E1
:104C70008370823019F1D8F400911D0210911E0248
:104C800020911F0230912002813069F0442955297A
:104C900066297729CB01BA016023712382239323EC
:104CA0000E941E1890CE402A512A622A732ACB01F4
:104CB000BA016429752986299729F2CF44295529F3
:104CC0006629772900911D0210911E0220911F0272
:104CD00030912002CB01BA016027712782279327E8
:104CE000DFCF1F70DD2029F0812F0E946718802FF1
:104CF000CFCE802F0E949218812F0E94281863CE59
:104D0000802F92EF891609F454C0981578F0E0EFDF
:104D10008E1639F1F1EF8F1609F443C0DD2009F446
:104D20006BC0A11034CE812F8F7140C023EF82164B
:104D300009F444C034EF8312F1CFDD2009F451C0EF
:104D40001F71812F0E9467188091080282FD07C0A1
:104D5000E8E01E9FC001112483608093F901812F38
:104D600025C0DD20C9F084E08A1508F42CCE1F711F
:104D700061E070E080E090E004C0660F771F881F5C
:104D8000991F1A95D2F700911D0210911E022091D1
:104D90001F0230912002A0CF95E09A1508F413CE9F
:104DA000E6CF812F8F71DD2009F4A7CF0E9467180D
:104DB0000ACE812F8F71DD20C9F39FCF60E070E0B4
:104DC000CB01DD2009F46CCF1F7161E070E080E061
:104DD00090E004C0660F771F881F991F1A95D2F7BD
:104DE0005FCF81E00E944B18F1E0FA1508F0EBCD9F
:104DF00082E00E944B18E7CDAA2039F0893309F4EC
:104E000076CE802F0E94A718DECD812F8F7175CFAF
:104E100085E0DE01119601900D928A95E1F7F70188
:104E2000228189819A8121118ECB0E949517082FAA
:104E300092CB0B352DE5120709F486CD58F40115F8
:104E40008CE5180709F473CD0F3D1C45A1F40E94B1
:104E5000011F39CC0C35EDE51E0709F477CD0D3572
:104E60001D4549F48091080282FB882780F991E072
:104E700089270E946C1FF70182811081018188239C
:104E800009F466CD812F902F0E942317D82E682F0A
:104E9000812F902F0E94BD17E12FF0E02FE0029F9D
:104EA000E00DF11D11243BE4D39EE00DF11D112412
:104EB000EE0FFF1FE157F24E859194910E9443152A
:104EC0008C01882EF701D280A580A2945FE0A522F4
:104ED0008091F9018770A1F0CD2CDD2091F0812F18
:104EE000807F803421F080E2800F883048F082E0BB
:104EF0000E944B188091F9018770CC24C3948111D2
:104F0000C12CB12EB2943FE0B322FBE0FB1508F4B4
:104F10005ACDEB2DF0E0EE51FA4C0C946730063F81
:104F2000FCE51F0709F400CC08F4FACB073F3CE589
:104F3000130709F474C01092B60204308DE5180707
:104F400008F0F9CB0B3F9CE5190730F4C8018250FB
:104F50009C45449708F0F4CB0E94F31E90930802FE
:104F6000809307020031FCE51F0709F4B3CC08F079
:104F70002FCC08303CE5130709F496CC08F003CC9D
:104F800004309CE5190709F47DCC08F0EECB023023
:104F9000FCE51F0709F470CC8091070282600330A2
:104FA0001C4509F46CCC609107021091080284E062
:104FB00090E00E947C33612F82E290E00E947C337B
:104FC0000E94A01980CB043F8CE5180709F4A4CBFC
:104FD000D8F4093DECE51E0709F49ACB0A3DFCE53F
:104FE0001F0709F4A5CB083D2CE5120709F457CBA0
:104FF00006311C4509F03FCF80918E01811195CC7F
:1050000089E20E94F316AECB063F3CE5130709F494
:105010008BCB08F485CB073F9CE5190749F727E2BE
:1050200045EE66EE3FCB1F93CF93DF938091C60191
:10503000807FA9F48091C301882389F08091F801D1
:10504000D091C7016091C1017091C201A091C401CA
:10505000B091C501C62FC72316E0D81304C0DF9155
:10506000CF911F91089590E0109711F0CF3F19F460
:1050700001968770F2CF189F9001199F300D11246F
:10508000F901E853FE4F41814713F2CF40814613A7
:10509000EFCF42814111ECCF438154814A1B5B0B1E
:1050A000483C510528F78091C6018F70806180933C
:1050B000C601F901E353FE4F80818F7080618083C8
:1050C00081EC91E00E946B22DF91CF911F910C94B3
:1050D0001917AF92BF92CF92DF92EF92FF920F9388
:1050E0001F93CF93DF93CDB7DEB761970FB6F894D8
:1050F000DEBF0FBECDBF8C0185E0F801DE011D963D
:1051000001900D928A95E1F7F801E28081ECA82EDA
:1051100081E0B82E6091C4017091C50161157105DF
:1051200009F432C19091C1014091C201892F8423B9
:105130008F3F09F429C120813181C380D480F09050
:10514000C301F601E61BF70BFF2009F4E8C08091CC
:10515000C601582F507FE83CF10508F0ABC0511153
:1051600077C0FE2C431321C092131FC0E1101DC055
:105170008F7080618093C601C5010E946B2280916F
:10518000C601F80185838F2D61960FB6F894DEBFB6
:105190000FBECDBFDF91CF911F910F91FF90EF9088
:1051A000DF90CF90BF90AF900895CD2829F0822F47
:1051B00083238F3F09F003C180E0F82FF170DF2EC9
:1051C00080FF3CC08091F8014091C70156E08413F4
:1051D00015C02D873E878D859E850E947A17292FC1
:1051E00022952F702230F0F0243018F59F70F1F0E6
:1051F000F8019581907FD1F4D12C1EC090E0589F8A
:10520000F001599FF00D1124E853FE4F61813613D0
:1052100006C06081261303C06281E6120FC00196AA
:105220008770D5CF9F7011F0882331F3805E88306E
:1052300018F3C8010E946B22FD2CA5CFEE2009F4C3
:10524000A2CF8091C60181608093C601F12C9BCFD3
:10525000431306C0921304C0F801EE2009F479C08C
:10526000C8010E94E917882309F1EE20F9F0809126
:10527000C601803270F02091C1013091C20138879F
:105280002F831986DB86CA868C87CE0107960E94FB
:105290006B2286E0F801A1ECB1E001900D928A95B5
:1052A000E1F70E941328FF24F3946DCFC8010E94F8
:1052B0006B22F9CF51110AC081EC91E00E946B2260
:1052C00086E0F50111928A95E9F7C0CF43130FC02C
:1052D00092130DC0E1100BC0F8018583C8010E9434
:1052E0006B2286E0F50111928A95E9F74CCFC8014F
:1052F0000E94E9178823D1F2EE20C1F28091C60105
:10530000803238F22091C1013091C2013A83298361
:105310001B82DD82CC828E83CE010196B8CFE83C21
:10532000F105F8F6FE2CEE2009F243131FC092138C
:105330001DC08091C60180FD10C0982F907F69F03C
:10534000F8018583903F31F0982F907F905F8F70A8
:10535000892B8583C8010E946B2286E0F801A1ECAD
:10536000B1E001900D928A95E1F70DCFC8010E943E
:10537000E91781118ECF8091C60181608093C601AB
:10538000C8010E946B22FFCEEE2009F48FCFC80126
:105390000E94E917F82E882309F488CF86E0F801E7
:1053A000A1ECB1E001900D928A95E1F78091C101E5
:1053B0009091C2010E947A170E941328E4CE81E0E6
:1053C0008E25FBCE1F93CF93DF93CDB7DEB76797C4
:1053D0000FB6F894DEBF0FBECDBF4B8B5C8B6D8BD1
:1053E0007E8B8F8B61111092FB011A8A198A85E0DE
:1053F000FE017396DE011D9601900D928A95E1F7EC
:1054000086E0FE013D96DE01179601900D928A9589
:10541000E1F7CE0107960E946928882389F016E0FB
:105420008091F8019091C701891349C067960FB622
:10543000F894DEBF0FBECDBFDF91CF911F910895CD
:1054400086E0FE013796DE01119601900D928A9555
:10545000E1F78A859B85892B11F38F8198858923B4
:105460008F3FE9F22091C70130E0C90101968770B2
:1054700099274091F8014817190671F40E94A01964
:105480001092C7011092F80186E0E1ECF1E0DF0133
:105490001D928A95E9F7C3CF96E0929FD001939F22
:1054A000B00D1124A853BE4FFE01319601900D920C
:1054B0009A95E1F78093C7010E941917B0CF819F99
:1054C000C001112488539E4F0E946928882309F443
:1054D000ADCF8091F80190E0019687709927809375
:1054E000F8019ECF1F921FB61F9211248F939F9396
:1054F000AF93BF9380919502811113C08091960262
:1055000090919702A0919802B09199024196A11DA5
:10551000B11D8093960290939702A0939802B09346
:105520009902BF91AF919F918F911F901FBE1F90C5
:105530001895CDB7DEB72E970FB6F894DEBF0FBE25
:10554000CDBF84B7877F84BF0FB6F894A8958091AC
:105550006000886180936000109260000FBE80E858
:1055600090E00FB6F89480936100909361000FBEB5
:1055700085B7806885BF85B7806885BF87EE94E171
:1055800090938301809382010E9415130E94E0137F
:105590008091E20084608093E20078948091AA0276
:1055A0008823A1F01091E9001F709091EC00892FE1
:1055B000817090FD80E8182B1092E9008091E8003E
:1055C00083FD0E94AB191F701093E90082E084BD37
:1055D00093E095BD9AEF97BD80936E000DE411E0C6
:1055E00072E5E72E71E0F72ED8018D918D018F3F86
:1055F00011F00E94E914E016F106B1F702E511E09E
:1056000061E6E62E61E0F62EF80181918F018F3F71
:1056100011F00E94E914E016F106B1F710920A02A7
:1056200010920902109214021092130210920C02AE
:1056300010920B02109216021092150210920E0296
:1056400010920D021092180210921702109210027E
:1056500010920F0210921A02109219021092120266
:105660001092110210921C0210921B0290E080E036
:105670000E947633893E9E4F11F00E94011F82E006
:1056800090E00E946E3380937E020E94F31E9093FE
:105690000802809307020E9444218FE39CE901974E
:1056A000F1F700C000000E9444218091130280FFA6
:1056B00008C06FEF7FEF90E080E00E949A330E9475
:1056C000721D83E090E00E946E33682F70E090E0DE
:1056D00080E00E94881882E080937B0280E88093BB
:1056E000B7020E940D2F6DE070E08EEC9EE10E94EB
:1056F0002D19892BE9F580917B0263E070E081FD33
:10570000E4C18BEC9EE10E942D19892B89F56DE097
:1057100070E08BEB9EE10E942D19892B49F50E94C8
:10572000A31460527C468B4F9F4F60938902709305
:105730008A0280938B0290938C02E0ECF2E080E08E
:1057400094E0DF019C011D9221503040E1F7F0937D
:10575000C106E093C0068FEF9FEF9093BF02809346
:10576000BE0281E080938E0280938D0210927C02B3
:1057700052985A9A53985B9A89B182FB882780F98C
:105780004B99A6C190E0892B8093230280E091E0A1
:10579000909392028093910250E4D52E8091AA02B8
:1057A00000E112E1853009F4CEC10E944421E82EC7
:1057B00081110E94A314A3E1B2E0EFE7F2E010E050
:1057C00000E0702F8D919D9121913191281739071B
:1057D00009F4C9C12827392760E0AA24A394B12C71
:1057E000A9014A215B21452B09F4B7C169837A835A
:1057F0009C012A213B2191E0232B09F490E09B831B
:105800000E94D4208160782F9D838C8349815A81A6
:105810006B818D810E94E229000F111FF801E15870
:10582000FD4F80819181A826B926B182A082E091A6
:105830002302EE0FEE0FE093230289B182FB88274B
:1058400080F98B871C864B99A5C180E02B853C8510
:10585000822BE82BE0932302EF70F0E0EF59FE4F2C
:10586000808190912202890F80932202F12C843052
:10587000F4F0809121028F5F8093210280911D02BC
:1058800090911E02A0911F02B09120020097A105E5
:10589000B10509F482C1B695A79597958795382FDC
:1058A0003170F32E80FF79C18EEB0E94251E80910E
:1058B00022028D3FF4F480912102815080932102D5
:1058C00080911D0290911E02A0911F02B0912002B2
:1058D0000097A105B10509F466C1B695A7959795FE
:1058E0008795E82FE170FE2E80FF5DC18DEB0E9451
:1058F000251E80912202082E000C990B64E070E0B6
:105900000E94343080932202F1100E94A3148091EF
:105910008E02882309F4C8C080EC92E09093C106FF
:105920008093C00610913002612F70E090E080E01B
:105930000E946A3420E030E040E250E40E945B358F
:105940009B01AC0160E070E08AEF93E40E94B03309
:105950004B015C0120E030E048EC52E40E9434341A
:1059600087FD27C1C501B4010E94393460932C0220
:1059700070932D0280932E0290932F02153108F41C
:105980001DC10E947819409128025091290260910E
:105990002A0270912B022FB7F89480919602909171
:1059A0009702A0919802B09199022FBF841B950B8A
:1059B000A60BB70B40912C0250912D0260912E0244
:1059C00070912F02481759076A077B0760F40E94FD
:1059D000A314609328027093290280932A02909363
:1059E0002B020E94FD180E94A3146093240270935E
:1059F000250280932602909327028091B70290E0BF
:105A0000825F9C4F9093C1068093C00680913002C4
:105A10001F928F9382E191E09F938F9301E312E0B5
:105A20001F930F930E94DC30D8010D900020E9F7FE
:105A30008D01015011090F900F900F900F900F9052
:105A40000F9051E3A52E52E0B52EA016B10608F432
:105A5000FEC080918E02882371F02091BE023091A9
:105A6000BF022115310539F080917C0261E070E0C0
:105A7000882309F4F3C080918D028823A9F00E9445
:105A8000A3140091890210918A0220918B02309117
:105A90008C02601B710B820B930B6F3F7F4F8F4FFC
:105AA0009F4710F40E945D19E11001C0F1100E949F
:105AB00078190E94DB1490917D02891709F46ECE4B
:105AC0000E94DB1480937D0269CE88EC9EE11BCEA0
:105AD00092E059CE8091AA02843019F11092950279
