:100000000C9408100C944F100C944F100C944F103B
:100010000C944F100C944F100C944F100C944F10E4
:100020000C944F100C944F100C9482310C94563257
:100030000C94A82C0C944F100C944F100C944F104F
:100040000C944F100C944F100C944F100C944F10B4
:100050000C944F100C941B2D0C944F100C944F10BB
:100060000C944F100C944F100C944F100C944F1094
:100070000C944F100C944F100C944F100C944F1084
:100080000C944F100C944F100C944F100C944F1074
:100090000C944F100C944F100C944F100C944F1064
:1000A0000C944F100C944F100C944F100000000053
:1000B0000000000000000000000000000000000040
:1000C0000000000000000000000000000000000030
:1000D0000000000000000000000000000000000020
:1000E0000000000000000000000000000000000010
:1000F0000000000000000000000000000000000000
:1001000000000000000000000000000000000000EF
:1001100000000000000000000000000000000000DF
:1001200000000000000000000000000000000000CF
:1001300000000000000000000000000000000000BF
:1001400000000000000000000000000000000000AF
:10015000000000000000000000000000000000009F
:10016000000000000000000000000000000000008F
:10017000000000000000000000000000000000007F
:10018000000000000000000000000000000000006F
:10019000000000000000000000000000000000005F
:1001A000000000000000000000000000000000004F
:1001B000000000000000000000000000000000003F
:1001C000000000000000000000000000000000002F
:1001D00000000000000000000000C0C0C0C0C0C09F
:1001E000C030303030303C0C0C0C0C0C0C0C0C0CB7
:1001F0000C0C0C303030303070C0C0C0C0C0C0C03B
:1002000000000000000000000000000000000000EE
:1002100000000000000000000000000000000000DE
:1002200000000000000000000000000000000000CE
:1002300000000000000000000000000000000000BE
:10024000000000000000000000000000008080E0CE
:10025000E0F88C8C0C0C0303838380F8780000801A
:1002600080808060606040000000000080800000AE
:10027000000000606060608080808000787880800E
:10028000838303070C8C8CF8F8E0E080800000008A
:10029000000000000000000000000000000000005E
:1002A000000000000000000000000000000000004E
:1002B000000000000000000000000000000000003E
:1002C000000000000000C0C0C0C0C0C6C6C7C7C78D
:1002D0008707070706060606E1E11F8FC0E0E0E199
:1002E000E1C1810000000000F0F0F8F8F9F9F8F839
:1002F000F0E00000000000C1C1E1E1E0C0C01F1F4C
:10030000E1E10606060707070707070707060600D5
:1003100000000000000000000000000000000000DD
:1003200000000000000000000000000000000000CD
:1003300000000000000000000000000000000000BD
:10034000000000000000FFFF0101010101010101A7
:100350000303030303030C0C3FFFC0C3030F0F0F82
:100360000F030300000000000F0F3F3F3F3F3FFF20
:10037000FFFF8C0C0C3030C3C38F0F0F0703C0C0BE
:100380003F3F0000000000000000000000000000EF
:10039000000000000000000000000000000000005D
:1003A000000000000000000000000000000000004D
:1003B000000000000000000000000000000000003D
:1003C0000000000000000707060606060618189839
:1003D0009898E0606060000080FFFFFF0E00000062
:1003E000000000E0E000000000000000000000004D
:1003F0000003031E1EE0E00001031F1E1E0EFFFF90
:1004000000000000000000000000000000000000EC
:1004100000000000000000000000000000000000DC
:1004200000000000000000000000000000000000CC
:1004300000000000000000000000000000000000BC
:10044000000000000000000000181836363636C1E3
:10045000D9DD1C1C7E7E7E7EFFFF0101007C7CC0FE
:10046000C0000007FFFCF8000000000000000000D2
:100470000000000000010100000000000000010178
:10048000FEFE000000000000000000000000000070
:10049000000000000000000000000000000000005C
:1004A000000000000000000000000000000000004C
:1004B000000000000000000000000000000000003C
:1004C000000000000000000000000000000000002C
:1004D000000000000000000000000000000000001C
:1004E000000000000000000000000000808080800C
:1004F000808080000000000000000000000000007C
:1005000000000000000000000000000000000000EB
:1005100000000000000000000000000000000000DB
:1005200000000000000000000000000000000000CB
:1005300000000000000000000000000000000000BB
:1005400000000000000000000000000000000000AB
:10055000000000000000000000000000000000009B
:1005600000000000000000000000000081C1E1E187
:1005700099878700000000000000000000000000D4
:10058000000000000000000000000000000000006B
:10059000000000000000000000000000000000005B
:1005A000000000000000000000000000000000004B
:1005B000000000000000000000000000000000003B
:1005C000000000000000000000000000000000002B
:1005D00000000000000000000000C0C0C0C0C0C09B
:1005E000C030303030303C0C0C0C0C0C0C0C0C0CB3
:1005F0000C0C0C303030303070C0C0C0C0C0C0C037
:1006000000000000000000000000000000000000EA
:1006100000000000000000000000000000000000DA
:1006200000000000000000000000000000000000CA
:1006300000000000000000000000000000000000BA
:10064000000000000000000000000000008080E0CA
:10065000E0F88C8C0C0C0303838380F87800008016
:1006600080808060606040000000000080800000AA
:10067000000000606060608080808000787880800A
:10068000838303070C8C8CF8F8E0E0808000000086
:10069000000000000000000000000000000000005A
:1006A000000000000000000000000000000000004A
:1006B000000000000000000000000000000000003A
:1006C000000000000000C0C0C0C0C0C6C6C7C7C789
:1006D0008707070706060606E1E11F8FC0E0E0E195
:1006E000E1C1810000000000F0F0F8F8F9F9F8F835
:1006F000F0E00000000000C1C1E1E1E0C0C01F1F48
:10070000E1E10606060707070707070707060600D1
:1007100000000000000000000000000000000000D9
:1007200000000000000000000000000000000000C9
:1007300000000000000000000000000000000000B9
:10074000000000000000FFFF0101010101010101A3
:100750000303030303030C0C3FFFC0C3030F0F0F7E
:100760000F030300000000000F0F3F3F3F3F3FFF1C
:10077000FFFF8C0C0C3030C3C38F0F0F0703C0C0BA
:100780003F3F0000000000000000000000000000EB
:100790000000000000000000000000000000000059
:1007A0000000000000000000000000000000000049
:1007B0000000000000000000000000000000000039
:1007C0000000000000000707060606060618189835
:1007D0009898E0606060000080FFFFFF0E0000005E
:1007E000000000E0E0000000000000000000000049
:1007F0000003031E1EE0E00001031F1E1E0EFFFF8C
:1008000000000000000000000000000000000000E8
:1008100000000000000000000000000000000000D8
:1008200000000000000000000000000000000000C8
:1008300000000000000000000000000000000000B8
:10084000000000000000000000181836363636C1DF
:10085000D9DD1C1C7E7E7E7EFFFF0101007C7CC0FA
:10086000C0000007FFFCF8000000000000000000CE
:100870000000000000010100000000000000010174
:10088000FEFE00000000000000000000000000006C
:100890000000000000000000000000000000000058
:1008A0000000000000000000000000000000000048
:1008B0000000000000000000000000000000000038
:1008C0000000000000000000000000000000000028
:1008D0000000000000000000000000000000000018
:1008E0000000000000000000000000008080808008
:1008F00080808010181C1C1B1918100000000000BC
:1009000000000000000000000000000000000000E7
:1009100000000000000000000000000000000000D7
:1009200000000000000000000000000000000000C7
:1009300000000000000000000000000000000000B7
:1009400000000000000000000000000000000000A7
:100950000000000000000000000000000000000097
:1009600000000000000000000000000081C1E1E183
:1009700099878700000000000000000000000000D0
:100980000000000000000000000000000000000067
:100990000000000000000000000000000000000057
:1009A0000000000000000000000000000000000047
:1009B0000000000000000000000000000000000037
:1009C0000000000000000000000000000000000027
:1009D00000000000000000000000C0C0C0C0C0C097
:1009E000C030303030303C0C0C0C0C0C0C0C0C0CAF
:1009F0000C0C0C303030303070C0C0C0C0C0C0C033
:100A000000000000000000000000000000000000E6
:100A100000000000000000000000000000000000D6
:100A200000000000000000000000000000000000C6
:100A300000000000000000000000000000000000B6
:100A4000000000000000000000000000008080E0C6
:100A5000E0F88C8C0C0C0303838380F87800008012
:100A600080808060606040000000000080800000A6
:100A70000000006060606080808080007878808006
:100A8000838303070C8C8CF8F8E0E0808000000082
:100A90000000000000000000000000000000000056
:100AA0000000000000000000000000000000000046
:100AB0000000000000000000000000000000000036
:100AC000000000000000C0C0C0C0C0C6C6C7C7C785
:100AD0008707070706060606E1E11F8FC0E0E0E191
:100AE000E1C1810000000000F0F0F8F8F9F9F8F831
:100AF000F0E00000000000C1C1E1E1E0C0C01F1F44
:100B0000E1E10606060707070707070707060600CD
:100B100000000000000000000000000000000000D5
:100B200000000000000000000000000000000000C5
:100B300000000000000000000000000000000000B5
:100B4000000000000000FFFF01010101010101019F
:100B50000303030303030C0C3FFFC0C3030F0F0F7A
:100B60000F030300000000000F0F3F3F3F3F3FFF18
:100B7000FFFF8C0C0C3030C3C38F0F0F0703C0C0B6
:100B80003F3F0000000000000000000000000000E7
:100B90000000000000000000000000000000000055
:100BA0000000000000000000000000000000000045
:100BB0000000000000000000000000000000000035
:100BC0000000000000000707060606060618189831
:100BD0009898E0606060000080FFFFFF0E0000005A
:100BE000000000E0E0000000000000000000000045
:100BF0000003031E1EE0E00001031F1E1E0EFFFF88
:100C000000000000000000000000000000000000E4
:100C100000000000000000000000000000000000D4
:100C200000000000000000000000000000000000C4
:100C300000000000000000000000000000000000B4
:100C4000000000000000000000181836363636C1DB
:100C5000D9DD1C1C7E7E7E7EFFFF0101007C7CC0F6
:100C6000C0000007FFFCF8000000000000000000CA
:100C70000000000000010100000000000000010170
:100C8000FEFE000000000000000000000000000068
:100C90000000000000000000000000000000000054
:100CA0000000000000000000000000000000000044
:100CB0000000000000000000000000000000000034
:100CC0000000007FFF010103020606040C0C081857
:100CD00018103030404040C080800000000000000C
:100CE0000000000000000000000000000000000004
:100CF00000000000000000000000000000000000F4
:100D000000000000000000000000000000000000E3
:100D100000000000000000000000000000000000D3
:100D200000000000000000000000000000000000C3
:100D300000000000000000000000000000000000B3
:100D400000000000000F0808080808181010101014
:100D500010E000000080F07C0701000000000000AF
:100D60000000000000000000000000000000000083
:100D70000000000000000000000000000000000073
:100D80000000000000000000000000000000000063
:100D90000000000000000000000000000000000053
:100DA0000000000000000000000000000000000043
:100DB0000000000000000000000000000000000033
:100DC0000000000000000000000000000000000023
:100DD0001C3F3020202323E6E6CEFC3C0000000030
:100DE00000000000000000000000000000C0C0C0C3
:100DF0008000F0F0F0E0E0C0C0C080000000000023
:100E000000000000000000000000000000000000E2
:100E100000000000000000000000000000000000D2
:100E200000000000000000000000000000000000C2
:100E300000000000000000000000000000000000B2
:100E400000000000000000000000000000000000A2
:100E50000000000000000207070F0F0E3E3E7C70EE
:100E6000F0E0E06030180C0C3EFEFEFEFF0F0F1F9E
:100E7000FFFFFFFBE3C3C387870F0F1F1F3E3C3CF1
:100E80001810303020606060C0800000000000005A
:100E90000000000000000000000000000000000052
:100EA0000000000000000000000000000000000042
:100EB0000000000000000000000000000000000032
:100EC0000000000000000000000000000000000022
:100ED0000000000000000000000000000000000012
:100EE000F8070100000000000000010303000000FB
:100EF00003070701000000010103030606000000CC
:100F00000000000000000000C0C00106FEF8000064
:100F100000000000000000000000000000000000D1
:100F200000000000000000000000000000000000C1
:100F300000000000000000000000000000000000B1
:100F400000000000000000000000000000000000A1
:100F50000000000000000000000000000000000091
:100F60000F7CC080000000000000000000040C089E
:100F70001818F0E000000000000000000000000071
:100F8000387CFCFCFC7820000F0F060047CF783837
:100F90000000000000000000000000000000000051
:100FA0000000000000000000000000000000000041
:100FB0000000000000000000000000000000000031
:100FC0000000000000000000000000000000000021
:100FD0000000000000000000000000000000000011
:100FE0000000000103060C18187870606030303083
:100FF0003030FFDF1C1C1C000080E0F0F8F0703087
:1010000030303030301818181C0C0C06030100006A
:1010100000000000000000000000000000000000D0
:1010200000000000000000000000000000000000C0
:1010300000000000000000000000000000000000B0
:1010400000000000000000000000000000000000A0
:101050000000000000000000000000000000000090
:101060000000000000000000000000000000000080
:1010700000001F7F606060787C7F0F070300000026
:101080000000000000000000000000000000000060
:101090000000000000000000000000000000000050
:1010A0000000000000000000000000000000000040
:1010B00000000000000000000000000000000080B0
:1010C00080000000000000000000000000000000A0
:1010D0000000000000000000000000000000000010
:1010E0000000000000000000000000000000000000
:1010F00000000000000000000000000000000000F0
:1011000000000000000000000000000000000000DF
:1011100000000000000000000000000000000000CF
:1011200000000000000000000000000000000000BF
:10113000000000000000000000000000000000FFB0
:1011400003010101010202060604040C181818101C
:10115000F0E00000000000000000000000000000BF
:10116000000000000000000000000000000000007F
:10117000000000000000000000000000000000006F
:10118000000000000000000000000000000000005F
:10119000000000000000000000000000000000004F
:1011A000000000000000000000000000000000003F
:1011B000000000000000000000000000000000032C
:1011C000060606060606060408080808F8F8006081
:1011D000FF1F0000000000000000000000000000F1
:1011E0000000000000000000000000000060E0E0DF
:1011F000E0E2E6EE7E3C3C3C7C78F8F8F0F0F0E093
:10120000C0C08000000000000000000000000000DE
:1012100000000000000000000000000000000000CE
:1012200000000000000000000000000000000000BE
:1012300000000000000000000000000000000000AE
:101240000000000000000000000000000F0F0C0C68
:101250000909F9F9F3FFC0C0C0C080000000000018
:10126000000000000080C0C0E060603030F0F0F1AD
:10127000F1F31B1B1F1E1C18181030302020010119
:101280000301010101010101010282840C30E080AF
:10129000000000000000000000000000000000004E
:1012A000000000000000000000000000000000003E
:1012B000000000000000000000000000000000002E
:1012C000000000000000000000000000000000001E
:1012D00000000103030303033F3F3F303030F0F0D1
:1012E000300804060F0F1F3F3F3000000001071FAA
:1012F0001F1F0000000000000000000000000000B0
:101300000000C0E0F0F0E0E080001F1F0C000F1FA5
:10131000B0F000000000000000000000000000002D
:1013200000000000000000000000000000000000BD
:1013300000000000000000000000000000000000AD
:10134000000000000000000000000000000000009D
:1013500000000000000000000000000000FFFF008F
:10136000000000000000000000000000000000007D
:10137000000000000000000000000000000000204D
:10138000C0C0C1838387C7C3C160603030380C07D9
:101390000301000000000000000000000000000049
:1013A000000000000000000000000000000000003D
:1013B000000000000000000000000000000000002D
:1013C000000000000000000000000000000000001D
:1013D0000000000000000000000000000000030703
:1013E0000C3860E08000000000000000000010F0F9
:1013F000303018181C0C0C0C0E0E0C1C30E0C00009
:101400000003FF7F7F1F07000000000000000000B6
:1014100000000000000000000000000000000000CC
:1014200000000000000000000000000000000000BC
:1014300000000000000000000000000000000000AC
:10144000000000000000000000000000000000009C
:10145000000000000000000000000000000000008C
:1014600000000000071F1F3C3870606C7C7E6341E9
:101470000000000000000000000000000000030366
:101480000303000000000000000000000000000056
:10149000000000000000000000000000000000004C
:1014A000000000000000000000000000000000003C
:1014B000000000000000000000000000000000C06C
:1014C000404080808080000000000000000000009C
:1014D000000000000000000000000000000000000C
:1014E00000000000000000000000000000000000FC
:1014F00000000000000000000000000000000000EC
:1015000000000000000000000000000000000000DB
:1015100000000000000000000000000000000000CB
:1015200000000000000000000000000000000000BB
:10153000000000000000000000000000000000FFAC
:1015400080000000000101010302060604040408F3
:1015500018F8F0000000000000000000000000008B
:10156000000000000000000000000000000000007B
:10157000000000C0E0E0E0C0C0808080808080008B
:10158000000000000000000000000000000000005B
:10159000000000000000000000000000000000004B
:1015A000000000000000000000000000000000003B
:1015B000000000000000000000000000000000002B
:1015C0000707060606060606060606C6FE1C001CDB
:1015D0003F37303030F030200000000000000000C5
:1015E00000000000000000000000000000000007F4
:1015F00007070F0F1F1F3931236343C3838383877B
:1016000007070E0E1E1C1C181818303030302060D2
:1016100040C00000000000000000000000000000CA
:1016200000000000000000000000000000000000BA
:1016300000000000000000000000000000000000AA
:101640000000000000000000000000010101010195
:1016500001E3FFFEFEF7F0F0F0F0F03000000000D4
:10166000000000C0E0E0E0E030301010181818F87A
:10167000F8F8F8F80C0C0C0C060602030301010143
:1016800001000000000000000000000000E0F0D0B9
:10169000000306F8800000000000000000000000C9
:1016A000000000000000000000000000000000003A
:1016B000000000000000000000000000000000002A
:1016C000000000000000000000000000000000001A
:1016D00000000000000000011F1F1F1CFC7C0C0408
:1016E000020103071F3F7F7F7E0000000000000112
:1016F000070F0F0F000000000000000000000000B6
:1017000000000000800000003C7EFEFEFE3F130152
:10171000000080C1733F0E000000000000000000C8
:1017200000000000000000000000000000000000B9
:1017300000000000000000000000000000000000A9
:101740000000000000000000000000000000000099
:1017500000000000000000000000F8FF030000008F
:101760000000000000000000000000000000000079
:1017700000000000000000000000008080C0C0C029
:10178000C0C080810103030307060E0C1C1C3C3EF5
:10179000FEFF7B3910000000000000000000000088
:1017A0000000000000000000000000000000000039
:1017B0000000000000000000000000000000000029
:1017C0000000000000000000000000000000000019
:1017D00000000000000080C0C0607F0F000000001B
:1017E0000000008080C040602030301818181818A1
:1017F0001C0C0C0C0606020203030303010000008C
:1018000000000103030303020202020202020203B8
:1018100003010000000000000000000000000000C4
:1018200000000000000000000000000000000000B8
:1018300000000000000000000000000000000000A8
:101840000000000000000000000000000000000098
:1018500000000000003FFFFFDF0E03010103030251
:101860000303010100000000000000000000000070
:101870000000000000000000000000000000000068
:101880000000000000000000000000000000000058
:101890000000000000000000000000000000000048
:1018A0000000000000000000000000000000000038
:1018B0000000000000000000000000000000000028
:1018C000000FFF02060606060C0C0C0C0818181078
:1018D00030303040404080800000000000000000B8
:1018E00000000000000000000000000000000000F8
:1018F00000000000000000000000000000000000E8
:1019000000000000000000000000000000000000D7
:1019100000000000000000000000000000000000C7
:1019200000000000000000000000000000000000B7
:1019300000000000000000000000000000000000A7
:101940000000031F3C2020202020202020202020D9
:101950002060E00000E0DCCF80808080800000001C
:101960000000000000000000000000000000000077
:101970000000000000000000000000000000000067
:101980000000000000000000000000000000000057
:101990000000000000000000000000000000000047
:1019A0000000000000000000000000000000000037
:1019B0000000000000000000000000000000000027
:1019C0000000000000000000000000000000000017
:1019D000000E0F0808040606FCF8FCFFF1F0F0F01A
:1019E000000000000000000080C0C0C08000008037
:1019F000C0C08090F0F0F0E0E0E0C0C080000000E7
:101A000000000000000000000000000000000000D6
:101A100000000000000000000000000000000000C6
:101A200000000000000000000000000000000000B6
:101A300000000000000000000000000000000000A6
:101A40000000000000000000000000000000000096
:101A50000000000000000000000100000C8FCF7F9C
:101A60003E0E0E02020101017FFFFFFF3F01010157
:101A700003FFFFFFFFFFFFF981810303070F0F0E35
:101A80001E3C7878383030206060C0C08000000094
:101A90000000000000000000000000000000000046
:101AA0000000000000000000000000000000000036
:101AB0000000000000000000000000000000000026
:101AC0000000000000000000000000000000000016
:101AD0000000000000000000000000F83E070000C9
:101AE00000000000000000000000010100000000F4
:101AF00000010307070300000101030303020000C4
:101B000000000000000000000000E0E02307FCF8F7
:101B100000000000000000000000000000000000C5
:101B200000000000000000000000000000000000B5
:101B300000000000000000000000000000000000A5
:101B40000000000000000000000000000000000095
:101B500000000000000000000000FC7F000000000A
:101B600000000000008080800000000000000000F5
:101B70000000000000000000000000000000000065
:101B800000003078FCFCFCF870000707030007CF6A
:101B9000FC38000000000000000000000000000011
:101BA0000000000000000000000000000000000035
:101BB0000000000000000000000000000000000025
:101BC0000000000000000000000000000000000015
:101BD0000000000000000000001F1D0C1F1F02027B
:101BE00002020202030303030303030303030303C9
:101BF0000202060E0E1C78E0C000000000001CF877
:101C0000E0E0E0E0E03030303818180C0C0603015A
:101C100000000000000000000000000000000000C4
:101C200000000000000000000000000000000000B4
:101C300000000000000000000000000000000000A4
:101C40000000000000000000000000000000000094
:101C50000000000000000000000000000000000084
:101C60000000000000000000000000000000000074
:101C7000000000000000000003070C3860C0C0C076
:101C8000FFFF3F3F7F7F7860000000000000000002
:101C90000000000000000000000000000000000044
:101CA0000000000000000000000000004D696E67A9
:101CB0007A6520697320636F6F6C006D696E677A57
:101CC000652E6A696E313140676D61696C2E636F94
:101CD0006D00165C1E001F00200021002200230062
:101CE00024002500260027002D002E002A00A80031
:101CF0002B0014001A000800150017001C00180023
:101D00000C00120013002F00300031004C0039008D
:101D100004001600070009000A000B000D000E0069
:101D20000F0033003400000028005200E1000000E2
:101D30001D001B00060019000500110010003600F0
:101D400037003800E50000004900E000E300E20051
:101D50000000000000002C000000E600E700E400A6
:101D60000151500051004F0001003A003B003C007F
:101D70003D003E003F00400041004200430044005F
:101D80004500010001000100010001000100005CAC
:101D9000010001000100010001000100010001003B
:101DA000010001000100010001000100010001002B
:101DB000010001000100010001000100000001001C
:101DC000010001000000010001000100010001000C
:101DD00001000000010001000100010000000100FD
:101DE00001000100010000000000000001000000EF
:101DF0000100010001000100AC00AE00AB000000DA
:101E00000000000000002A2B280000000000000055
:101E100000000000000000000029000000002C1E4F
:101E20003420212224342627252E362D3738271E0C
:101E30001F202122232425263333362E37381F0432
:101E400005060708090A0B0C0D0E0F1011121314CA
:101E500015161718191A1B1C1D2F3130232D350488
:101E600005060708090A0B0C0D0E0F1011121314AA
:101E700015161718191A1B1C1D2F3130354C000070
:101E80000000000000000000000000000000000052
:101E90000000000000000000000000000000000042
:101EA00000007E0F00D4FFFFFFC70000007800AEE7
:101EB00000AF00DA1281FFD9F1DB20A4A62EAF001B
:101EC000A0C000A1C800AED580A83FD300408D14AB
:101ED00020001603470061006E004A0069006E0092
:101EE0006700200037003000000018036D00690013
:101EF0006E0067007A0065006A0069006E003100BC
:101F0000310000000403090409023B00020100A0A3
:101F1000320904000001030101000921110100013F
:101F20002240000705810308000A0904010001039B
:101F3000000000092111010001227B000705820336
:101F400020000A1201000200000008626B696802AA
:101F5000000102000105010902A10185020901A198
:101F60000005091901290815002501950875018149
:101F7000020501093009311581257F950275088117
:101F80000609381581257F950175088106050C0A1B
:101F900038021581257F950175088106C0C00501AD
:101FA0000980A101850319012AB700150126B70090
:101FB000950175108100C0050C0901A10185041966
:101FC000012AA002150126A002950175108100C00A
:101FD00005010906A101050719E029E715002501FA
:101FE00095087501810295017508810105071900A1
:101FF00029FF150026FF00950675088100050819C0
:10200000012905950575019102950175039101C09E
:1020100011241FBECFEFDAE0DEBFCDBF04B603FE52
:1020200027C08091FC069091FD06A091FE06B0911C
:10203000FF068730904BA740B04BD1F41092FC06BE
:102040001092FD061092FE061092FF0614BE84B791
:10205000877F84BF0FB6F894A8958091600088614F
:1020600080936000109260000FBEE0E0F8E30995F5
:1020700011E0A0E0B1E0E0E1FEE602C005900D92C3
:10208000A23BB107D9F726E0A2EBB1E001C01D9257
:10209000AC3FB207E1F70E9493220C94DE360C9419
:1020A00000000E9429258431D0F48091B50190E090
:1020B000019663E070E00E9434368093B50122E01F
:1020C00030E0A901481B590BCA01982F8827990FA6
:1020D000990F60E074E084559F4F0E94F0260E94A3
:1020E00029258431B8F02091B40130E02F5F3F4FB3
:1020F000237033272093B40183E090E0821B930B7D
:10210000982F8827990F990F60E074E08455934FBA
:102110000C94F0260895009721F0019761F081E07A
:102120000895FB018281882329F08BEB9CE10E94BA
:10213000E31280E00895FB0182818823D9F38CEAC1
:102140009CE1F5CF82E008950F931F930E9429250B
:10215000682F70E090E080E00E94C23420E030E020
:1021600040E250E40E94B3359B01AC0160E070E0B6
:102170008AEF93E40E94083420E030E048EC52E417
:102180000E948C3487FD56C00E942925682F70E07C
:1021900090E080E00E94C23420E030E040E250E471
:1021A0000E94B3359B01AC0160E070E08AEF93E4DC
:1021B0000E9408340E9491346093BE017093BF0165
:1021C0008093C0019093C1010E9429258531B8F107
:1021D0000E9430276091BA017091BB018091BC01CF
:1021E0009091BD010E94FF2C0091BE011091BF0192
:1021F0002091C0013091C101061717072807390740
:1022000060F40E94E42C6093BA017093BB01809348
:10221000BC019093BD010E9451100E94E42C609378
:10222000B6017093B7018093B8019093B9011F91E3
:102230000F91089564E670E080E090E0BDCF60917A
:10224000B6017091B7018091B8019091B9010E94D7
:10225000FF2C613E73498440910520F01F910F913E
:102260000C944B286091BA017091BB018091BC0124
:102270009091BD010E94FF2C693C7105810591057B
:10228000B0F20E94E42C6093BA017093BB0180937A
:10229000BC019093BD011F910F910C94511081E0EE
:1022A00008950C948B1008950C9453111F93CF93A1
:1022B000DF9300D000D00F92CDB7DEB749835A83A9
:1022C0006B833091C20189819A8131111DC06623CF
:1022D000B9F02223A9F00E946418182F682F898171
:1022E0009A810E94101869817A81812F0F900F9036
:1022F0000F900F900F90DF91CF911F910C94D91EEA
:102300000E943C18182FEFCF0E94641869817A81CF
:10231000EDCFFC01262F4081518162817381848140
:102320000C94561181E00895CF93DF93EC0160E0A7
:102330000E948911BE01DF91CF910C9454110E942B
:1023400000210E94ED120C9425210E94AF250C94CF
:10235000282108950E94B9160E94A9112FEF84E345
:102360009CE0215080409040E1F700C000000C94B8
:102370003F2D0F931F93CF93DF938C0161E00E9459
:102380008911EC01F8018281882319F0CE010E94A5
:102390005525B801CE010E9451118823A9F1B80139
:1023A000CE010E94FE28882379F1B801CE010E9457
:1023B0005029882349F1B801CE010E947A2A882346
:1023C00019F1F8018281882361F0CB35FDE5DF0743
:1023D00021F170F4C115ECE5DE07A1F0CF3DDC453D
:1023E000C9F0C801DF91CF911F910F910C944F114B
:1023F000CC358DE5D807A1F0CD35DD4591F70E94AC
:10240000411CEFCF0E94AA1180E0DF91CF911F9174
:102410000F9108950E94B81DF7CF0E944A1CE1CF8A
:102420000E944D1CDECFDF92EF92FF920F931F931D
:10243000CF93DF93E82FF0E0E250F24ED490282FB4
:1024400026952695269530E0F901E256F14E049145
:10245000877010E0082E02C0159507950A94E2F7E0
:1024600001701127F901E257F14EE490F12C082E8A
:1024700002C0F594E7940A94E2F791E0E922FF2480
:10248000F901E258F14EC491D0E002C0D595C7954C
:102490008A95E2F7C170DD270115110519F081EE6B
:1024A0000E943913E114F10419F086EE0E943913E9
:1024B0008D2D0E943814EF2819F086EE0E94CB1360
:1024C000012B19F081EE0E94CB13CD2B51F08CE241
:1024D000DF91CF911F910F91FF90EF90DF900C94BF
:1024E0003814DF91CF911F910F91FF90EF90DF9003
:1024F0000895EF92FF920F931F93CF93DF938C0178
:10250000F62E8AE0E82EF8018491882309F454C05D
:10251000813009F04DC0E8012196FE01849181309F
:1025200091F42196FE0184910E9438148E010F5F70
:102530001F4F8F2D815038F3EFE9FFE03197F1F70E
:1025400000C00000F7CF823039F4E8012296FE0186
:1025500084910E943913EACF833039F4E80122963E
:10256000FE0184910E94CB13E1CF8430F9F6E8019B
:102570002296FE01249190E080E0FE0131962053E6
:10258000330B2A30310548F0019780F2EFE9FFE084
:102590003197F1F700C00000F7CFE89EA001E99E57
:1025A000500D1124C901840F951F2491EF01E5CF2F
:1025B0000E941312E801BACFDF91CF911F910F91C2
:1025C000FF90EF90089560E00C94791208950C94B8
:1025D000E61281E008950C94E9120895CF93C82F74
:1025E0000E94E7128C2FCF910C94EB12CF93DF93C4
:1025F000CDB7DEB72B970FB6F894DEBF0FBECDBFB9
:102600004F83588769877A878B8761110E94701C76
:102610001E821D8285E0FE013796DE011196019033
:102620000D928A95E1F78C819D81892B89F44981EE
:102630005A816B817C818D819E810E94701B2B96BB
:102640000FB6F894DEBF0FBECDBFDF91CF910895D6
:1026500089819A8189238F3F51F3CE0101960E948F
:1026600092118111E4CFEBCFFC01808191810C9418
:10267000A618CF93C82F882309F48BC08238C1F4E1
:102680000E94B02B81FD85C089E30E940A1C0E9434
:10269000A01C2FEF81EE94E0215080409040E1F7A4
:1026A00000C0000089E30E94111CCF910C94A01C73
:1026B0008338A1F40E94B02B80FD6BC083E50E949B
:1026C0000A1C0E94A01C2FEF81EE94E02150804054
:1026D0009040E1F700C0000083E5E5CF8438A1F425
:1026E0000E94B02B82FD55C087E40E940A1C0E9404
:1026F000A01C2FEF81EE94E0215080409040E1F744
:1027000000C0000087E4CFCF8CEF8C0F813A90F4AB
:102710006C2F80910001909101010E94132C88235D
:1027200029F08C2F0E94111C0E94A01C8C2F0E944B
:102730000A1CBBCF80E28C0F883048F4C77081E060
:1027400001C0880FCA95EAF70E94531CAECFEBE593
:10275000EC0FE33040F4F0E0E65BFE4F808190E068
:10276000CF910C94D52BE8E5EC0FE73150F4F0E075
:10277000EE0FFF1FE45EFE4F80819181CF910C949C
:10278000EB2BCD3E30F08C2F0E942123CF910C9467
:10279000F423CF910895882309F452C0823871F44C
:1027A0000E94B02B81FF4CC089E30E940A1C0E944A
:1027B000A01C89E30E94111C0C94A01C833859F4BE
:1027C0000E94B02B80FF3CC083E50E940A1C0E943F
:1027D000A01C83E5EFCF843859F40E94B02B82FF10
:1027E0002FC087E40E940A1C0E94A01C87E4E2CF4D
:1027F0009CEF980F913AF0F290E2980F983050F4D5
:10280000877091E001C0990F8A95EAF7892F0E949D
:10281000591CD2CF9BE5980F933020F490E080E0D4
:102820000C94D52B98E5980F973120F490E080E038
:102830000C94EB2B8D3E20F00E947B230C94F42310
:1028400008951F93CF93DF93182FEB010E94391344
:10285000209731F4812FDF91CF911F910C94CB13EE
:102860008FE99FE00197F1F700C000002197F0CFBA
:1028700070E060E0893311F460E570E00C9421149D
:10288000882321F00E94531C0C94A01C08958823D7
:1028900021F00E94591C0C94A01C0895BF92CF9265
:1028A000DF92EF92FF920F931F93CF93DF936C0110
:1028B000D62FC72FFC011281058102950F700E944F
:1028C000281CE82E8823A1F0E12E112389F08C2FFB
:1028D000807F803429F080E28D0FE12C883040F039
:1028E00082E00E94F11C0E94281C91E0E82EE9265B
:1028F000BC2EB2949FE0B922EB2DF0E0E052F94CEF
:102900000C9467360C2F0F70C07F11F00295007F7A
:102910001123A9F0002359F080E28D0F883010F0C8
:10292000D11109C0802F0E94531C0E94A01C8D2F22
:102930000E94391314C0802F0E94631CF6CF8D2F84
:102940000E94CB13002359F080E28D0F883010F0E5
:10295000D1112CC0802F0E94591C0E94A01C2B2D2D
:102960002850330B2430310520F40E94B02B0E94F4
:10297000EE12EE2009F49EC10E94241C80FD9AC133
:10298000F60112820E941E1C0E947417C6010E944A
:102990007B160E941E1CDF91CF911F910F91FF901B
:1029A000EF90DF90CF90BF900C949517802F0E94EE
:1029B000691CD3CFFC2FFF70FF2EC07FC03219F0EF
:1029C000F29480EFF822DD2369F0D13049F1112330
:1029D00091F1002351F1F601858180FFA8CF8F701E
:1029E000858323C0112381F0011106C00E94831C3E
:1029F0008F290E944014B3CF0130C1F70E94831C7D
:102A00008F290E94891CABCF011106C00E94961C21
:102A10008F2D0E944714A3CF013009F4A0CFF6CF29
:102A2000112329F0063008F09ACF8F2DE2CF053020
:102A300008F095CFEDCF002359F3D93349F4FFEFD8
:102A400027EE33E0F15020403040E1F700C00000B5
:102A50008D2F0E94CB1383CF8C2F86958695837004
:102A600069F0813009F07BCF8D2F9C2F937011116D
:102A700002C090E080E00E94EB2B71CF8D2F9C2F45
:102A80009370111102C090E080E00E94D52B67CFB7
:102A90008D2F112329F00E9421230E94F4235FCF60
:102AA0000E947B23FACF8C2F837009F041C0111153
:102AB00056CF4D2F429546954770440F440F0D2F2A
:102AC0000F7010E030E020E0042E04C0000F111F52
:102AD000221F331F0A94D2F760E070E0CB01D4FFCD
:102AE0000FC06FE070E080E090E004C0660F771FD9
:102AF000881F991F4A95D2F760957095809590959B
:102B0000C695C695C370602B712B822B932BC23058
:102B100049F058F4C13019F00E94261720CF0E94C6
:102B200014171DCF0E9438171ACF0E94121717CF03
:102B30008695112311F08C2F8170882309F40FCF13
:102B40004D2F429546954770440F440F0D2F0F703F
:102B500010E030E020E0042E04C0000F111F221FFF
:102B6000331F0A94D2F760E070E0CB01D4FF0FC0AE
:102B70006FE070E080E090E004C0660F771F881F70
:102B8000991F4A95D2F76095709580959095C69556
:102B9000C695C370602B712B822B932BC23049F0EA
:102BA00058F4C13019F00E94EB17D9CE0E94D91702
:102BB000D6CE0E94FD17D3CE0E944E17D0CECF7036
:102BC000112329F08C2F0E9474178D2F12CF8D2F77
:102BD0000E9447148C2F0E949517C1CED23F89F1D5
:102BE00060F4D03FC9F0D13F29F1112309F442C06C
:102BF00001119DCE8C2F8F7121C0D33F39F1D43F6D
:102C0000A1F7112369F1CF718C2F0E94741763E033
:102C10008C2F0E94D61CA3CE112341F0053008F062
:102C20009ECE8C2F8F710E94B81799CE063008F077
:102C300096CEF7CF8C2F8F71112369F20E947417F3
:102C40008ECE8C2F8F711123C9F3C5CF112329F09C
:102C50008C2F8F710E945F1782CE0E945A177FCEF1
:102C600081E00E94F11C023008F479CE82E00E94DB
:102C7000F11C75CE002359F0D93309F0E9CE8FEF5E
:102C800097EEE3E081509040E040E1F7DFCE8C2FFB
:102C90008F71A1CF4C2F4F706D2FC6010E94D51E92
:102CA0000E94D4185CCE4C2F4F706D2FC6010E942D
:102CB000D81E55CEDF91CF911F910F91FF90EF90CD
:102CC000DF90CF90BF9008950F931F93CF93DF9322
:102CD000EC01688179818A810E94B0188C010E9480
:102CE0000F180E941117B801CE01DF91CF911F91EB
:102CF0000F910C944E14CF93DF93EC018B819C8148
:102D0000892B29F08881998189238F3F59F4DF919C
:102D1000CF910895CE010E946416CE01DF91CF912C
:102D20000C949411CE010E94B9118111F3CF0E942D
:102D3000281C882361F38A81882349F382E0DF918C
:102D4000CF910C94F11C90E080E00E94D52B90E094
:102D500080E00E94EB2B0E94701C0E94801C0E944D
:102D6000A01C0E941B250C94F4230E94181C0C9498
:102D7000A3160E94601C0C94B516E92FE295EF7023
:102D8000E250EE3070F4F0E0E051F94C0C9467360C
:102D9000803F19F020F4883E20F481E00895843FBC
:102DA000E1F380E00895883EC0F3813FD1F7F5CF8D
:102DB00093FB882780F90895FC01808191810E940E
:102DC000A6180C94BD16CF93DF9300D000D00F92BD
:102DD000CDB7DEB70F900F900F900F900F90DF914F
:102DE000CF910895CF93DF9300D000D000D0CDB71E
:102DF000DEB726960FB6F894DEBF0FBECDBFDF91CB
:102E0000CF91089508950C9402170E9403176093C0
:102E1000F9017093FA018093FB019093FC010C94EB
:102E2000A31608950C9405170F931F930091F901B1
:102E30001091FA012091FB013091FC01602B712B64
:102E4000822B932B1F910F910C9405170F931F93B7
:102E50000091F9011091FA012091FB013091FC01E0
:102E600060237123822393231F910F910C940517E4
:102E70000F931F930091F9011091FA012091FB012A
:102E80003091FC0160277127822793271F910F91B2
:102E90000C9405170C9402170C944A170E944C17B7
:102EA0006093F5017093F6018093F7019093F80118
:102EB0000C94A31660E070E0CB010C944E170F93B6
:102EC0001F9341E050E060E070E08A019B0104C084
:102ED000000F111F221F331F8A95D2F7C901B801B5
:102EE0001F910F910C944E170F931F9341E050E0E8
:102EF00060E070E004C0440F551F661F771F8A957D
:102F0000D2F78091F5019091F601A091F701B0916F
:102F1000F8018A019B01082B192B2A2B3B2BC90195
:102F2000B8011F910F910C944E170F931F9341E01E
:102F300050E060E070E004C0440F551F661F771F2B
:102F40008A95D2F7CB01BA016095709580959095DE
:102F50000091F5011091F6012091F7013091F801EF
:102F600060237123822393231F910F910C944E179A
:102F70000F931F9341E050E060E070E004C0440F05
:102F8000551F661F771F8A95D2F78091F5019091A2
:102F9000F601A091F701B091F8018A019B01082781
:102FA00019272A273B27C901B8011F910F910C94BB
:102FB0004E170F931F930091F5011091F601209188
:102FC000F7013091F801602B712B822B932B1F910D
:102FD0000F910C944E170F931F930091F5011091D0
:102FE000F6012091F7013091F801602371238223CB
:102FF00093231F910F910C944E170F931F930091E1
:10300000F5011091F6012091F7013091F801602748
:103010007127822793271F910F910C944E170895C3
:103020002FE0929F800D1124982F977041E001C0EE
:10303000440F9A95EAF786958695869595E0899F3F
:10304000F0011124ED53FE4F90E080E070E05191CB
:10305000DF0111979B01082E02C0369527950A942F
:10306000E2F7217021952527242325272C9301960B
:103070008530910561F708952FE0929F800D11240E
:10308000982F977086958695869525E0829FF0010A
:103090001124ED53FE4F50E040E080E0219130E0FC
:1030A000092E02C0369527950A94E2F7217033273E
:1030B000042E01C0220F0A94EAF7822B4F5F5F4F64
:1030C0004530510559F70895BF92CF92DF92EF92A4
:1030D000FF920F931F93CF93DF938C01C090F50164
:1030E000D090F601E090F701F090F8018091F9019D
:1030F0009091FA01A091FB01B091FC01C82AD92A54
:10310000EA2AFB2ACFE1D0E0BC2ED701C6010C2E63
:1031100004C0B695A795979587950A94D2F780FD38
:103120000EC0219788F7B12C8B2DDF91CF911F9185
:103130000F91FF90EF90DF90CF90BF900895B8016E
:103140008C2F0E940820019761F3EECFCF93DF937D
:10315000EC010E946418BE01DF91CF910C9408200D
:103160001F93CF93DF93EB019091C201992331F02C
:10317000CB01DF91CF911F910C94A618882379F091
:10318000CB010E946418182F682FCE010E941018DE
:10319000BE01812FDF91CF911F910C940820CB01AC
:1031A0000E943C18182FF4CFEF92FF920F931F93B9
:1031B000CF93DF938C01892B81F0F12CEE24E394E3
:1031C000E8012196F8018491843770F4843008F086
:1031D0005FC08130B1F08230A1F1DF91CF911F91BA
:1031E0000F91FF90EF900895853709F44CC008F4D3
:1031F0003DC09CE7980F903780F78F770E94CB13E4
:1032000049C00E5F1F4FFE01849190E2980F9830E5
:1032100060F48770FE2D01C0FF0F8A95EAF78F2FAB
:103220000E94731C0E94A01C02C00E9439138F2DA3
:10323000815030F2EFE9FFE03197F1F700C0000074
:10324000F7CF0E5F1F4FFE01849190E2980F9830E8
:1032500050F48770FE2D01C0FF0F8A95EAF78F2F7B
:103260000E94791CDFCF0E94CB13E1CF0E5F1F4F6E
:10327000FE01C491C150D8F28FE99FE00197F1F7A8
:1032800000C00000F7CF0E5F1F4FFE01F490CFCFBC
:103290000E9439138E01CBCF1F93CF93DF93C09140
:1032A000FD0116E08091FE018C1304C0DF91CF91E7
:1032B0001F910895D0E01C9FF0011D9FF00D112477
:1032C000E150FE4F408151816281738184819581FB
:1032D0000E94F2162196C770E5CF40912F025091BF
:1032E00030026091310270913202809133029091EC
:1032F00034020C94F2161F93CF93DF938091340223
:10330000807FA9F480913102882389F08091FD01AA
:10331000C091FE0160912F0270913002A0913202A3
:10332000B0913302D62FD72316E0C81304C0DF9123
:10333000CF911F91089590E0109711F0DF3F19F49D
:1033400001968770F2CF189F9001199F300D1124BC
:10335000F901E150FE4F41814713F2CF40814613FE
:10336000EFCF42814111ECCF438154814A1B5B0B6B
:10337000483C510528F7809134028F70806180931A
:103380003402F901EC5FFD4F80818F708061808392
:103390008FE292E00E947B16DF91CF911F910C94F7
:1033A0004C19AF92BF92CF92DF92EF92FF920F93A0
:1033B0001F93CF93DF93CDB7DEB761970FB6F89425
:1033C000DEBF0FBECDBF8C0185E0F801DE011D968A
:1033D00001900D928A95E1F7F801E2808FE2C82E04
:1033E00082E0D82E6091320270913302611571052E
:1033F00009F45AC190912F0220913002892F822323
:103400008F3F09F451C140815181A380B480F09075
:103410003102F501E61BF70BFF2009F4F6C080919D
:103420003402382F307FE83CF10508F0AFC031118D
:1034300079C0FE2C251323C0941321C0E1101FC0B6
:103440008F708061809334020E946D19C6010E94C2
:103450007B1680913402F80185838F2D61960FB61B
:10346000F894DEBF0FBECDBFDF91CF911F910F91BA
:10347000FF90EF90DF90CF90BF90AF900895AB2872
:1034800029F0842F85238F3F09F027C180E0F82F92
:10349000F170DF2E80FF3CC08091FD012091FE0184
:1034A00036E0821315C04D875E878D859E850E940C
:1034B000A618292F22952F702230F0F0243018F50D
:1034C0009F70F1F0F8019581907FD1F4D12C1EC04E
:1034D00090E0389FF001399FF00D1124E150FE4F2C
:1034E0006181651306C06081641303C06281E612C6
:1034F0000FC001968770D5CF9F7011F0882331F3EC
:10350000805E883018F3C8010E947B16FD2CA5CF81
:10351000EE2009F4A2CF80913402816080933402BE
:10352000F12C9BCF251306C0941304C0F801EE20A4
:1035300009F487C0C8010E94DC16882319F1EE2027
:1035400009F180913402803270F020912F02309185
:10355000300238872F831986BB86AA868C87CE01D6
:1035600007960E947B1686E0F801AFE2B2E0019078
:103570000D928A95E1F70E947B190E946D19FF2434
:10358000F3946BCFC8010E947B16F9CF311113C0A1
:103590007A2DB98AA88A6E2D89890E94E3168FE256
:1035A00092E00E947B1686E0F60111928A95E9F777
:1035B0000E946D19B5CF25130FC094130DC0E110F3
:1035C0000BC0F8018583C8010E947B1686E0F601D6
:1035D00011928A95E9F741CFC8010E94DC16882331
:1035E00089F2EE2079F280913402803208F4BBCF68
:1035F00020912F02309130023A8329831B82BD82B1
:10360000AC828E83CE010196ACCFE83CF10508F088
:103610003EC0FE2CEE2009F4B5CF25132AC094132A
:1036200028C08091340280FD1BC0982F907FC1F08C
:10363000F8018583903F31F0982F907F905F8F70D5
:10364000892B8583C8010E947B1686E0F801AFE2D2
:10365000B2E001900D928A95E1F70E946D19FDCEBE
:1036600086E0F801AFE2B2E001900D928A95E1F7B1
:10367000F4CEC8010E94DC16811175CF809134020E
:10368000816080933402C8010E947B16E6CE7A2DB9
:10369000B98AA88A6E2D89890E94E31686E0F60110
:1036A00011928A95E9F7D9CFEE2009F46BCFC801C2
:1036B0000E94DC16F82E882309F464CF86E0F80116
:1036C000AFE2B2E001900D928A95E1F78FE292E0CD
:1036D0000E9434130E947B19C0CF81E08E25D7CE83
:1036E0001F93CF93DF93CDB7DEB72C970FB6F89427
:1036F000DEBF0FBECDBF4F83588769877A878B8720
:103700009C87CE0107960E94D119882369F08A858B
:103710009B85892B39F04F815885842F85238F3FD6
:1037200009F071C016E05FC086E0FE013796DE0149
:10373000119601900D928A95E1F78A859B85892BD8
:1037400089F38F81988589238F3F61F32091FE0152
:1037500030E0C9010196877099274091FD01481713
:10376000190671F40E94B9161092FE011092FD0123
:1037700086E0EFE2F2E0DF011D928A95E9F7D2CF11
:1037800096E0929FD001939FB00D1124A150BE4F9F
:10379000FE01319601900D929A95E1F78093FE011A
:1037A0000E944C19BFCF819FC001112481509E4FB0
:1037B0000E94D1198823E9F0E091FD011E9FF001DC
:1037C0001124E150FE4F40815181628173818481D7
:1037D00095810E94F2168091FD0190E0019687701C
:1037E00099278093FD018091FD019091FE0189133D
:1037F000DACF2C960FB6F894DEBF0FBECDBFDF91A7
:10380000CF911F91089569857A858B859C850E944B
:10381000F21688CF682F80910001909101010C94DD
:10382000492C682F80910001909101010C944B2C40
:1038300080910001909101010C944D2C80913502F2
:1038400085958595859508958091350287700895B1
:1038500090913502977081E009F480E0089590918D
:10386000D00292FB222720F9281751F080FB92F911
:103870009093D0028091CF029091D0020C94341D8D
:1038800008958091D00282FB882780F991E08927F2
:103890000C942F1C81E00C942F1C80E00C942F1CA6
:1038A00080914102089590914102892B80934102B9
:1038B0000895809590914102982390934102089534
:1038C00010924102089590914002892B809340020A
:1038D0000895809590914002982390934002089516
:1038E00010924002089590913F02892B80933F02ED
:1038F0000895809590913F02982390933F020895F8
:1039000010923F02089580913602089508950C9414
:10391000861C9091D00292FD08C0909136029817B3
:1039200021F0809336020C94871C08958091360212
:10393000882329F01092360280E00C94871C0895A9
:10394000E0910001F0910101809141028083E091BA
:103950000001F0910101808190914002892B8083C8
:10396000E0910001F0910101808190913F02892B4B
:10397000808390913602992381F0E0910001F091CB
:1039800001018081892B8083809100019091010148
:103990000E94012C81110E94961C8091000190913F
:1039A00001010C94BC2B08950C94D31C9091D0026F
:1039B00092FD10C098E0899F90011124622B6093C2
:1039C00035020E94741780913502859585958595FD
:1039D0000C94D41C0C9474171092350280E00C9453
:1039E000D41C909135028095892380933502282F2D
:1039F000277039F4282F082E000C330B921713066A
:103A000021F49091D00292FF07C085958595859508
:103A10000E9495170C94EC1C08956FEF7FEF90E0D7
:103A200080E00C94C83690E080E00E94A43621E04B
:103A3000893E9E4F09F020E0822F089582E090E0B9
:103A40000C949C3683E090E00C949C36CF9384E0F9
:103A500090E00E949C36C82F82E290E00E949C3643
:103A6000982F8C2FCF910895CF93C92F682F84E082
:103A700090E00E94AA366C2F82E290E0CF910C94E5
:103A8000AA36AB01BC018FE090E00C94BC36AB01D0
:103A9000BC0183E190E00C94BC3660E070E0CB01A7
:103AA0000C94471D60E070E0CB010E94411D0C9416
:103AB0004D1D69EE7EEF90E080E00E94C83660E028
:103AC00082E090E00E94AA3660E083E090E00E94ED
:103AD000AA361092F9011092FA011092FB0110928D
:103AE000FC0160E084E090E00E94AA3660E082E29F
:103AF00090E00E94AA3660E085E090E00E94AA363D
:103B000060E086E090E00E94AA366FEF87E090E0E8
:103B10000E94AA3640E050E0BA0188E090E00E949E
:103B2000BC3660E08DE090E00E94AA3640E050E0B4
:103B3000BA0188E190E00E94BC3660E087E190E045
:103B40000E94AA3640E050E0BA018CE190E00E9469
:103B5000BC3670E060E080E290E00E94C83640E051
:103B600050E0BA0188E190E00E94BC360C94521DEE
:103B70000C94591D682F8EE090E00C94AA360E9498
:103B8000E42C6093550270935602809357029093F1
:103B900058026093510270935202809353029093A3
:103BA000540208950E94E42C6093550270935602CB
:103BB000809357029093580260934D0270934E0287
:103BC00080934F0290935002089585B7806885BF17
:103BD00085B7806885BF0895089508950C94EC1DFD
:103BE00008950C94F01D0E94E51D86EE90E20E945F
:103BF000632D0E94ED1D0C94EE1D81E008950C9440
:103C0000FD1D089508950E94011E0C94021E0E943D
:103C1000CF2C0E94E62180E00E9493260E94F52589
:103C20000C94F11D7F928F929F92AF92BF92CF9290
:103C3000DF92EF92FF920F931F93CF93DF93CDB755
:103C4000DEB72A970FB6F894DEBF0FBECDBF0E9435
:103C50000E22A82E81110E94BF1D53E4852E52E032
:103C6000952E10E000E0702E802F0E942A216C011A
:103C7000F401E190F1904F01E816F90609F46AC0E9
:103C80008091590281FD0E943321C7018C259D2519
:103C9000B12CEE24E394F12C9C012E213F21232B07
:103CA00009F452C00E94FF1D8823A9F0BE827F82C2
:103CB000CE20DF2081E0CD2809F480E088870E94B3
:103CC000D82C8160782F9A8789874E815F8168859B
:103CD0008A850E94F612000F111FF801ED5BFD4F5F
:103CE00080819181E826F926F182E0820E940626F1
:103CF000182F81110E94D21D0E946628A11001C0B8
:103D000011110E9430270E940F240E94B02B909125
:103D100042028917B1F10E94B02B809342022A9689
:103D20000FB6F894DEBF0FBECDBFDF91CF911F91CC
:103D30000F91FF90EF90DF90CF90BF90AF909F904A
:103D40008F907F900C94EE12B394EE0CFF1CFFE06A
:103D5000BF12A2CF0F5F1F4F0530110509F083CFAF
:103D60008FEF89838A831B820E94D82C8160782FF1
:103D70009D838C8349815A816B818D810E94F612CB
:103D8000B5CF2A960FB6F894DEBF0FBECDBFDF9138
:103D9000CF911F910F91FF90EF90DF90CF90BF9048
:103DA000AF909F908F907F90089590E080E008956D
:103DB0000895972F70E02FE0929F600D711D1124E0
:103DC000FB019BE4899FE00DF11D1124EE0FFF1F05
:103DD000EE52F34E859194910895FC01EE0FFF1F72
:103DE000E255F14E859194910895CF93DF930E940F
:103DF0000C20EC01811520E5920708F042C08115E6
:103E000030E4930708F0BDC0883E910528F5803E58
:103E1000910508F09DC0883A910588F4853A91058E
:103E200008F08FC08130910509F492C0009709F421
:103E30008FC0049708F08CC0D0E0C0E089C08F3BF1
:103E4000910508F489C0805C9109C03CD105A0F3BC
:103E50000E94ED1EEC017CC08115904250F4C1150A
:103E600081E0D80708F074C0CD3ED10528F3D065B5
:103E70006FC0C11590E3D90708F079C0CE019F70DB
:103E8000E7CF811525E5920758F5811534E59307AD
:103E900008F0A6C0811542E5940750F4C11581E5EC
:103EA000D80708F471C0DC2FCC27C16FD06A50C08E
:103EB000982F969596959E0123703327C115D3456B
:103EC00008F07FC0C1E0D0E002C0CC0FDD1F2A9512
:103ED000E2F720E2929FC0011124C82BD92B6FC0BA
:103EE000C11589E5D807A8F4C11598E5D90708F0E8
:103EF0007CC0C11526E5D20708F09ECF8C2F0E940A
:103F0000A320C82FD0E0DC2FCC27CC27DF71D062D4
:103F10001FC0C1153AE5D30708F46CC0CE01905616
:103F20008115904208F088CF8D2F8F710E94A320B9
:103F300090E0982F882788279F719C012C2BE901FE
:103F4000E6CFC55AD0E0C558DE4FC881D0E0D06476
:103F5000CE01DF91CF910895C85AD0E0CC0FDD1F7C
:103F6000C35BDE4F0990D881C02DD464F1CFCE0160
:103F70009927D3FF03C0EC01D86CEACFEC01D06CD9
:103F8000E7CFDF70D06AE4CFCE01E4E09695879565
:103F9000EA95E1F783702C2F26952695237090E201
:103FA000299F90011124382B8C2F8370C1E0D0E021
:103FB00002C0CC0FDD1F8A95E2F7C22BD32BDC6841
:103FC000C7CFC1E0D0E002C0CC0FDD1F2A95E2F7D9
:103FD00030E2939FC0011124C82BD92BDA68B8CFE7
:103FE000D82FCC27C46FD06AB3CFDC2FCC27C06FBB
:103FF000D06AAECF8C2F8F700E94A32034E0D6956C
:10400000C7953A95E1F7CF709C2FEC01D069A0CF0E
:104010000E94D91E0C94F51E82389105B1F1B0F4BE
:104020008133910509F475C048F48932910509F48A
:1040300069C08A32910509F473C0089585339105EA
:1040400009F459C08933910501F10895833E910522
:10405000A9F138F4803E9105F9F0823E910549F1CD
:104060000895863E9105A9F1873E9105C9F1843EE8
:10407000910519F52091D00221FF1FC08091CF0238
:1040800084FD14C087EE90E008952091CF02237044
:10409000A1F080EE90E008952091CF0220FD47C06E
:1040A0003091D00230FF09C024FF44C090E080E08E
:1040B00004C02091CF0222FDF7CF08952091CF02B6
:1040C00022FD3BC03091D00230FDE3CF24FFF5CF7D
:1040D000EDCF2091CF0223FFF0CF24FDE7CFD2CF49
:1040E0002091CF0223FD2CC03091D00231FFEECFC2
:1040F00084EE90E008952091CF0225FFDECF89E283
:1041000090E008952091CF0225FFD7CF85E390E07E
:1041100008952091CF0226FFD0CF8AE290E0089543
:104120002091CF0226FFC9CF81E390E0089589E373
:1041300090E0089583EE90E0089582EE90E0089577
:1041400086EE90E008959091CF0292FF06C0282F4E
:1041500028712830F9F4877F846093FF06C0282FE8
:1041600028712831F1F4877E84612091D00220FFEC
:1041700006C0382F38713830D9F4877F816021FF2D
:1041800006C0282F28712831D1F4877E816194FDE3
:10419000877E0895282F24712430F9F68B7F88605C
:1041A000DCCF282F2471243101F78B7E8861DDCF8D
:1041B000382F3171313019F78E7F8860E0CF282F8A
:1041C0002171213121F78E7E8861E1CF80E0089551
:1041D0000C940D1D0E940E228FE39CE90197F1F7CC
:1041E00000C000000E940E2280E00E942A2180FF71
:1041F00004C00E94E8200C943F2D08950C94EA20FE
:104200000E94131D811102C00E94B81D0E941E1D34
:10421000809359020E94261D9093D0028093CF0272
:104220000E94FE200E94221D682F70E090E080E036
:104230000E9412176091F5017091F6018091F701CB
:104240009091F8010C944C1708950C942421089532
:104250000C942721E82FF0E0EE0FFF1FE552FD4FF1
:10426000808191810895089580EA8A95F1F70895F3
:1042700000C008950C943421F894E82FE295EF7073
:10428000F0E031A1282F2F7081E090E001C0880F6D
:104290002A95EAF7982F9095932391A392A1892BC1
:1042A00082A378940895CF93DF93CDE8D1E08991EC
:1042B0008F3F11F00E943C2181E0C239D807B9F745
:1042C000CEE7D1E089918F3F11F00E943C2181E03F
:1042D000CD38D807B9F7DF91CF910895AF92BF924B
:1042E000CF92DF92EF92FF920F931F93CF93DF93C2
:1042F0008C01B62EC62FD0E0CE0183579E4F7C0195
:10430000FC0120812F3F09F453C0F894E22FE2957D
:10431000EF70F0E031A12F7081E090E001C0880FD4
:104320002A95EAF7932F982B91A392A18095892340
:1043300082A378940E943821EEE7F1E030E020E09B
:10434000D12CC12C41E050E081918F3FE1F1A82FA9
:10435000A295AF70B0E090966C9170E08F7002C043
:10436000759567958A95E2F760FD2DC0CA01022E0A
:1043700002C0880F991F0A94E2F7C82AD92A2F5F32
:104380003F4F2F30310501F7F70180818F3F11F04A
:104390000E943C2161E0C114D10409F460E08B2D3E
:1043A0000E943A21CC0FDD1FC00FD11FD982C882D5
:1043B000DF91CF911F910F91FF90EF90DF90CF9001
:1043C000BF90AF90089590E080E0D7CF0E94532136
:1043D000A1EDB2E011961C921E92EBEDF2E011827B
:1043E000108213961C921E921297138212821596B7
:1043F0001C921E9214971582148217961C921E927C
:1044000016971782168219961C921E92189711867B
:10441000108685E00E9459220C949F11FF920F9301
:104420001F93CF93DF93CDB7DEB72A970FB6F894DB
:10443000DEBF0FBECDBF8E010F5F1F4F8AE0F801B8
:1044400011928A95E9F7F12C6F2DC8010E946E2117
:10445000F394F5E0FF12F8CF4AE050E0B80181EDA7
:1044600092E00E948F36FF24F394009709F4F12C18
:10447000892B41F08AE0F801A1EDB2E001900D92A4
:104480008A95E1F72F2D45E06BED72E081ED92E02A
:104490000E945A220E94A5118F2D2A960FB6F894D9
:1044A000DEBF0FBECDBFDF91CF911F910F91FF9067
:1044B00008950895FF920F931F93CF93DF93F82EE3
:1044C000092F162FD72FC42F222349F081E0809384
:1044D0005C020E94D82C90935B0280935A028091D8
:1044E0005C028823A1F080915A0290915B020E94A5
:1044F000F02C059760F0EF2DF02FA12FBD2F90E04D
:1045000080E0D0E08C179D0744F010925C02DF91B0
:10451000CF911F910F91FF900895219131912D938B
:104520003D930196EFCF0E94542C0E94C12E0E9411
:10453000DA2E0E94EC2E0E94031EFBCF80916302B4
:1045400080FF12C06091070185E0689FB0011124CF
:10455000759567957595679560387105A8F561152E
:104560007105A1F1862F089581FF09C060910701AF
:1045700085E0689FB001112475956795EDCF609136
:10458000070182FD0AC0809162028823D1F09091D8
:10459000060160910701891728F085E0689FB00146
:1045A0001124DACF869FB001112485E0869F900107
:1045B000879F300D1124692F70E0C9010E943436A5
:1045C000CBCF65E070E0CECF8FE7089581E008950E
:1045D0008091630280FF0CC06091030170E07595CB
:1045E0006795759567956115710549F1862F089551
:1045F00081FF06C06091030170E075956795F3CF68
:104600006091030182FD0BC0909161029923A1F09A
:104610006091020180910301961738F0682F70E0D5
:104620006038710500F38FE70895899FC001112458
:1046300070E00E943436F4CF61E070E0D7CF81E0C3
:1046400008958D3E31F40E949E22819580936702E9
:1046500008958E3E19F40E949E22F8CF8F3E31F4C9
:104660000E949E228195809366020895803F19F4EE
:104670000E949E22F8CF893F29F40E94E82280936D
:10468000680208958A3F21F40E94E8228195F7CFBD
:104690008B3F31F40E94E82281958093690208954E
:1046A0008C3F19F40E94E822F8CF9FE0980F9830D1
:1046B00070F4815F990B21E030E001C0220F8A95F0
:1046C000EAF780916502822B8093650208958D3F01
:1046D00031F48091630281608093630208958E3F7C
:1046E00021F4809163028260F7CF8F3FB9F7809108
:1046F00063028460F1CF409166028D3E59F480914F
:10470000670287FF0DC01092670241110BC0109223
:10471000620208C08E3E81F48091670218169CF3F5
:10472000442381F08091680290916902892B09F0FD
:104730005AC01092610208958F3E49F447FFF0CFAE
:1047400010926602809167028111ECCFE0CF803F2A
:1047500019F41416ACF3E4CF90916802893F29F460
:104760001916F4F610926802DBCF8A3F19F497FF0E
:10477000D7CFF8CF909169028B3F29F497FFD0CF24
:1047800010926902CDCF8C3F19F41916CCF3C8CF23
:104790009FE0980F983090F4815F990B21E030E012
:1047A000B90102C0660F771F8A95E2F7CB018095A9
:1047B00090916502892380936502B2CF8D3F31F4D9
:1047C000809163028E7F80936302AACF8E3F21F493
:1047D000809163028D7FF7CF8F3F09F0A1CF809149
:1047E00063028B7FF0CF08950E94D82C9C0190919A
:1047F000660280916702982B21F03093600220932B
:104800005F029091680280916902982B21F03093A9
:104810005E0220935D0284E692E00C94C72BEF9237
:10482000FF920F931F93CF93DF9300D000D000D05F
:10483000CDB7DEB786E0E4E6F2E0DE011196019046
:104840000D928A95E1F7E0906602F0906702009180
:10485000680210916902109266021092670210922B
:104860006802109269028E2D8F2991F080915F026B
:10487000909160020E94F02CAC0190916202992309
:1048800009F43FC0809108018417150608F447C059
:10489000802F812B91F080915D0290915E020E94A9
:1048A000F02CAC0190916102992309F477C08091BA
:1048B00004018417150608F47FC080916602909168
:1048C0006702892B90916802892B90916902892B4C
:1048D00011F00E94F42386E0FE013196A4E6B2E0D6
:1048E00001900D928A95E1F726960FB6F894DEBFF7
:1048F0000FBECDBFDF91CF911F910F91FF90EF9031
:104900000895209109018AE0289F9001112424171D
:10491000350708F0BDCF9F5F9093620202C09F3FB2
:10492000D1F7EE2059F00E949E229FEF1E140CF446
:1049300091E0899F802D112480936602FF2059F019
:104940000E949E229FEF1F140CF491E0899F802DFE
:1049500011248093670230916602332309F498CFC3
:1049600020916702222309F493CF45EB3403C00161
:104970001124992359F09093660245EB240390018A
:104980001124332339F03093670282CF81E0809382
:104990006602F3CF81E0809367027ACF2091050110
:1049A0008AE0289F900111242417350708F085CF4D
:1049B0009F5F9093610202C09F3FD1F7002359F09F
:1049C0000E94E8229FEF10160CF491E0899F802D41
:1049D000112480936802112359F00E94E8229FEF6E
:1049E00011160CF491E0899F802D112480936902A7
:1049F00030916802332309F460CF209169022223A9
:104A000009F45BCF45EB3403C0011124992359F01D
:104A10009093680245EB240390011124332339F06D
:104A2000309369024ACF81E080936802F3CF81E03E
:104A30008093690242CF86E0E4E6F2E0DF011D9256
:104A40008A95E9F710926202109261021092630255
:104A5000089580916C0208959C013056211540E222
:104A6000340748F0305E211540E1340720F0315C16
:104A700021153F4178F499279C01245031092432B3
:104A8000310578F02752310981E02E30310550F0A0
:104A900080E008958F3F910579F370F390E080E016
:104AA000EBCF81E008950C942C25CF92DF92EF920A
:104AB000FF92CF93DF930E945325882309F448C0C7
:104AC00080916A0290916B020097E1F10E94F02CB4
:104AD0009C0150E040E060E67AEE80E090E00E94C9
:104AE0004836CA01B90125E030E040E050E00E94BC
:104AF000483660916C022F3F310519F010F02FEF0E
:104B000030E0C62FD0E02C1B3D0BB90190E080E0D7
:104B10000E94C03427EA39E747E45DE30E94B335D9
:104B20000E9475346B017C01BE01DD0F880B990B6F
:104B30000E94C234A70196010E9409340E94913458
:104B400060936C020E94D82C90936B0280936A024F
:104B5000DF91CF91FF90EF90DF90CF900895CF92AB
:104B6000DF92EF92FF92CF93DF9380916A02909150
:104B70006B020E94F02C893E934060F160916C02C0
:104B8000C62FD0E0662777276C1B7D0B072E000C05
:104B9000880B990B0E94C23427EA39E747E45DE3AA
:104BA0000E94B3356B017C01BE01DD0F880B990BB0
:104BB0000E94C2349B01AC01C701B6010E940934B6
:104BC0000E94913460936C020E94D82C90936B02E7
:104BD00080936A02DF91CF91FF90EF90DF90CF90AA
:104BE000089581E008950C94F12553985B9A5298AA
:104BF0005A9A89B183FB882780F94A9905C090E0C9
:104C0000892B80936F02089592E0FACFE0916F02B2
:104C1000EE0FEE0FE0936F0249B143FB882780F956
:104C200049B142FB222720F942FF02C022E030E0D6
:104C3000822BE82BE0936F02EF70F0E0EE56FE4F10
:104C4000808190916E02890F80936E0220E0843003
:104C500054F080916D028F5F80936D0260E080E080
:104C60000E94F32521E080916E028D3F54F48091E3
:104C70006D02815080936D0261E080E00E94F32517
:104C800021E080916E02082E000C990B64E070E028
:104C90000E94343680936E02822F0895CF92DF9265
:104CA000EF92FF920F931F93CF93DF936C017B01E1
:104CB00064E670E088E70E94AA2AEC0197FD12C022
:104CC00010E000E0F601E00FF11F849164E670E06F
:104CD0000E94242BEC01892B29F40F5F1F4F0E1526
:104CE0001F0581F70E94A72BCE01DF91CF911F9165
:104CF0000F91FF90EF90DF90CF900895E5EEF2E0F6
:104D000080E094E0DF019C011D9221503040E1F7EA
:104D1000F093EA06E093E9068FEF9FEF9093B602D7
:104D20008093B50208950E94A2108093B10280FD85
:104D30000FC080E88093B0020E94A42A6DE070E06A
:104D400085EC9EE10E944E26892B21F080E008959B
:104D500080E4F0CF8091B10263E070E081FD26C075
:104D600082EC9EE10E944E26892B81F76DE070E077
:104D700082EB9EE10E944E26892B41F70E94E42C93
:104D800060527C468B4F9F4F6093E5067093E6061A
:104D90008093E7069093E8060E947E2681E0809348
:104DA000B4028093B3021092B20208958FEB9EE199
:104DB000D9CF2091B00236E0839FC0011124629FB9
:104DC000800D911D1124811524E0920714F090E0CC
:104DD00080E08B519D4F9093EA068093E9060895F9
:104DE000CF93DF932091E9063091EA06255E3240A9
:104DF000A901460F571F4130544020F060E074E095
:104E0000621B730B4091B5025091B602FC01C901BF
:104E1000620F731FC1E0D0E08617970738F05093F8
:104E2000B6024093B502DF91CF9108952491DC0141
:104E3000AB51BD4F3C91321781F02C939C01A6E001
:104E400036952795AA95E1F7DE0102C0AA0FBB1F90
:104E50002A95E2F79D014A2B532B01963196DCCF20
:104E60008091B402811103C08091B30208950E9421
:104E7000E42C60527C468B4F9F4F6093E506709305
:104E8000E6068093E7069093E8068091B3028111CD
:104E9000EBCF62E070E080EB9EE10E944E26892B12
:104EA00019F781E08093B302DFCF2F923F925F9298
:104EB0006F927F928F929F92AF92BF92CF92DF922A
:104EC000EF92FF920F931F93CF93DF938091B402E1
:104ED000882369F02091B5023091B6022115310581
:104EE00031F08091B20261E070E0882399F0DF91A7
:104EF000CF911F910F91FF90EF90DF90CF90BF90D7
:104F0000AF909F908F907F906F905F903F902F9089
:104F100008958F5F082F10E01B01082E02C0220C9D
:104F2000331C0A94E2F7A90142215321452B89F34E
:104F30009091B10290FD43C08295880F880F8074D4
:104F400080930C0198013695279520930F01815C81
:104F500080930D011092100124E630E047E050E00C
:104F60006AE071E088E70E94532B892B09F0BFCFDC
:104F7000A80126E0440F551F2A95E1F78091B10260
:104F800080FD2BC04B515D4F04E610E020E430E083
:104F900060E488E70E947A2B892B09F0A8CF0E9451
:104FA0003027E101C095D0958091B5029091B6026D
:104FB000C823D923D093B602C093B50298CF880FE7
:104FC000880F880F80930C0110920F01895F8093E6
:104FD0000D0187E080931001BFCFE0E7F2E080E4AD
:104FE000DF011D928A95E9F7AAEAB1E002EA11E031
:104FF00082EBC82E81E0D82E97E0592E7724739447
:105000008D91E80129918E01240F352F311D2B51EF
:105010003D4FE82FF0E0E059FD4F90E080E0652C37
:10502000681A872C082E01C0880C0A94EAF77901C7
:10503000A12CE701B9907E01B820662D6A1967702E
:10504000962E062E000C770BDB2D01C0DD0F9A94F7
:10505000EAF77195619571096770772701C0B69479
:105060006A95EAF7BD2A6081962E9B289082A394C8
:1050700068E0A612DECF019631968830910579F668
:10508000CA16DB0609F0BCCF04E610E020E430E0ED
:1050900040E752E07DCF8091B3029091B40291112C
:1050A00003C091E089270895882369F062E070E0E9
:1050B0008EEA9EE10E944E26892B19F08091B30260
:1050C00008951092B3028091B302EBCF0F931F9318
:1050D0008091B402882319F160E080E00E94D92613
:1050E0000E94A4100E9455278091B3028823B9F032
:1050F0000E94E42C0091E5061091E6062091E70657
:105100003091E806601B710B820B930B6F3F7F4F52
:105110008F4F9F4720F41F910F910C944B281F91A4
:105120000F9108950F931F93CF93DF93C42FD22F26
:10513000FC0182818823C9F04093B9020E94D82CD7
:105140009093B8028093B70280E28C0F883008F009
:1051500050C0C77081E001C0880FCA95EAF7DF919F
:10516000CF911F910F910C9440141091B902141318
:1051700035C08091B7029091B8020E94F02C883C13
:10518000910560F5C0E2CD0F1D17B9F080E2810FE7
:10519000883040F4177081E001C0880F1A95EAF753
:1051A0000E944714C83048F481E09D2F977001C0D9
:1051B000880F9A95EAF70E944014802F0E943814B5
:1051C000C830B8F4D77081E001C0880FDA95EAF7EB
:1051D000DF91CF911F910F910C94471480E28C0FB7
:1051E000883038F4C77081E001C0880FCA95EAF7AB
:1051F000EFCFDF91CF911F910F9108950F939C01F5
:10520000CB01243F4CE5340759F1A8F4293DFCE5D6
:105210003F0701F12A3D4CE53407D1F1283D3C45DB
:1052200091F406E221EE41EE68ED7CE50E949228C1
:1052300080E00F910895263FFCE53F07E9F0B0F0CC
:10524000273F3C45F9F0FC018281882339F1109217
:10525000B902EFCF07E225EE45EE69ED7CE5E6CF3A
:1052600006E221EE40EE64EF7CE5E0CF07E225EEBA
:1052700044EE65EF7CE5DACF06E221EE42EE66EF22
:105280007CE5D4CF07E225EE46EE67EF7CE5CECF96
:1052900008E221E045EE6AED7CE5C8CF81E0C9CFA8
:1052A000CF93DF93EC01FB018281882309F420C1B5
:1052B000C430FDE5DF07C8F5CB3F9CE5D90730F4E6
:1052C0009E0122503C452431310598F50E94261D4F
:1052D0009093D0028093CF02C031FCE5DF0709F440
:1052E000E0C008F061C0C8309CE5D90709F4CBC024
:1052F00088F5C430FCE5DF0709F4B3C0E8F4C23038
:105300009CE5D90709F4A7C08091CF028260C33021
:10531000DC4509F4A3C08091CF029091D0020E9495
:10532000341D0E94B91680E004C0C236EDE5DE07E8
:1053300069F2DF91CF9108958091CF028061C630EC
:10534000FCE5DF0709F48AC008F48FC08091CF0222
:10535000806284C08091CF028D7FCC309CE5D907DC
:1053600009F47CC070F48091CF028C60CA30FCE5F7
:10537000DF0709F473C008F48AC08091CF028E7FE2
:105380006DC08091CF02877FCE309CE5D90709F4AC
:1053900065C08091CF028B7FCF30DC4508F45EC0C2
:1053A0008091CF028F7E5AC0CD3FFCE5DF0709F424
:1053B00074C040F5C4319CE5D90709F48AC058F49B
:1053C000C231FCE5DF0709F474C008F46EC08091B7
:1053D000CF02837F43C0CB3F9CE5D90709F449C086
:1053E00008F04DC0C531DC4509F095CF8091CF0262
:1053F00082FB992790F921E0922790FB82F990FB9C
:1054000083F92CC0C1308DE5D80709F458C088F461
:105410008091D0028360CF3FECE5DE0769F1809197
:10542000D0028D7FC115DD4538F18091D0028C7F8F
:1054300023C0C3308DE5D80709F458C008F452C022
:10544000C236DD4509F067CF9091CF02892F8F7E5C
:1054500094FF806103C08091CF0281608093CF026E
:105460005ACF8091CF028460F9CF8091CF028860BB
:10547000F5CF8091D00281608093D0024CCF809193
:10548000D0028260F9CF8091CF028064E7CF0E9482
:10549000B9168091CF028068E1CF8091D0028E7FD3
:1054A000EBCF8091CF028F7DD9CF8091CF028F7BC0
:1054B000D5CF0E94B9168091CF028F77CFCF809140
:1054C000D002982F909591708E7F892B90FB81F957
:1054D000D3CF0E94B9169091CF02892F97FB87F9FD
:1054E0008058BCCF81E00E94BA1D15CF80E0FBCF71
:1054F00081E01FCFCF93DF93EB0186319C4511F5FF
:105500000E94501C9A81992399F08A7A91E009F4BB
:1055100090E09093BA02811109C089E20E940A1CAE
:105520000E94A01C80E0DF91CF91089585E3F6CF23
:105530008091BA02811104C089E20E94111CF0CF4F
:1055400085E3FBCF81E0EFCF1092B9008CE0809330
:10555000B80008959F92AF92BF92CF92DF92EF92E0
:10556000FF920F931F93CF93DF93B82EEB010E940E
:10557000D82C6C01EE24E394F12CC431D10560F0F9
:1055800025E0E22EF12CCF3FDC0731F0CE0164E1C3
:1055900070E00E9420367B0184EAA82E94E8992EC0
:1055A0001092BC00A092BC000E94D82C8C0180916B
:1055B000BC0087FF0DC08091B900887F883039F129
:1055C0008091B900887F803111F10FEF1FEF09C082
:1055D0000E94D82C801B910B8E159F0540F30EEF77
:1055E0001FEFCF3FDC07E1F2C6010E94F02C8C17C1
:1055F0009D07B0F2C801DF91CF911F910F91FF90ED
:10560000EF90DF90CF90BF90AF909F900895B092B1
:10561000BB009092BC000E94D82C8C018091BC00F1
:1056200087FF0AC08091B900887F883111F08034EB
:1056300061F610E000E0DECF0E94D82C801B910BB9
:105640008E159F0558F3CBCF0F931F93CF93DF9306
:10565000EB018093BB0084E88093BC000E94D82CAF
:105660008C018091BC0087FF11C02091B900287F78
:1056700081E090E0283211F490E080E091958195EE
:105680009109DF91CF911F910F910895CF3FDC07D2
:1056900041F30E94D82C801B910B8C179D0708F3B7
:1056A0008EEF9FEFEECFCF92DF92EF92FF920F93AC
:1056B0001F93CF93DF936B018A017901B9010E9497
:1056C000AA2AE6010C0D1D1DC017D10761F424E9BB
:1056D0002093BC00DF91CF911F910F91FF90EF902D
:1056E000DF90CF90089597FDF2CFB70189910E9486
:1056F000242BEACFCF92DF92EF92FF920F931F936A
:10570000CF93DF93C62F6A017901B8010E94AA2ABC
:1057100097FD0CC0B8018C2F0E94242BE601EC0CE5
:10572000FD1CCE15DF0511F097FF0CC024E9209376
:10573000BC00DF91CF911F910F91FF90EF90DF9010
:10574000CF900895B80189910E94242BEACF84E973
:105750008093BC0008959093C0028093BF02089587
:10576000E091BF02F091C002309721F00190F081EA
:10577000E02D099480E00895E091BF02F091C0020D
:10578000309721F00280F381E02D09940895E09193
:10579000BF02F091C002309739F022E0DC012C9377
:1057A0000480F581E02D099408952091BD02309187
:1057B000BE022817390771F09093BE028093BD0294
:1057C000E091BF02F091C002309721F00680F7818E
:1057D000E02D099408952091BB023091BC02281756
:1057E000390771F09093BC028093BB02E091BF0235
:1057F000F091C002309721F00084F185E02D0994EA
:1058000008959C012E5F3F4FAC01485F5F4F80E0E1
:105810002417350709F40895F90191919F019923FF
:10582000B9F38F5FF5CF662349F0FC0132960896F5
:105830002191261729F0E817F907D1F780E008959C
:1058400081E008959C01FC0132969FEF80E0419138
:10585000461751F09F3F19F4411101C0982F8F5FF7
:105860008630A9F79F3F09F40895290F311D97FD50
:105870003A95F90162830895FC01329608962191C8
:10588000261303C0DF0111971C92E817F907B9F737
:1058900008950C94222C0C943C2C029626E0FC01DA
:1058A00011922A95E9F708950895089508950C94A2
:1058B000562C8091F306843049F10E94572C80E0E9
:1058C0000E94EE121092C10288E190E020E40FB62F
:1058D000F894A895809360000FBE2093600083B772
:1058E000817F846083BF83B7816083BF789488950C
:1058F00083B78E7F83BF0FB6F894A8958091600020
:10590000886180936000109260000FBE0895089532
:10591000CF930E94552C0E940E220E94872CC0E03B
:105920008C2F0E942A21892B31F4CF5FC530C1F71B
:1059300080E0CF91089581E0FCCF08950C949D2CD8
:105940000E94B9160E94B02B0E94EE120C949E2C5D
:105950001F921FB61F9211248F939F93AF93BF93F3
:105960008091C102811113C08091EB069091EC06E9
:10597000A091ED06B091EE064196A11DB11D809358
:10598000EB069093EC06A093ED06B093EE06BF9164
:10599000AF919F918F911F901FBE1F90189582E02D
:1059A00084BD93E095BD9AEF97BD80936E000895F6
:1059B0002FB7F8948091EB069091EC06A091ED063C
:1059C000B091EE062FBF08952FB7F8946091EB06C3
:1059D0007091EC068091ED069091EE062FBF089530
:1059E0009C014FB7F8948091EB069091EC06A09142
:1059F000ED06B091EE064FBF821B930B0895CF9238
:105A0000DF92EF92FF922FB7F894C090EB06D09000
:105A1000EC06E090ED06F090EE062FBFA701960190
:105A2000261B370B480B590BCA01B901FF90EF90A9
:105A3000DF90CF90089578941F921FB61F92112483
:105A40008F939F93AF93BF938091EB069091EC0659
:105A5000A091ED06B091EE060196A11DB11D8093B7
:105A6000EB069093EC06A093ED06B093EE06BF9183
:105A7000AF919F918F911F901FBE1F90189581E04D
:105A80008093E00080E28093D8001092C9008FE1FB
:105A90009EE40197F1F700C0000087E090EBDC0185
:105AA0008093FC069093FD06A093FE06B093FF063C
:105AB00088E19CE00FB6F894A895809360000FBE33
:105AC00090936000FFCF9093B3018093B20108954B
:105AD0008091CD0208959091F306943031F5809332
